:10000000F8C0000027C1000025C1000023C1000086
:1000100021C100001FC100001DC100001BC1000064
:1000200019C1000017C1000015C1000013C1000074
:1000300011C100000FC100000DC100000BC1000084
:1000400009C1000007C1000005C1000003C1000094
:1000500001C10000FFC00000FDC000000C940D268F
:10006000F9C000000C940D290C944329F3C0000042
:10007000F1C00000EFC00000EDC00000EBC00000C8
:10008000E9C00000E7C00000E5C00000E3C00000D8
:100090000C9499290C94CF29DDC00000DBC000002E
:1000A000D9C00000D7C00000D5C00000D3C00000F8
:1000B000D1C00000CFC00000CDC00000CBC0000008
:1000C000C9C00000C7C000000C946E220C94252A01
:1000D0000C945B2ABFC000000C94B12A0C94E72A50
:1000E000B9C0000000000A0B02090C0D0E0807033E
:1000F00004010000000000000000000000000000FB
:1001000000000000000000000000000000000000EF
:1001100012111000000000000000000000000000AC
:100120000000000000000000000001021020200874
:100130000810204010204080020102010804020142
:1001400001020408102040808040201008040201B1
:10015000800402018040201008040201080402010A
:100160000102040810204080010204081020408091
:1001700005050505070508080808020202020A0A23
:100180000808040404040101010101010101030341
:10019000030303030303040707070C0C0C0C0C0CEC
:1001A0000C0C0202020206060606060606060B0BE9
:1001B0000B0B0B0B0B0B00002200250028002B0063
:1001C0002E003100340002010000050108010B017E
:1001D00000002100240027002A002D0030003300F9
:1001E00001010000040107010A016C29F829842A91
:1001F000102B11241FBECFEFD1E2DEBFCDBF00E038
:100200000CBF12E0A0E0B2E0E6ECF7E500E00BBFC7
:1002100002C007900D92AC3CB107D9F727E0ACECD7
:10022000B2E001C01D92A23DB207E1F710E0C9EFB4
:10023000D0E000E006C021970109802FFE010E9456
:10024000B02BC53FD10780E00807A9F70E947123B2
:100250000C94E12BD5CE611102C00C947A27613049
:10026000E1F362E0FACF662319F061E00C94B6275F
:1002700060E0FCCF90E080E008950F931F9300971B
:1002800009F487C06115710509F483C0009110025B
:100290001091110220911202309113020E3F1F4F54
:1002A0002F4F3F4F09F066C04FEF5FEFBA01409309
:1002B0001002509311026093120270931302409146
:1002C0001002509111026091120270911302DC0130
:1002D0001296ED91FC9180819181A281B3818093EE
:1002E000340390933503A0933603B093370384818E
:1002F0009581A681B7818093300390933103A093B9
:100300003203B093330380859185A285B3858093B2
:100310002C0390932D03A0932E03B0932F03848579
:100320009585A685B7858093280390932903A0938C
:100330002A03B0932B0310922403109225031092EA
:10034000260310922703B3D48CE796E09093CD0256
:100350008093CC029093CF028093CE0297D30097E4
:1003600031F421E030E030933903209338031F91BA
:100370000F91089500911002109111022091120224
:1003800030911302DB010D931D932D933C93139732
:1003900096CF8FEF9FEFEBCF8F929F92AF92BF924E
:1003A000CF92DF92EF92FF921F93CF93DF934B0197
:1003B0005C0110913B0382E090E0909339038093BD
:1003C000380381149104A104B10441F480913B03EA
:1003D000811104C080913A03C1E08111C0E0C12CB9
:1003E000D12C760180913B03811106C080913A03A4
:1003F000811102C0CC23D1F083E090E090933903C7
:1004000080933803CC2371F1CCE9DFEF111101C0E7
:10041000D7D7CE01DF91CF911F91FF90EF90DF9062
:10042000CF90BF90AF909F908F9008956AE070E05A
:1004300080E090E00E947C2680E1C80E87E2D81E12
:10044000E11CF11C8FEF88169806A806B80631F05B
:10045000C1E08C149D04AE04BF0408F0C0E080E04D
:1004600049D3C0CFD0E0C0E0D1CFCF92DF92EF929E
:10047000FF920F931F93CF93DF938F3F910511F05E
:1004800008F050C0209138033091390323303105F2
:1004900039F020913803309139032130310531F49E
:1004A00024E030E030933903209338036A017B0164
:1004B000EC0182309105A0F011E0AE01C701B60158
:1004C000E4D2AB01BC01CE011123F9F0DF91CF9151
:1004D0001F910F91FF90EF90DF90CF900C94090C3B
:1004E0008C01000F111F04531D4FD8018D919C9159
:1004F000892B11F30E94130C0297F1F6D801ED91AC
:10050000FC91CE011995182FD8CF0E942B0C90E0AA
:1005100080E0DF91CF911F910F91FF90EF90DF90DE
:10052000CF9008958FEF9FEFF4CF80E0E3C2CF9399
:10053000DF9386E090E0909339038093380333D3C0
:10054000EC01ECECF2E084E0DF011D928A95E9F722
:10055000CFD61092390310923803CE01DF91CF919C
:10056000089580913A03089580912303089560933C
:10057000100270931102809312029093130290E084
:1005800080E00895CF92DF92EF92FF926B017C01A1
:100590009F7720E030E040E859E50E94712487FF12
:1005A0002BC020E030E040E05FE3C701B6010E94CD
:1005B000A62587FD0EC020E030E040E05FE3C701E4
:1005C000B6010E94FA23FF90EF90DF90CF900C9439
:1005D000DE2420E030E040E05FEBC701B6010E947E
:1005E000A625181684F420E030E0A901C701B60161
:1005F0000E94AA256B017C01C701B601FF90EF9014
:10060000DF90CF90089520E030E040E05FE3C70145
:10061000B6010E94F923FF90EF90DF90CF900C94E9
:100620005E244F925F926F927F928F929F92AF92D1
:10063000BF92CF92DF92EF92FF92C090C807D09006
:10064000C907E090CA07F090CB07C701B6010E9426
:10065000A3242B013C012091080230910902409112
:100660000A0250910B020E94712487FF85C0F7FC9B
:1006700083C08090000290900102A0900202B0908E
:1006800003028092CC079092CD07A092CE07B09241
:10069000CF0720E030E040E85FE360910402709112
:1006A000050280910602909107020E94F9239B01A6
:1006B000AC01C301B2010E94A62587FD61C0109262
:1006C000C8071092C9071092CA071092CB07C5013C
:1006D000B40158DF6B017C0120E030E040E853E4D6
:1006E0000E9471246FEF87FF0EC020E030E0A90167
:1006F000C701B6010E94A62560E087FD04C0C701BE
:10070000B6010E9475248DE0AEDD6091FA02709111
:10071000FB028091FC029091FD026F5F7F4F8F4F33
:100720009F4F6093FA027093FB028093FC029093B8
:10073000FD020E94A1249B01AC016091FE02709118
:10074000FF0280910003909101030E94AA2560930B
:10075000F6027093F7028093F8029093F902FF90EB
:10076000EF90DF90CF90BF90AF909F908F907F9051
:100770006F905F904F900895812C912C540181CF00
:100780008FEFC81AD80AE80AF80AC092C807D092B0
:10079000C907E092CA07F092CB0799CFCF93DF93B6
:1007A000E0EEF2E080E090E0A0E8BFEB82A393A34C
:1007B000A4A3B5A380E090E0A0E8BEE3868F978F66
:1007C000A0A3B1A381E190E1A6E8B1EF8483958372
:1007D000A683B7838FED9FEAA8E8BAEA808791875E
:1007E000A287B38784E79AE9A0ECB6E68487958769
:1007F000A687B7878BE19DEBAAECBAE4808B918B3F
:10080000A28BB38BA4EDB2E0B383A283E0EDF2E060
:100810001196FC93EE9389E392E091838083938316
:10082000828384EF92E015969C938E93149784EEC6
:1008300092E013969C938E93129786EF92E0179610
:100840009C938E931697CEEBD7E0188281E090E0D0
:10085000A0E0B0E089839A83AB83BC8361E08DE044
:10086000FADC81E08D83DF91CF9108958091BE07FE
:10087000811103C081E08093BE0708954F925F927B
:100880006F927F928F929F92AF92BF92CF92DF92A0
:10089000EF92FF920F931F93F894409013035090A0
:1008A00014036090150370901603C0900703D09056
:1008B0000803E0900903F0900A03452B09F0A6C055
:1008C0009B01AC01241935094609570929013A0150
:1008D00000910F0310911003209111033091120326
:1008E00048015901840C951CA61CB71C8016910662
:1008F000A206B306A0F400910B0310910C03209103
:100900000D0330910E030F5F1F4F2F4F3F4F00938A
:100910000B0310930C0320930D0330930E0380926E
:100920000F0390921003A0921103B0921203009152
:100930000B0310910C0320910D0330910E03809254
:10094000170390921803A0921903B0921A03009310
:100950001B0310931C0320931D0330931E0360930D
:100960001303709314038093150390931603A3014C
:10097000920160E970ED83E090E00E946B2B6C0DBA
:100980007D1D8E1D9F1D6093070370930803809348
:10099000090390930A030091100210911102209113
:1009A0001202309113020F3F1F4F2F4F3F4FF1F0B4
:1009B0000091100210911102209112023091130245
:1009C0000E3F1F4F2F4F3F4F89F0C0901002D09025
:1009D0001102E0901202F090130221E08C149D04A9
:1009E000AE04BF0408F420E02093230378941F9101
:1009F0000F91FF90EF90DF90CF90BF90AF909F90BE
:100A00008F907F906F905F904F9008954B015C01A5
:100A100084189508A608B708A3019201261B370B76
:100A2000480B590B6415750586059705E0F082168D
:100A30009306A406B50640F420E030E0A901811435
:100A40009104A104B104A1F460E970ED83E090E0A9
:100A50000E946B2BA7019601261B370B480B590BE5
:100A6000CA01B901C3CF82169306A406B50660F782
:100A7000A501940160E970ED83E090E00E946B2B8A
:100A80006C0D7D1D8E1D9F1DB1CFF8CECF93DF93D2
:100A900000D01F92CDB7DEB71C821B821A8219824A
:100AA00010921F0310922003109221031092220330
:100AB000BE016F5F7F4FCE0103960E943F22698186
:100AC0007A818B819C810E942F1B009761F4BE016B
:100AD0006F5F7F4FCE0103960E944B2269817A811E
:100AE0008B819C812ED50F900F900F900F90DF91EE
:100AF000CF910895FF920F931F93CF93DF93082F09
:100B000060E070E0CB010E947C26FF24F3940E94F9
:100B1000181AEC01892B89F010E0CE3F8FEFD8072F
:100B200069F0002361F160E070E0CB010E947C2657
:100B300081E090E0892B59F322C011E025D5EC012A
:100B4000892B21F0CE3F8FEFD80759F711111EC026
:100B500011E0229609F410E00E94C819EC01892BDB
:100B600021F0CE3F8FEFD807E1F6111111C011E04F
:100B7000CE3F8FEFD80709F410E001110BC0CE0172
:100B8000DF91CF911F910F91FF90089511E0E4CF75
:100B900011E0F3CF60E070E0CB010E947C261F25BE
:100BA000812F90E0C7CFCF93DF93809123038823D9
:100BB00021F060E070E0CB014CD635D6D0E0C0E04B
:100BC000892B71F06AE070E080E090E00E947C2662
:100BD00081E090DF28D62196C03D27E0D20781F73B
:100BE00027D60E94831B10923B0310923A03109267
:100BF000340310923503109236031092370310928B
:100C0000300310923103109232031092330310928A
:100C10002C0310922D0310922E0310922F0310928A
:100C200028031092290310922A0310922B0310928A
:100C300024031092250310922603109227034EEFEF
:100C40005FEF6FEF7FEF40931002509311026093BC
:100C500012027093130210922303E7E1F3E028E0FD
:100C6000DF011D922A95E9F71092130310921403E5
:100C7000109215031092160310920F031092100396
:100C8000109211031092120310920B0310920C0396
:100C900010920D0310920E03109207031092080396
:100CA0001092090310920A03DF91CF9108951092D8
:100CB0004703109248031092490310924A0310927E
:100CC000460380914F039091500390934503809386
:100CD0004403109243031092420310923E03109279
:100CE0003F03109240031092410310924C03109264
:100CF0004B0390E080E00895CF92DF92EF92FF9255
:100D00000F931F93CF938C01892B09F055C020912D
:100D10004F033091500380914403909145034091DB
:100D20004F035091500350934503409344032817B9
:100D3000390781F0109243031092420310923E0350
:100D400010923F03109240031092410310924C0303
:100D500010924B0380914F0390915003019761F5DE
:100D600080914B0390914C03892B21F480911402C4
:100D7000811112C080914B0390914C030197E1F4D3
:100D800080913E0390913F03A0914003B0914103B5
:100D90000197A105B10581F410923E0310923F0323
:100DA00010924003109241031092140282E090E0EE
:100DB00090934C0380934B0380914F039091500389
:100DC000019709F01CC1809165039091660380171B
:100DD000910709F014C18091610390916203A09181
:100DE0006303B0916403009709F409C12091600383
:100DF00021110DC040916103509162036091630322
:100E000070916403452B462B472B09F4F8C02091C1
:100E10004B0330914C032230310509F0F0C0209192
:100E200042032111ECC0FC01C080D180E280F3803C
:100E300080914603882309F4D3C080915203909196
:100E40005303892B09F4FDC02091520330915303C1
:100E500081E02230310509F080E020915203309189
:100E60005303C1E02130310549F020915203309104
:100E70005303C1E02230310509F0C0E0882309F4B2
:100E800056C020915C0330915D0340915E03509108
:100E90005F03C701B6010E94A62587FD14C02091FB
:100EA0005C0330915D0340915E0350915F0360915C
:100EB0004703709148038091490390914A030E942F
:100EC000712487FD22C020915C0330915D03409125
:100ED0005E0350915F03C701B6010E94A625181654
:100EE00034F520915C0330915D0340915E03509195
:100EF0005F0360914703709148038091490390918B
:100F00004A030E947124811112C080915403909170
:100F10005503A0915603B0915703892B8A2B8B2B35
:100F200019F481E08093430381E080934203CC2352
:100F300009F456C020915C0330915D0340915E033B
:100F400050915F03C701B6010E94712487FF14C04E
:100F500020915C0330915D0340915E0350915F03EB
:100F600060914703709148038091490390914A032F
:100F70000E94A62587FF22C020915C0330915D036B
:100F800040915E0350915F03C701B6010E94712436
:100F9000811126C020915C0330915D0340915E0376
:100FA00050915F036091470370914803809149031A
:100FB00090914A030E94A625181694F48091540338
:100FC00090915503A0915603B0915703892B8A2B1A
:100FD0008B2B19F481E08093430381E080934203DB
:100FE00081E090914203911180E080934603C0928A
:100FF0004703D0924803E0924903F0924A03012B41
:1010000009F067C180914B0390914C03892BD9F46F
:10101000109251031092420380911402882379F0B8
:1010200082E090E090934C0380934B031092140263
:1010300020914F033091500381E0232BE9F080E0B1
:101040001BC081E00ACF10921402809151038823C3
:1010500049F01092430310924C0310924B031092EC
:101060005103EDCF80914F0390915003892BE1F014
:10107000809142031092420320914B0330914C0324
:101080002230310509F45EC088F42115310509F4D8
:1010900048C02130310509F4F3C010924303109287
:1010A00042031092510338C081E0E6CF233031056E
:1010B00009F4B1C02430310581F740913E035091CD
:1010C0003F03609140037091410341155105610553
:1010D000710561F0415051096109710940933E0366
:1010E00050933F03609340037093410340913E034C
:1010F00050913F036091400370914103452B462B73
:10110000472BD9F420914D0330914E032130310506
:1011100009F046C01092430310924C0310924B0307
:101120000CC080911402882341F082E090E09093FB
:101130004C0380934B031092140210923C03809155
:101140004303CEC08823C9F3809154039091550383
:10115000A0915603B0915703181619061A061B06DC
:101160000CF07DC080914F0390915003019709F0DE
:1011700076C08091540390915503A0915603B0918D
:10118000570380933E0390933F03A0934003B09393
:10119000410383E090E090934C0380934B03CDCFC9
:1011A000409158035091590360915A0370915B0329
:1011B000452B462B472BA9F01092430380915803EF
:1011C00090915903A0915A03B0915B0380933E0321
:1011D00090933F03A0934003B093410381E090E0DC
:1011E000DACF882399F08091150290911602A09190
:1011F0001702B091180280933E0390933F03A0938F
:101200004003B093410384E090E0C5CF10924303C4
:1012100082E090E0C0CF80913E0390913F03A09187
:101220004003B09141030097A105B10559F0019722
:10123000A109B10980933E0390933F03A09340031B
:10124000B093410380913E0390913F03A0914003EE
:10125000B0914103892B8A2B8B2B09F06ECF8091A3
:10126000150290911602A0911702B0911802892BD5
:101270008A2B8B2B09F44ECF81E080934303B3CFAD
:1012800040913E0350913F036091400370914103B0
:10129000411551056105710561F041505109610920
:1012A000710940933E0350933F0360934003709352
:1012B000410340913E0350913F0360914003709180
:1012C0004103452B462B472B09F037CF8111C7CF60
:1012D0009FCF80913C03882309F431CF80913D0357
:1012E000CF911F910F91FF90EF90DF90CF900895D5
:1012F00010924703109248031092490310924A0338
:101300001092460310924C0310924B031092450327
:1013100010924403109266031092650310924303E7
:101320001092420310923E0310923F03109240032A
:101330001092410310923D0310923C0310926103FE
:101340001092620310926303109264031092600380
:1013500010925C0310925D0310925E0310925F0383
:1013600088EE93E0A0E0B0E080931502909316021F
:10137000A0931702B09318021092580310925903C9
:1013800010925A0310925B0310925403109255036B
:101390001092560310925703109253031092520367
:1013A00081E0809314021092510310925003109226
:1013B0004F0310924E0310924D0390E080E0089589
:1013C00080914F0390915003892B19F5809114025D
:1013D000882351F080915103811106C081E08093F0
:1013E0003D0380933C0308952091510330911402F2
:1013F00081E090E0332311F090E080E030E0822340
:101400009323892B21F010923D0381E0EACF1092C3
:101410003C03089582E090E0FA01918380838FEF8E
:101420009FEF0895CF93DF93EA01009711F00E9498
:10143000A31C1982188290E080E0DF91CF9108957B
:10144000DB01009719F48FEF8C9308952EEF2C9306
:10145000FC013F96EF30F10508F034C08827EC5CC2
:10146000F54F8F4F0C94B02B600A5E0A5C0A5A0A43
:10147000580A540A560A520A500A4E0A4B0A470A98
:10148000430A490A620A80E311968C93089589E21F
:10149000FBCF82E2F9CF11961C92089583E2F4CF3C
:1014A00081E2F2CF81E1F0CF87E2EECF8AE2ECCFAA
:1014B00080E1EACF84E2E8CF88E2E6CF86E2E4CFBB
:1014C00081E3E2CF80E2E0CF8091730390917403D7
:1014D0000895909374038093730308958091720329
:1014E000089590917203892B809372030895982F29
:1014F000909580917203892380937203089580915F
:101500007103089580916F039091700308956115A0
:10151000710559F0FB0130E020E070E060E0241735
:10152000350719F06115710511F0CB010895A081FF
:10153000B181A817B90709F4BF012F5F3F4F369655
:10154000EECF8091750381111CC060D266D290935A
:101550006803809367030E94A1140E94B3149093C0
:101560006C0380936B030E9430190E94371990938B
:101570006A038093690381E08093750390E080E0C3
:10158000089584EF9FEF08958F929F92AF92BF923C
:10159000CF92DF92EF92FF920F931F93CF93DF933F
:1015A00000D000D000D01F92CDB7DEB71A861986C2
:1015B00018861F821E821D821C821B821A8219823B
:1015C0008091750307EF1FEF882309F49CC08E01FB
:1015D0000D5F1F4F9E012B5F3F4FAE01495F5F4F75
:1015E000BE01675F7F4F90E080E00E94B41A8C01DB
:1015F000009721F00596029708F0DBC029853A850F
:101600002115310509F402C1ED80FE804B815C811A
:10161000B701640F751F8F8198858617970708F4A7
:10162000F5C0E20EF31ED7019C91903C09F07FC0FB
:101630004230510508F47BC011968C9140917303A0
:1016400050917403452B09F49CC0913F08F071C080
:101650002CE1290F2D3008F48BC02DE2290F203109
:1016600008F489C0903C21F48150823008F483C092
:1016700088E3890F8B3008F481C090E2C92E9AE08C
:10168000D92EEAE0FAE06D817E81AE014F5F5F4FB7
:1016900089859A8519955C01C114D104A1F18980CD
:1016A0009A808114910479F18B819C818815990528
:1016B00008F487C010E000E04B815C8170E060E0DE
:1016C000C7010E94DA2B01151105E9F449815A81FD
:1016D00069857A858D819E81680F791FC501F60124
:1016E0001995E980FA800D811E812F813885498501
:1016F0005A856FEF7FEF81E090E00E944F1A8C01D6
:10170000892B09F056C0C8012A960FB6F894DEBF9F
:101710000FBECDBFDF91CF911F910F91FF90EF9042
:10172000DF90CF90BF90AF909F908F90089580E012
:1017300085CF30E020E0220F331FF901E959FC4F3B
:101740000190F081E02D309709F497CF892F90E038
:101750001995009709F491CFDC011296ED91FC9157
:1017600013971496CD90DC90309709F08CCF1FC062
:1017700021E030E0E0CF22E030E0DDCF23E030E0D8
:10178000DACFD12CC12CE2E1FAE09F3F09F07BCF08
:10179000E0916703F0916803309721F4C90104EFE9
:1017A0001FEF0CC08FEF90E019950097A9F604EF9A
:1017B0001FEF89859A85009709F4A5CF0E94A31C85
:1017C000A2CF0E947E1B8C0189859A850E94A31C52
:1017D00070E060E0C4010E94171B98878F830E940D
:1017E0004C1A9E838D836F8178856115710559F040
:1017F000C8010E942F1E9A87898706EF1FEF892B49
:1018000009F058CF59CF08EF1FEF56CF08EF1FEF61
:10181000D0CF20917503222319F020E00C94B81446
:1018200087EF9FEF0895809173039091740308955B
:101830000E943C190E949618F5D0E7E6F3E088E094
:10184000DF011D928A95E9F71092750390E080E020
:1018500008950C94F41621E040E050E0BA010C9495
:10186000B81486E090E0FA019183808390E080E0F4
:10187000089547E050E06CE372E049CEDF92EF92CA
:10188000FF920F931F93CF93DF938A01EC01C60F52
:10189000D71FE0907903F0907A03D9800E94661BED
:1018A000D816190678F082E090E0F80191838083E1
:1018B0008EEF9FEFDF91CF911F910F91FF90EF90EF
:1018C000DF900895EF2841F482E090E0F8019183E1
:1018D000808384EF9FEFEECF89818093780390E03F
:1018E0000196F8019183808390E080E0E3CFCF936D
:1018F000DF93EA010E94A517882321F00E94731B41
:101900000E94A61782E090E0998388838BEF9FEF77
:10191000DF91CF910895CF93DF93EB0186E0FB0138
:1019200011928A95E9F78FEF8883D8DD8983E7DD07
:101930008A83E8DD9D838C83DF91CF910895CF93D7
:10194000DF93EA010E94A817811109C082E090E0AC
:101950009983888385EF9FEFDF91CF91089590E081
:1019600080E0B7DD81E090E09983888390E080E0BB
:10197000F3CF0F931F93CF93DF93EA018C01060FF0
:10198000171F0E94A81781110BC082E090E0998375
:10199000888385EF9FEFDF91CF911F910F9108957D
:1019A000F8018181823038F082E090E09983888369
:1019B0008EEF9FEFF0CF81E090E08BDD88E090E04C
:1019C0009983888390E080E0E6CFCF93DF93009700
:1019D000D1F4EB01FB01329686E0DF011D928A957E
:1019E000E9F78FEF888385E089831A820E94661B5E
:1019F0008B830E94651B9D838C8381E08E838F8304
:101A0000DF91CF910895DF91CF911ACD89E39CE0CA
:101A10009093770380937603089580917603909155
:101A200077030895109277031092760308958091BA
:101A3000790390917A030895411105C061157105EC
:101A40008105910561F06093790370937A03809327
:101A50007B0390937C0340937D0381E0089580E0B5
:101A60000895FF920F931F93CF93DF938A01EC01A8
:101A7000C60FD71FF9800E94661BF816190668F07A
:101A800082E090E0F801918380838EEF9FEFDF91F9
:101A9000CF911F910F91FF9008956C817D818E8170
:101AA0009F814B81C9DF811108C082E090E0F8017D
:101AB0009183808384EF9FEFEACF898180937803BD
:101AC00090E00196F8019183808390E080E0DFCF81
:101AD000CF93DF93EA01FC01E60FF71F6481758164
:101AE000868197814381A8DF811109C082E090E05F
:101AF0009983888384EF9FEFDF91CF91089581E0F0
:101B000090E09983888390E080E0F6CFE9E7F3E006
:101B10004081518162817381480F511D611D711D8A
:101B200040835183628373830895CF93C091780378
:101B30004C2F50E06091790370917A0301960E94D6
:101B4000D12B8C2FE3DF10927803CF91089500976B
:101B500099F48091790390917A032FEFFB01208310
:101B6000892B59F02091780330E02F5F3F4F2417E5
:101B7000350719F4CB01D9CF63CC0895009799F4B8
:101B80008091790390917A032FEFFB012083892BB9
:101B900059F02091780330E02F5F3F4F241735072D
:101BA00019F4CB01C2CF4CCC089523E1AC01249FA2
:101BB000C001259F900D1124E0918203F0918303D1
:101BC000E80FF91F238134812250310981E022304E
:101BD000310508F080E008950F931F93CF93DF93B2
:101BE0000091840310918503D0E0C0E080E00C17E1
:101BF0001D0749F491E0811190E0892FDF91CF9189
:101C00001F910F9108958111F5CFCE01CEDF21965E
:101C1000EECFA0918203B0918303109729F1209118
:101C200084033091850382179307F0F453E1589FA2
:101C30009001599F300D1124A20FB31FED91FC911B
:101C40001197309789F012968C91681768F48DE09F
:101C5000689FE00DF11D112480819181892B21F075
:101C600081E09281491708F080E008959C0143E1EA
:101C7000429FC001439F900D1124E0918203F09197
:101C80008303E80FF91F8385823091F481E090E0AF
:101C9000658176814091190250911A026417750787
:101CA00011F490E080E0892B19F081E0232B09F0FA
:101CB00080E00895FC01A081B1818DE0689FA00DB6
:101CC000B11D112413964D915C9185859685489F91
:101CD0009001499F300D589F300D1124C901019684
:101CE000611103C0478144FD04960895EF92FF926D
:101CF0000F931F93CF93DF93EA01FC01E60FF71FC9
:101D000002811381E480F5804F2D6E2DC80181DFA3
:101D100081110DC082E090E0998388838EEF9FEF60
:101D2000DF91CF911F910F91FF90EF900895C8011F
:101D30003CDF882339F082E090E09983888388EF44
:101D40009FEFEECF1093200200931F02E09221023A
:101D5000F092220281E090E09983888390E080E015
:101D6000DFCFCF92DF92EF92FF920F931F93CF932B
:101D7000DF937A01EC01C60FD71FC0901F02D090ED
:101D800020020091210210912202412F602FC601F2
:101D900040DF811110C082E090E0F70191838083E1
:101DA0008AEF9FEFDF91CF911F910F91FF90EF90FE
:101DB000DF90CF900895C601F8DE882341F082E0DD
:101DC00090E0F7019183808388EF9FEFEBCF4C8108
:101DD0005D816E817F819A8189818F3F41F082E0B0
:101DE00090E0F701918380838EEF9FEFDBCFE3E1FB
:101DF000EC9D9001ED9D300D1124E0918203F09156
:101E00008303E20FF31F0190F081E02D2DE0029F8C
:101E1000E00DF11D11240190F081E02D27E0129FCB
:101E2000E00DF11D1124808391838B818283438394
:101E30005483658376831F5F1093220281E090E0D4
:101E4000F7019183808390E080E0ACCFEF92FF9226
:101E50000F931F93CF93DF937A018C01060F171F07
:101E6000C0918203D0918303209781F021E030E07C
:101E7000F8018281938140918403509185038417F6
:101E8000950710F030E020E0232B71F482E090E021
:101E9000F701918380838EEF9FEFDF91CF911F91A8
:101EA0000F91FF90EF90089543E1489F9001499F63
:101EB000300D1124C20FD31F78DE882341F082E059
:101EC00090E0F7019183808388EF9FEFE6CFF801E0
:101ED0002481358120383105C8F687818111D6CF1C
:101EE0004181842F90E08F7E009741F082E090E066
:101EF000F7019183808386EF9FEFCFCF4F833E839F
:101F00002D83268128871986223010F421E0288726
:101F100021E030E0F70131832083BFCF88E090E0FB
:101F2000FA019183808390E080E00895FB018FEFB8
:101F3000808381E181838FEF9FEF9383828380E8A9
:101F400090E095838483168217820895FB018FEFBA
:101F5000808391E0918382839383848384E3858368
:101F600081E090E0978386830895DF92EF92FF925D
:101F70000F931F93CF93DF93EA01FC01E60FF71F46
:101F80008181813071F082E090E0998388838FEFC6
:101F90009FEFDF91CF911F910F91FF90EF90DF9016
:101FA000089582819381D4802581E680F780009115
:101FB0008203109183030115110539F482E090E04A
:101FC000998388838CEF9FEFE4CF409184035091F5
:101FD00085038417950738F082E090E09983888321
:101FE0008EEF9FEFD6CF892B39F082E090E0998376
:101FF000888386EF9FEFCDCF8D2D8D7FB1F7213078
:10200000A1F781E0D11006C091E0E916F10431F0AA
:1020100080E004C0E2E0EE16F104D0F3882329F357
:1020200090E080E0C2DD882339F082E090E099837F
:10203000888388EF9FEFADCFF801D38681E0848756
:10204000F686E586108A178681E090E0998388837A
:1020500090E080E09ECF4CE050E066E672E057CA28
:102060008F929F92BF92CF92DF92EF92FF920F9347
:102070001F93CF93DF93EA01FC01E60FF71F8281E4
:1020800093810481B580E0918203F09183033097BE
:1020900091F482E090E0998388838CEF9FEFDF9149
:1020A000CF911F910F91FF90EF90DF90CF90BF9055
:1020B0009F908F900895209184033091850382171B
:1020C000930738F082E090E0998388838EEF9FEF4A
:1020D000E6CF23E1289F6001299FD00C1124EC0D4D
:1020E000FD1DE080F180E114F10499F2828108176E
:1020F00048F78DE0089F80011124E00EF11EF701E2
:1021000080819181892B29F6BB20E1F2F7E0BF9E07
:1021100040011124C4010E946A1CF701918380834D
:10212000E0918203F0918303EC0DFD1D0190F0819D
:10213000E02DE00FF11F80819181009739F482E05A
:1021400090E0998388838DEF9FEFA9CFA40170E081
:1021500060E00E94DA2B8091820390918303C80E85
:10216000D91EF60180819181080F191FF801B282F2
:1021700081E090E09983888390E080E090CFAF92F7
:10218000BF92CF92DF92FF920F931F93CF93DF9373
:10219000EA01FC01E60FF71F82819381F480009130
:1021A0008203109183030115110581F482E090E010
:1021B000998388838CEF9FEFDF91CF911F910F91CF
:1021C000FF90DF90CF90BF90AF900895209184034F
:1021D000309185038217930738F082E090E099836D
:1021E00088838EEF9FEFE8CF2FEF2F0D2C3FA8F7BE
:1021F00023E1289F6001299FD00C11240C0D1D1D87
:10220000F80180819181892B89F6FDE0FF9E5001C4
:102210001124C5010E946A1CF80191838083E0911A
:102220008203F0918303EC0DFD1D80819181009765
:1022300039F482E090E0998388838DEF9FEFBCCFE3
:10224000A50170E060E00E94DA2BE0918203F0913A
:102250008303EC0DFD1DF28281E090E09983888379
:1022600090E080E0A9CFCF92DF92EF92FF920F93A0
:102270001F93CF93DF93860F971FFC010281138179
:102280008091820390918303892B81F082E090E01A
:10229000FA01918380838CEF9FEFDF91CF911F91A3
:1022A0000F91FF90EF90DF90CF900895C801B0E0BC
:1022B000A0E00197A109B1098F3F9F4FA105B1058A
:1022C00040F082E090E0FA01918380838EEF9FEFEF
:1022D000E4CF7A0183E1809F6001819FD00C1124BB
:1022E000C6010E946A1CEC01009741F482E090E074
:1022F000F701918380838DEF9FEFCFCFA60170E030
:1023000060E00E94DA2BD0938303C0938203109382
:1023100085030093840390E080E02FEF3FEF41E0DE
:1023200061E070E08017910741F481E090E0F701EF
:102330009183808390E080E0B0CF3A8B298B1B861D
:102340004C877E876D87188A1F8601966396EACF31
:10235000EF92FF921F93CF93DF93EC0110E0F12CEB
:10236000E12C6A811617B0F083E0689FB001112458
:10237000AE014F5E5F4FC7010E94CF1C009721F056
:102380002FEF3FEF3A8B298BDF91CF911F91FF9079
:10239000EF900895612FCE018DDC61E070E00E9426
:1023A000171BE816F90608F47C011F5FDACFF894D2
:1023B000209180033091810381E02115310509F0DE
:1023C00080E0232B09F0789408952F923F924F924A
:1023D0005F926F927F928F929F92AF92BF92CF92B5
:1023E000DF92EF92FF920F931F93CF93DF933C0105
:1023F000660E771EF301828193814C01B12CA12CD2
:10240000C0918203D0918303209769F021E030E0EE
:1024100060918403709185038617970710F030E070
:1024200020E0232BD1F482E090E0FA0191838083B5
:102430008EEF9FEFDF91CF911F910F91FF90EF9063
:10244000DF90CF90BF90AF909F908F907F906F90D4
:102450005F904F903F902F9008958092230290922A
:102460002402A0922502B092260263E1689F9001A7
:10247000699F300D1124C20FD31FF3018181833076
:1024800040F082E090E0FA019183808386EF9FEF35
:10249000D1CF2A012B813C81232BF1F42881398172
:1024A0009F8191FF2EC0232B09F46FC020918703D9
:1024B0009A81422F490F5527551FBA0141E050E03C
:1024C0006138710514F050E040E0452B09F45DC01F
:1024D0002A87920F909387038150823008F481C03D
:1024E00066DF882309F4D8C0F3018181813009F4C3
:1024F0008DC008F47BC0823009F4C6C090E080E053
:10250000ADC0232B09F441C0209186039A81E22FAC
:10251000E90FFF27FF1F41E050E0ED3FF10514F008
:1025200050E040E0452B89F12A87920F9093860373
:10253000D3CFA081B181A20FB31F11966C91060F6A
:10254000111D0196295F3F4F8417950794F38D85E0
:102550009E85089F1001099F300C189F300C112494
:10256000C114D104D1F48F8184FF17C00E94651B70
:10257000F5E02F0E311C21E08215930508F420E0D0
:10258000A701435F5F4F21110EC082E090E0F2018E
:102590009183808387EF9FEF4DCF0E94651B2FEFC4
:1025A000221A320AE8CF88819981E80EF91EF701D4
:1025B00014830383FFEFCF1ADF0A7A018A818C1517
:1025C0001D0409F00CF48CCFE881F981EE0DFF1D9C
:1025D000428150E030E020E010E000E090E080E058
:1025E000B3CFF12CE12CD12CC12CE8CF81E090E0CD
:1025F0009C838B83F1DA882309F480CF81E090E01B
:102600000E94690A80E40E94770A78CF89899A89B2
:10261000019661F083E090E09C838B8382E090E000
:102620000E94690A80E40E94710A68CF8D819E81B0
:102630002091190230911A0282179307D1F4609108
:102640001D0270911E02AE014F5E5F4F80911B0212
:1026500090911C020E94EE1D0097E1F2789422E016
:1026600030E0F20131832083892B99F08DEF9FEFC9
:10267000E1CE89288A288B2869F6892B59F6CE0164
:1026800067DE188A1F86E8CF82E090E09C838B8308
:1026900035CF90E080E0CECE82E090E0F2019183F1
:1026A000808385EF9FEFC6CE8F929F92AF92BF92AD
:1026B000CF92DF92EF92FF920F931F93CF93DF930E
:1026C000EA018C01060F171FF8018181833098F011
:1026D00082E090E09983888386EF9FEFDF91CF912E
:1026E0001F910F91FF90EF90DF90CF90BF90AF9030
:1026F0009F908F9008958091820390918303892BFE
:1027000061F081E090E02091840330918503232BD8
:1027100011F490E080E0892B39F482E090E0998315
:1027200088838EEF9FEFDACF42DE882309F4DFC083
:10273000F8018181813009F495C0E8F0823099F484
:102740002091840330918503E0918203F09183030B
:1027500090E080E041E050E02817390709F0BDC063
:102760003BDA811117C0789481E090E099838883E7
:1027700090E080E0B3CF2091840330918503E09115
:102780008203F091830390E080E041E050E028175D
:10279000390741F481E090E00E94690A80E40E94D8
:1027A000770AE1CF63817481672B11F054834383EF
:1027B00001967396ECCFE0918203F0918303E00FD2
:1027C000F11F2381348122303105D9F421893289E6
:1027D0002F3F3F4FB1F4258136814091190250912E
:1027E0001A022417350761F5AF014F5E5F4F609104
:1027F0001D0270911E0280911B0290911C020E948A
:10280000EE1DEFEFCE1ADE0AEE0AFE0A0D5E1F4F36
:10281000409184035091850370E060E0C416D506B2
:10282000E606F7063CF5009731F27894892B09F417
:102830009BCF82E090E0998388838DEF9FEF4ECF0E
:10284000C114D104E104F104E1F6232BD1F6CF0148
:102850007FDDE0918203F0918303E00FF11F108A86
:102860001786CFCF10E000E090E080E0C12CD12CA3
:102870007601CECF0097C9F610E000E0812C912CB4
:10288000540183E0E82EF12C1AC0E0918203F0910C
:102890008303E00FF11F83819481029749F4F4824E
:1028A000E38282E090E00E94690A80E40E94710A5B
:1028B000FFEF8F1A9F0AAF0ABF0A0D5E1F4F80916C
:1028C000840390918503B0E0A0E088169906AA06DB
:1028D000BB06DCF290E080E0A8CF638174816230B7
:1028E000710511F4548343830196739635CF82E0CA
:1028F00090E09983888385EF9FEFF0CE0097B9F43D
:102900008FEFFB018083209123023091240243E169
:10291000429FC001439F900D1124E0918203F091EA
:102920008303E80FF91F8285FB01818308950C94CE
:10293000200A88E090E0FA019183808390E080E0B3
:1029400008951092810310928003E2E8F3E086E09C
:10295000DF011D928A95E9F78BE290E190937F0366
:1029600080937E03089580917E0390917F03089564
:102970002F923F924F925F926F927F928F929F928F
:10298000AF92BF92CF92DF92EF92FF920F931F937D
:10299000CF93DF93CDB7DEB72F970FB6F894DEBF96
:1029A0000FBECDBFF894E0918003F0918103319682
:1029B000F0938103E09380037894409082035090D9
:1029C00083034114510409F40CC2E0918403F09193
:1029D0008503EF2B09F405C22D8749875A876B873A
:1029E0007C8798878F831201B12CA12C10E000E026
:1029F0008091840390918503A816B90618F40115F7
:102A0000110529F1F8948091800390918103019739
:102A100090938103809380037894C8012F960FB61A
:102A2000F894DEBF0FBECDBFDF91CF911F910F9104
:102A3000FF90EF90DF90CF90BF90AF909F908F90DE
:102A40007F906F905F904F903F902F90089571010D
:102A5000E418F508D10117968C91179781FD54C0A1
:102A600013968D919C911497039709F04DC015967C
:102A70008D919C91EF81F8858E179F0709F044C0D6
:102A8000B50190E080E07FD48A8320918203309169
:102A900083033D832C833D85332309F44CC04C8153
:102AA0005D81452B09F49AC180918403909185033F
:102AB000A816B90608F092C1C501D8D88823E9F054
:102AC0006C817D816E0D7F1D7D836C83DB011F9684
:102AD0008D919C91892B89F0D12CC12CF12CE12C6A
:102AE000AC81BD8112968C9112978E151F0409F04E
:102AF00094F450961C921E921F972A81222321F053
:102B0000B50190E080E041D43FEFA31AB30A43E15E
:102B1000240E311C6DCFAC81BD81ED91FC91EC0D8B
:102B2000FD1D858196810FD7BFEFEB1AFB0AEDE003
:102B3000CE0ED11CD5CFEC81FD81309709F44EC16A
:102B40008091840390918503A816B90608F046C1C8
:102B5000EE0DFF1DFF87EE87C50188D88B83882384
:102B600039F1AE85BF851F968D919C915097019646
:102B700021E01D964D915C918417950709F020E0A6
:102B80002E831982712C10E000E0AE85BF8512966D
:102B90008C91781608F45DC0EE85FF858785908955
:102BA0000196658576850E947A2B908B8787A5CFC5
:102BB000B1E0BE83E6CF992493946BC08BD6F60127
:102BC0009683858382C0D601ED90FC90B7E06B9E22
:102BD000E00CF11C1124F7016381748180818F3F27
:102BE00061F121E030E002C0220F331F8A95E2F745
:102BF000C901092E000CAA0BBB0BFB0140815181BE
:102C00006281738184239523A623B72321E0892B36
:102C10008A2B8B2B09F420E0D4012C93D701119639
:102C20008C91F60123853485820F932F911D880E98
:102C3000991E1486138663949BC0418150E0C401A1
:102C40000E94D12BEBCF998206EF1FEFC5C01982EE
:102C5000C3C0F981F111A0CFEDE07E9E7001112477
:102C6000AE85BF85CD90DC90CE0CDF1C15D49D8346
:102C70008C83BB81BB2309F49ECF81E0EE85FF8569
:102C800027853089232B09F080E0982E882309F4CA
:102C900058C0672D8E859F850DD8D60118969C93B8
:102CA0008E93179761E070E0C2D4EE85FF8521898D
:102CB00032892F3F320709F481CFBC01C901CFD738
:102CC000D60116969C938E931597D60115968D91E5
:102CD0009C911697009709F4B6CFEC81FD818E0F79
:102CE0009F1F1A969C938E931997AE85BF85ED9181
:102CF000FC911197EE0EFF1EF70121853285148697
:102D000013861A968C91870DD9018D93711016C078
:102D1000EE85FF85878184FF11C049855A856B85C3
:102D20007C85F9014183528363837483F701838532
:102D300094850496A80FB91F14861386F701B287ED
:102D4000A187D60115968D919C911697892B09F430
:102D500043C0EE85FF8525813681809119029091CF
:102D60001A022817390779F019968D909C90612CDA
:102D7000D60112968C911297681608F424CF1A96F1
:102D80009C928E921997BE81BB2309F460CF61E0BB
:102D900070E0F601878190854AD4D6011796ED90B0
:102DA000FC90189715964D915C91E1E0F0E0BA81A6
:102DB000BB2311F0F0E0E0E00C811D819C01B50126
:102DC000882799278E1B9F0B6AD38C01892B21F0B2
:102DD000F60185819681B7D57394D7CE0FEF1FEF9B
:102DE0008CCE10E000E00ECE2F923F924F925F9279
:102DF0006F927F928F929F92AF92BF92CF92DF920B
:102E0000EF92FF920F931F93CF93DF9380918203F2
:102E10009091830310E000E0892BA9F0C8DA0AEF53
:102E20001FEF882381F02090840330908503C091A8
:102E30008203D0918303D12CC12C10E000E02C142C
:102E40003D04A9F47894C801DF91CF911F910F91AF
:102E5000FF90EF90DF90CF90BF90AF909F908F90BA
:102E60007F906F905F904F903F902F900895C60194
:102E70000E94360E882309F18B819C810397E9F427
:102E80008F859889892BC9F0B60190E080E07BD2CC
:102E900021E030E0882311F030E020E04424552484
:102EA000421A530AB12CA12C912C812C8A818815AD
:102EB000190409F038F4188A1F864FEFC41AD40A8F
:102EC0006396BDCFE881F981EA0DFB1D858196816E
:102ED000892BA1F161E070E087819085A8D33C0146
:102EE000DBD28C01E881F981EA0DFB1D8185928599
:102EF00025813681200F311FAC01421B530B9A01F3
:102F000047815085421B530B70E060E00E94DA2B32
:102F1000E881F981EA0DFB1DE780F0844581568147
:102F20009301B601C201BBD28C01892B39F0E88133
:102F3000F981EA0DFB1D8581968105D55FEF851A24
:102F4000950A8DE0A80EB11CB1CF31CA78940895CE
:102F50002F923F924F925F926F927F929F92AF9289
:102F6000BF92CF92DF92EF92FF920F931F93CF9376
:102F7000DF9300D000D0CDB7DEB70091820310916F
:102F80008303992493940115110509F43EC0A09080
:102F90008403B09085030BDA982E8823B1F1109248
:102FA000830310928203109285031092840310927F
:102FB0008603109287038FEF9FEFDC01809323023B
:102FC00090932402A0932502B093260278947FD395
:102FD0001E830D83C12CD12C7601C501B0E0A0E089
:102FE00089839A83AB83BC8322242A94322C8981DF
:102FF0009A81AB81BC81C816D906EA06FB06F4F0BB
:10300000C801A1D480E40E94770A892D26960FB6C4
:10301000F894DEBF0FBECDBFDF91CF911F910F910E
:10302000FF90EF90DF90CF90BF90AF909F907F90F8
:103030006F905F904F903F902F900895AD81BE812B
:1030400015968D919C9116972091190230911A0234
:1030500082179307D1F451968D919C91EED5ED8115
:10306000FE8180819181B12CA12C412C512C320107
:10307000892B89F5BFEFCB1ADB0AEB0AFB0AED813E
:10308000FE817396FE83ED83B2CFC114D104E104B7
:10309000F10429F7892B19F7ED81FE818189928945
:1030A0008F3F980709F029D5AD81BE8152963C9299
:1030B0002E925197D4CF8A0D9B1DDC018D919C914E
:1030C000009709F040D4BFEF4B1A5B0A6B0A7B0AEA
:1030D000EDE0AE0EB11CAD81BE818D919C9111973A
:1030E00012964C9150E070E060E04416550666067A
:1030F00077060CF328D4BECFCF93DF93EA0128DF05
:10310000811109C082E090E09983888385EF9FEF69
:10311000DF91CF91089581E090E00E94690A81E0FB
:1031200090E09983888390E080E0F2CF11DF1092E5
:103130007F0310927E03089542E050E06EEA72E051
:103140000C94870AFF920F931F93CF93DF938A010A
:10315000EC01C60FD71FF980B9D20897F8161906E7
:1031600071F068F082E090E0F801918380838EEF47
:103170009FEFDF91CF911F910F91FF9008956C8188
:103180007D818E819F814B810E941C0D811108C021
:1031900082E090E0F8019183808384EF9FEFE9CF94
:1031A000F9800E94170D4F2D50E0BE01685F7F4FE0
:1031B0000E94D12B89810E94860D81E090E0F80168
:1031C0009183808390E080E0D4CFDF92EF92FF92F2
:1031D0000F931F93CF93DF938A01EC01C60FD71F84
:1031E0000E94170D7C01D98071D2DD2059F0029721
:1031F00021E030E0D816190619F010F030E020E098
:10320000232B79F482E090E0F801918380838EEFA4
:103210009FEFDF91CF911F910F91FF90EF90DF9083
:103220000895EF2841F482E090E0F80191838083D3
:1032300084EF9FEFEECFF9800E94170D4F2D50E0E5
:10324000BE016E5F7F4F0E94D12B89810E94860D47
:1032500081E090E0F8019183808390E080E0D9CF15
:103260008CE998E190938903809388030895809175
:1032700088039091890308950895FC0111821082BA
:10328000938382830895DB011D921C92DC011296C8
:10329000ED91FC9113977183608313967C936E93E9
:1032A00012970895FC0180819181DB018D939C939D
:1032B000A081B181109741F08D919C919183808381
:1032C000892B11F4F383E2830895FC0180819181BD
:1032D000DB018D939C93892B11F47383628371833B
:1032E00060830895FC011182108293838283089584
:1032F000CF93DF931F921F92CDB7DEB71A82198248
:10330000F894BE016F5F7F4F8FE893E0CBDF898138
:103310009A81009709F017D389819A81892B89F7BF
:10332000BE016F5F7F4F83E993E0BCDF89819A81A3
:10333000009709F008D389819A81892B89F77894BD
:103340000F900F90DF91CF910895CF93DF931F924D
:103350001F92CDB7DEB71A821982F894BE016F5F53
:103360007F4F8BE893E09EDF89819A81009709F077
:10337000EAD289819A81892B89F778940F900F90EE
:10338000DF91CF91089581E0089590E080E0089565
:10339000EF92FF920F931F93CF93DF931F921F9291
:1033A000CDB7DEB71A82198280918A0307EF1FEF2B
:1033B0008823A1F1F894BE016F5F7F4F83E993E00A
:1033C00071DF789489819A81EE24E394F12C892B22
:1033D00051F4F894BE016F5F7F4F8FE893E062DF96
:1033E0007894F12CE12C89819A810EEF1FEF0097E0
:1033F000A9F0FC014281538164E070E074D68C0135
:10340000892B61F0F89469817A81C701880F991F2F
:10341000880F991F81579C4F58DF7894C8010F90EF
:103420000F90DF91CF911F910F91FF90EF90089532
:103430000F931F93CF93DF9300D01F92CDB7DEB7CA
:103440001C821B821A82198280918A0307EF1FEF68
:103450008823C1F0AE014D5F5F4F64E070E0CE01A4
:103460000196B4D68C01892B69F4E981FA818B81AC
:103470009C8193838283F89469817A818BE893E0BD
:1034800002DF7894C8010F900F900F900F90DF919A
:10349000CF911F910F910895B9D7049608958F92F7
:1034A0009F92AF92BF92CF92DF92EF92FF920F93D3
:1034B0001F93CF93DF931F921F92CDB7DEB71A826F
:1034C0001982BC016F5F7F4F6330710598F0AA24A9
:1034D000AA94BA2CC5010F900F90DF91CF911F9144
:1034E0000F91FF90EF90DF90CF90BF90AF909F90A3
:1034F0008F9008954115510551F3480159018A01F2
:103500006C01CADF8815990511F7E114F104F9F28D
:103510008E0D9F1DA816B906D0F280918A038823CC
:10352000F1F0F894B501645071099701AE014F5F55
:103530005F4FC8010496DFD65C01892B71F4898145
:103540009A81F80193838283C601880F991F880F9F
:10355000991FB80181579C4F96DE7894BBCF87EFB7
:10356000A82EBB24BA94B6CFAF92BF92CF92DF926F
:10357000EF92FF920F931F93CF93DF931F921F92AF
:10358000CDB7DEB71A821982892B09F047C06115C1
:10359000710509F443C04115510509F43FC02115D7
:1035A000310509F43BC001151105C1F180918A0371
:1035B0008823B9F179016A015B01F894BE016F5F5C
:1035C0007F4F8BE893E06EDE789489819A81009733
:1035D00059F1DC0112966D917C91A8010496A4D654
:1035E0008C01E981FA81D501ED93FC93828193816D
:1035F0000496F601918380834FDFD7018D939C93CE
:10360000C8010F900F90DF91CF911F910F91FF9004
:10361000EF90DF90CF90BF90AF9008950FEF1FEF26
:10362000EFCF07EF1FEFECCF0EEF1FEFE9CFCF93F8
:10363000DF93EC01672B71F4F2D68C179D0760F0D5
:10364000E5D62496C80FD91FE4D68C0F9D1FDF91B5
:10365000CF910895E1D6F1CF90E080E0F8CF0F93BD
:103660001F93CF93DF9320918A0321112BC08B01ED
:10367000EC018FE893E001DE83E993E0FEDD8BE867
:1036800093E0FBDD97D00097C1F4C9D670E060E00D
:10369000CEDF47E252E062E070E081D1009769F44A
:1036A0008091270290912802CCD6B801CE0101D595
:1036B000009719F421E020938A03DF91CF911F91A5
:1036C0000F91089584EF9FEFF8CFA6C6A8C6CF93B9
:1036D000DF93A8D6EC01892B11F40ADE36DECE0189
:1036E000DF91CF910895CF93DF939CD6EC01892B86
:1036F00009F4FEDDCE01DF91CF910895809127027C
:10370000909128020895CF93DF9380918A03D0E0AF
:10371000C0E08823D1F09AD6EC01892BB1F4E8DD22
:1037200014DE8091270290912802E7D1E8D2EC01C3
:10373000892B59F48FE893E0D5DD83E993E0D2DD5E
:103740008BE893E0CFDD10928A03CE01DF91CF9119
:103750000895EF92FF920F931F93CF93DF93EC01A5
:103760007A018B010F5F1F4F0E9DA0010F9D500D21
:103770001E9D500D112470E060E00E94DA2B90E055
:1037800080E0F0E0E0E02FEFE816F90639F4DF9191
:10379000CF911F910F91FF90EF9008951A82198297
:1037A0002883309711F0D283C1830196FE01C00FA8
:1037B000D11FEACFCF92DF92EF92FF920F931F9328
:1037C000CF93DF930CE914E00C7F43E050E069E213
:1037D00072E08FE292E01AD489E2E82E82E0F82EBD
:1037E0009FE2C92E92E0D92EC3E0D5E0D7014D91DA
:1037F0005D917D01F601619171916F0119830883DB
:103800005D834C835B834A837F836E839B012F5F41
:103810003F4F249FC001259F900D349F900D112490
:10382000998788870115110511F0C80192DF8885F5
:103830009985080F191F2A96FFE2EF16F2E0FF069E
:10384000A9F6E9E9F3E080E091E0DF019C011D9237
:1038500021503040E1F71092980310929703109294
:10386000220510922105109226051092250510922E
:103870002405109223051092280510922705109216
:103880002A051092290510922C0510922B051092F2
:10389000300510922F0510922E0510922D051092D2
:1038A00032051092310510923405109233051092B2
:1038B00000051092FF04109202051092010590E09D
:1038C00080E0DF91CF911F910F91FF90EF90DF90FB
:1038D000CF9008950097F1F0F894AFE2B2E0E3E002
:1038E000F5E030E020E04D915D9148175907A8F0D0
:1038F000428153814115510581F08AE0829FF00198
:10390000839FF00D1124ED5FFA4F80819181009724
:1039100059F4789490E080E008952F5F3F4F3A96F5
:103920002330310501F7F5CFDC0111966D917C91C3
:10393000718360834150510953834283FC01219379
:10394000CF0178940895009749F1DC018E9185307C
:1039500041F4E0910105F09102053097F9F0CD01B5
:1039600019948530D8F4282F30E0F8948FEF8C9399
:103970008AE0829FF001839FF00D1124ED5FFA4FE2
:103980008081918112969C938E931197B183A0832D
:103990008281938101969383828378940895CF9254
:1039A000DF92EF92FF920F931F93CF93DF939C01CF
:1039B0008CE993E08C7F4115510509F49BC02115DA
:1039C000310509F497C06115710509F493C07A01B6
:1039D000AB01B9016D5F7F4F6C7F9B012F5F3F4F44
:1039E000249F8001259F100D349F100D1124F89401
:1039F0002091210530912205232B59F4209129058E
:103A000030912A052115310569F12017310708F099
:103A100058C020912B0530912C05232B91F4209137
:103A2000290530912A05820F931F2091330530918B
:103A300034052115310509F441C02017310708F07C
:103A400056C07894CFEFDFEF86EF9FEFF701D18379
:103A5000C083DF91CF911F910F91FF90EF90DF9086
:103A6000CF900895C3E0D0E0C0909703D090980322
:103A70002DEF30E02C193D092017310710F32AE013
:103A80002C9FF0012D9FF00D1124ED5FFA4F9183D3
:103A9000808355834483538342837783668311876E
:103AA0000087009709F055DE0C0D1D1D109398033B
:103AB00000939703789490E080E0C8CFC4E0D0E012
:103AC000D3CFC3E0D0E02AE02C9FF0012D9FF00D72
:103AD0001124ED5FFA4F9183808355834483538390
:103AE000428377836683009729F333DEE3CFC4E014
:103AF000D0E0E9CF8FEF9FEFACCF9C010397029707
:103B000008F069C0F89484E09AE0482F50E0241748
:103B100035070CF44DC091E08AE0829FF001839F4D
:103B2000F00D1124ED5FFA4F11821082158214827C
:103B300013821282178216829923B1F18091210596
:103B400090912205892BA9F42091290530912A050D
:103B50002115310571F08091970390919803821B94
:103B6000930B909398038093970310922A051092D9
:103B7000290580912B0590912C05892BA9F4209182
:103B80003305309134052115310571F0809197038B
:103B900090919803821B930B9093980380939703C3
:103BA0001092340510923305789490E080E00895E7
:103BB000949FF001959FF00D1124ED5FFA4F408125
:103BC0005181452B31F440855185452B11F48150AD
:103BD0009CCF90E0A1CF8FEF9FEF08954115510545
:103BE00049F1009739F16115710521F1F89420919F
:103BF000FF0430910005232BB9F420910105309189
:103C00000205232B89F4909300058093FF047093A1
:103C1000020560930105789425E030E090E080E0B3
:103C2000FA0131832083089578942FEF3FEF86EFD8
:103C30009FEFF6CF8FEF9FEF0895059769F4F89403
:103C4000109200051092FF041092020510920105D7
:103C5000789490E080E008958FEF9FEF08956115CC
:103C6000710519F4F0E0E0E011C08530910581F4B0
:103C7000E091FF04F09100053097A1F3CB0101968C
:103C80001995009779F3FC0185E08193CF010895A0
:103C90009C01235031092230310520F72AE0289F6A
:103CA000D001299FB00D1124AD5FBA4F2D913C91E9
:103CB0001197232BB9F216962D913C911797261741
:103CC000370780F2F89412962D913C9113972115A5
:103CD000310529F0ED91FC911197309711F478940A
:103CE000C1CF4181528111965C934E93215031098D
:103CF00013963C932E93129781937894C7CFE9E95A
:103D0000F4E086E6DF011D928A95E9F7E9E9F3E040
:103D100080E091E0DF019C011D9221503040E1F7ED
:103D20001092980310929703E3E0F5E082E3DF013D
:103D30001D928A95E9F7EFEFF4E084E0DF011D9230
:103D40008A95E9F790E080E00895CF93DF93C091E2
:103D50003502D0913602CF3FDC0759F420D490933E
:103D600036028093350297FF09C0D0933602C09384
:103D7000350284EF9FEFDF91CF91089590E080E0CE
:103D8000FACF8230910528F48093350590E080E0E9
:103D900008958FEF9FEF08954F925F926F927F92F9
:103DA000AF92BF92CF92DF92EF92FF920F931F9349
:103DB000CF93DF931F921F92CDB7DEB71A8219827D
:103DC000009709F478C06115710509F474C0209159
:103DD00035023091360207EF1FEF2F3F3F4F09F4B6
:103DE00044C06B015C01412C512C3201F12CE12CBF
:103DF00010E000E09E012F5F3F4FA6014E195F09C2
:103E0000B5016E0D7F1D809135029091360226D44A
:103E1000892B09F04AC089819A81009741F4E11405
:103E2000F10429F420913505222309F441C0E80E5C
:103E3000F91EEC14FD04C8F480E8481684E858061E
:103E40008EE16806710418F560E070E0CB0154D78C
:103E50002AE0420E511C611C711C0A3F4FEF1407EF
:103E600021F0043F8FEF1807A1F4C8010F900F90C5
:103E7000DF91CF911F910F91FF90EF90DF90CF9046
:103E8000BF90AF907F906F905F904F90089501EF3B
:103E90001FEF81E090E0013F2FEF120711F090E05B
:103EA00080E0892B09F4A6CFE0CF04EF1FEFDDCF30
:103EB0000AEF1FEFDACF0FEF1FEFD7CF4F925F92CE
:103EC0006F927F92AF92BF92CF92DF92EF92FF926A
:103ED0000F931F93CF93DF931F921F92CDB7DEB73F
:103EE0001A821982009709F478C06115710509F4E6
:103EF00074C0209135023091360207EF1FEF2F3F3B
:103F00003F4F09F444C06B015C01412C512C32013C
:103F1000F12CE12C10E000E09E012F5F3F4FA60145
:103F20004E195F09B5016E0D7F1D8091350290918C
:103F300036024AD3892B09F04AC089819A810097B9
:103F400041F4E114F10429F420913505222309F408
:103F500041C0E80EF91EEC14FD04C8F480E44816D4
:103F600082E458068FE06806710418F560E070E09E
:103F7000CB01C2D62AE0420E511C611C711C0E3FBF
:103F80004FEF140721F0043F8FEF1807A1F4C80189
:103F90000F900F90DF91CF911F910F91FF90EF90B5
:103FA000DF90CF90BF90AF907F906F905F904F90D9
:103FB000089502EF1FEF81E090E0023F2FEF12071C
:103FC00011F090E080E0892B09F4A6CFE0CF04EF58
:103FD0001FEFDDCF0EEF1FEFDACF0FEF1FEFD7CFC1
:103FE00080913502909136028F3F980749F0CFD2E9
:103FF000892B49F48FEF9FEF90933602809335021F
:1040000090E080E0089584EF9FEF0895CF92DF92D3
:10401000EF92FF920F931F93CF93DF9321E041150F
:10402000510509F020E04150510921112CC0DC015B
:10403000FB01D12CC12C21E022C03FEFC31AD30ACF
:104040007D010D911D91E701EA80FB80E016F106EC
:10405000A8F420813181E280F380F182E082338311
:104060002283ED90FC9011979D0122503109E901C6
:10407000F982E88211961C930E9320E03296C416C2
:10408000D506D8F2D2CFDF91CF911F910F91FF903B
:10409000EF90DF90CF900895FC01680F791F90E0BA
:1040A00080E0E617F70709F408952191820F911D2A
:1040B000F8CF20913605211113C047DE009791F407
:1040C00010923C0510923B0510923A05109239056A
:1040D000109238051092370521E020933605089597
:1040E00084EF9FEF0895AF92BF92CF92DF92EF924D
:1040F000FF920F931F93CF93DF93009709F460C053
:104100004630510508F45CC020913605C7EFDFEF5B
:10411000222309F449C08C01060F171FF801C08043
:10412000D180C114D10409F44EC096012A5F3F4FDB
:104130004217530708F447C07C0180913B059091DA
:104140003C0593838283B6016C5F7F4F5801A60EB6
:10415000B71EC801A1DFF5019183808364E070E0A0
:10416000C8011ADEEC01892BF9F481E090E009DE48
:10417000B601C801049610DEEC01892B91F462E0CF
:1041800070E0C50109DEEC01892B59F4C701DBDBC6
:1041900080913B0590913C05019690933C0580935E
:1041A0003B0590E080E0EDDDCE01DF91CF911F91E6
:1041B0000F91FF90EF90DF90CF90BF90AF90089558
:1041C000CFEFDFEFF1CFC9EFDFEFEECF6F927F924E
:1041D0008F929F92AF92BF92CF92DF92EF92FF9217
:1041E0000F931F93CF93DF9300D01F92CDB7DEB70D
:1041F000009709F47AC04115510509F476C0209161
:10420000360507EF1FEF222309F44DC03A017B0169
:104210005C0164E070E0CE01019650DE8C01892BD8
:1042200009F041C009811A810115110509F45AC02C
:10423000480186E0880E911CB701680D791D8091B8
:104240003702909138020BDD6C01009709F450C0E1
:10425000A70170E060E00E94DA2B89819A81AB812E
:10426000BC81EC0CFD1CF70181939193A193B19358
:104270007F0181E090E085DDB801C7011FDE892B59
:1042800031F562E070E0C701800F911F17DE8C01ED
:10429000892BE9F490E080E074DDF501D182C082E1
:1042A000F30191828082C8010F900F900F900F90C0
:1042B000DF91CF911F910F91FF90EF90DF90CF9002
:1042C000BF90AF909F908F907F906F90089590E0F7
:1042D00080E057DDF50111821082F3011182108216
:1042E000C60131DB09EF1FEFDECF0FEF1FEFDBCF92
:1042F00006EF1FEFD8CF0097A1F04115510589F0C7
:104300002115310571F0F90136966E177F0748F0D7
:10431000DC012D933C93DA01ED93FC9390E080E077
:1043200008958FEF9FEF0895AF92BF92CF92DF92E3
:10433000EF92FF920F931F93CF93DF93009709F4AF
:104340005FC04115510509F45BC06530710508F483
:1043500057C020913605C7EFDFEF222391F1DC0132
:10436000CD90DC9011971296ED91FC9196012A5F09
:104370003F4FC9EFDFEF2617370719F5C091370513
:10438000D0913805209749F521E030E03093380589
:10439000209337057A018C01F0933A05E0933905B3
:1043A0005601B4E0AB0EB11CB50176DE0A0D1B1D43
:1043B000F801208131818217930729F5D701CD9229
:1043C000DC92CE01DF91CF911F910F91FF90EF9082
:1043D000DF90CF90BF90AF90089520913905309134
:1043E0003A052F5F3F4FCCEFDFEFE217F30790F274
:1043F000CBEFDFEF2E173F0768F2D0E0C0E0CACF67
:10440000CFEFDFEFDECFC3EFDFEFDBCF84E090E075
:10441000089582E090E008958CEF9FEF089580E288
:1044200090E0089510923C0510923B0510923A05D9
:1044300010923905109238051092370590E080E00F
:10444000089590933802809337020895809136053D
:10445000882391F0C5DD009789F410923C051092F5
:104460003B0510923A0510923905109238051092CA
:10447000370510923605089590E080E00895009782
:1044800049F06115710531F0FC0111821082FB01C8
:10449000118210820895F3CF26E030E040E855E223
:1044A00060E070E090E080E000C08130910569F04C
:1044B0001CF4892B39F008958230910549F0039757
:1044C00051F008958AE495E048C687EE95E0FCCF68
:1044D00084E896E0F9CF81E297E0F6CF1F920F9241
:1044E0000FB60F9211240BB60F922F933F934F9359
:1044F0005F936F937F938F939F93AF93BF93EF934C
:10450000FF9387EF92EC9093250180932401BAD01A
:10451000FF91EF91BF91AF919F918F917F916F919B
:104520005F914F913F912F910F900BBE0F900FBE57
:104530000F901F90189587EF92EC90932501809330
:104540002401A3E7B0E08C918E7F8C93E0E2F1E050
:1045500080818C7F8083E1E2F1E08081877E8083AF
:1045600080818460808380818C7F80838C91816056
:104570008C930895E3E7F0E0808190819E7F9083A3
:104580008170089581E0089510923D05089568EEC8
:1045900073E080E090E0B0D390E080E0089526E002
:1045A00030E040E050E16EE070E090E080E07DDFE0
:1045B0008AE495E008D5892B21F08AE495E01DD5A1
:1045C000F7CF90E080E00895CF92DF92EF92FF92D4
:1045D0000F931F93CF93DF936B017A01E901198247
:1045E00018828AE495E0EFD4892B69F18601CC2406
:1045F000C39482E0D82E80913D05811110C08AE4D9
:1046000095E0FBD40297B9F7C0923D05F801D1922D
:104610008F0188819981019699838883ECCF888165
:1046200099818E159F0578F48AE495E0E6D48F3F52
:104630009807A9F3F80181938F01888199810196E8
:1046400099838883ECCF90E080E0DF91CF911F9138
:104650000F91FF90EF90DF90CF9008950F931F93ED
:10466000CF93DF93EA0189018AE495E00E943D2B14
:10467000F801D183C08390E080E0DF91CF911F915A
:104680000F910895CF92DF92EF92FF9280913E05B5
:1046900091E0980F90933E05882369F021E030E087
:1046A0003093400520933F0580933E05FF90EF90A7
:1046B000DF90CF9008957894E0913A02F0913B0218
:1046C000C28CD38CE48CF58C0E941103B701A60137
:1046D00090E080E00E943502F89480913E05815080
:1046E000E3CF0F931F93CF93DF931092D1071092D4
:1046F000D00738D3D1DEC0913A02D0913B02198263
:1047000018826FEF7FEFCB010E94B70270E060E08C
:1047100090E080E00E943A01009709F03AC00E94C0
:10472000CE03F8947894BE016E5D7F4F8A819B81A1
:104730000E943D01892B59F46FEF7FEFCB010E945E
:10474000CC010E94B102882311F081E08EA3F8947D
:10475000F2DE0E94B402882311F080E008C00E94BB
:10476000B1028111FACF81E09EA19111F6CF809321
:10477000D00778940E94640A8C0178948091D007C5
:1047800081110CC00E9436040E949702F89490E0B8
:1047900080E0DF91CF911F910F9108950E949502C3
:1047A0000E94B4028823D9F081E08093D1079091D0
:1047B000D10781E0911180E08093D0078091D107EB
:1047C0008111D8DE0130110529F40E94640A892B79
:1047D00009F4DADE0E94640A8C01D4DECFCF0E9495
:1047E000B1028111E1CF81E09EA19111DECF80E085
:1047F000DCCF5058BB27AA270ED057C148D130F084
:104800004DD120F031F49F3F11F41EF43DC10EF460
:10481000E095E7FB0AC1E92F59D180F3BA17620787
:1048200073078407950718F071F49EF588C10EF49C
:10483000E0950B2EBA2FA02D0B01B90190010C01B0
:10484000CA01A0011124FF27591B99F0593F50F4C8
:10485000503E68F11A16F040A22F232F342F442720
:10486000585FF3CF469537952795A795F040539518
:10487000C9F77EF41F16BA0B620B730B840BBAF0E8
:104880009150A1F0FF0FBB1F661F771F881FC2F753
:104890000EC0BA0F621F731F841F48F48795779567
:1048A0006795B795F7959E3F08F0B3CF9395880F1E
:1048B00008F09927EE0F97958795089529D180F0F4
:1048C0009F3740F491110EF43BC160E070E080E846
:1048D0009FE3089526F01B16611D711D811DABC05D
:1048E000C5C07FD008F481E00895F8D088F09F57C4
:1048F00090F0B92F9927B751A0F0D1F0660F771F2C
:10490000881F991F1AF0BA95C9F712C0B13081F00B
:1049100016D1B1E0089513C1672F782F8827B85FAB
:1049200039F0B93FCCF3869577956795B395D9F76C
:104930003EF490958095709561957F4F8F4F9F4F76
:104940000895E89409C097FB3EF490958095709582
:1049500061957F4F8F4F9F4F9923A9F0F92F96E9CB
:10496000BB279395F695879577956795B795F11140
:10497000F8CFFAF4BB0F11F460FF1BC06F5F7F4FDD
:104980008F4F9F4F16C0882311F096E911C07723EF
:1049900021F09EE8872F762F05C0662371F096E8F8
:1049A000862F70E060E02AF09A95660F771F881FC7
:1049B000DAF7880F9695879597F90895A9D080F032
:1049C0009F3740F491110EF0BBC060E070E080E8CA
:1049D0009FEB089526F41B16611D711D811D2BC0D0
:1049E00045C0990F0008550FAA0BE0E8FEEF161618
:1049F0001706E807F907C0F012161306E407F507D3
:104A000098F0621B730B840B950B39F40A2661F046
:104A1000232B242B252B21F408950A2609F4A140E9
:104A2000A6958FEF811D811D089597F99F6780E8F6
:104A300070E060E00895882371F4772321F09850A6
:104A4000872B762F07C0662311F499270DC090514C
:104A5000862B70E060E02AF09A95660F771F881F1A
:104A6000DAF7880F9695879597F908959F3F31F06B
:104A7000915020F4879577956795B795880F911D8C
:104A80009695879597F908959FEF80EC08950024F7
:104A90000A941616170618060906089500240A94A3
:104AA00012161306140605060895092E0394000C29
:104AB00011F4882352F0BB0F40F4BF2B11F460FFB8
:104AC00004C06F5F7F4F8F4F9F4F089557FD9058E1
:104AD000440F551F59F05F3F71F04795880F97FBC2
:104AE000991F61F09F3F79F087950895121613067C
:104AF0001406551FF2CF4695F1DF08C016161706AB
:104B00001806991FF1CF86957105610508940895DF
:104B1000E5DFA0F0BEE7B91788F4BB279F3860F443
:104B20001616B11D672F782F8827985FF7CF8695C7
:104B300077956795B11D93959639C8F30895E894D4
:104B4000BB2766277727CB0197F908954ADF08F43A
:104B50008FEF08950BD0A9CF9ADF28F09FDF18F0D0
:104B6000952309F062CF90CF1124EACFAFDFA0F3F5
:104B7000959FD1F3950F50E0551F629FF001729FF2
:104B8000BB27F00DB11D639FAA27F00DB11DAA1F11
:104B9000649F6627B00DA11D661F829F2227B00D5E
:104BA000A11D621F739FB00DA11D621F839FA00DE9
:104BB000611D221F749F3327A00D611D231F849F39
:104BC000600D211D822F762F6A2F11249F57504090
:104BD0008AF0E1F088234AF0EE0FFF1FBB1F661F2B
:104BE000771F881F91505040A9F79E3F510570F0E4
:104BF0001CCFA6CF5F3FECF3983EDCF3869577950C
:104C00006795B795F795E7959F5FC1F7FE2B880FDE
:104C1000911D9695879597F908951F920F920FB65B
:104C20000F9211242F933F938F939F93AF93BF9332
:104C30008091420590914305A0914405B0914505AE
:104C40003091410523E0230F2D3758F50196A11D22
:104C5000B11D209341058093420590934305A09395
:104C60004405B09345058091460590914705A09174
:104C70004805B09149050196A11DB11D80934605D7
:104C800090934705A0934805B0934905BF91AF9114
:104C90009F918F913F912F910F900FBE0F901F907A
:104CA000189526E8230F0296A11DB11DD2CF3FB75C
:104CB000F8948091460590914705A0914805B091E0
:104CC000490526B5A89B05C02F3F19F00196A11DE7
:104CD000B11D3FBFBA2FA92F982F8827BC01CD0146
:104CE000620F711D811D911D42E0660F771F881FA5
:104CF000991F4A95D1F708958F929F92AF92BF92D4
:104D0000CF92DF92EF92FF926B017C01D0DF4B01DB
:104D10005C01C114D104E104F104D9F0DBD4C7DF94
:104D2000681979098A099B09683E734081059105D4
:104D300080F321E0C21AD108E108F10888EE880E5C
:104D400083E0981EA11CB11CC114D104E104F1043C
:104D500031F7FF90EF90DF90CF90BF90AF909F9092
:104D60008F900895789484B5826084BD84B5816005
:104D700084BD85B5826085BD85B5816085BDEEE663
:104D8000F0E0808181608083E1E8F0E01082808142
:104D900082608083808181608083E0E8F0E08081B0
:104DA00081608083E1EBF0E0808184608083E0EBD0
:104DB000F0E0808181608083E1E9F0E080818260C1
:104DC0008083808181608083E0E9F0E08081816080
:104DD0008083E1EAF0E0808182608083808181606D
:104DE0008083E0EAF0E0808181608083E1E2F1E0AD
:104DF000808182608083808181608083E0E2F1E055
:104E0000808181608083EAE7F0E080818460808334
:104E100080818260808380818160808380818068DE
:104E200080831092C10008958150823108F059C0EA
:104E3000E82FF0E08827E15EF84D8F4F91C43F27BF
:104E40004327312737273B27712746274C275027F1
:104E500056275A275E276427682771276C277227F1
:104E60007627809180008F778093800008958091CD
:104E700080008F7DF9CF80918000877FF5CF84B54A
:104E80008F7784BD089584B58F7DFBCF8091B0006E
:104E90008F778093B00008958091B0008F7DF9CF17
:104EA000809190008F77809390000895809190007A
:104EB0008F7DF9CF80919000877FF5CF8091A00002
:104EC0008F778093A00008958091A0008F7DF9CF07
:104ED0008091A000877FF5CF809120018F7780930C
:104EE00020010895809120018F7DF9CF80912001CC
:104EF000877FF5CFCF93DF9390E0FC01E65DFE4F17
:104F0000249180599E4FFC0184918823C9F090E040
:104F1000880F991FFC01E053FE4FA591B491FC014D
:104F2000EA54FE4FC591D49161110DC09FB7F8941A
:104F30008C91209582238C938881282328839FBF7E
:104F4000DF91CF910895623051F49FB7F8943C916E
:104F5000822F809583238C93E8812E2BEFCF8FB700
:104F6000F894EC912E2B2C938FBFEACF1F93CF9305
:104F7000DF93282F30E0F901EC51FF4F8491F901C4
:104F8000E65DFE4FD491F901E059FE4FC491CC2368
:104F9000A1F0162F811148DFEC2FF0E0EE0FFF1F7C
:104FA000EA54FE4FA591B4918FB7F894EC9111118A
:104FB00008C0D095DE23DC938FBFDF91CF911F9186
:104FC0000895DE2BF8CFFC01918D228D892F90E082
:104FD000805C9F4F821B91098F7399270895FC0174
:104FE000918D828D981731F0828DE80FF11D858D9E
:104FF00090E008958FEF9FEF0895FC01918D828DD1
:10500000981761F0A28DAE0FBF2FB11D5D968C91E8
:10501000928D9F5F9F73928F90E008958FEF9FEF27
:105020000895FC01538D448D252F30E0842F90E0AE
:10503000821B930B541710F0CF9608950197089593
:10504000FC01A48DA80FB92FB11DA35ABF4F2C91FD
:10505000848D90E001968F739927848FA689B789F4
:105060002C93A089B1898C91837080648C93938DEB
:10507000848D981306C00288F389E02D80818F7D8E
:1050800080830895CF93DF93EC01888D8823B1F05E
:10509000AA89BB89E889F9898C9185FD03C0808143
:1050A00086FD0CC00FB607FCF7CF8C9185FFF2CFC1
:1050B000808185FFEDCFCE01C3DFEACFDF91CF91B5
:1050C0000895EF92FF920F931F93CF93DF93EC011C
:1050D00081E0888F9B8D8C8D98131AC0E889F9899F
:1050E000808185FF15C09FB7F894EE89FF896083A2
:1050F000E889F98980818370806480839FBF81E023
:1051000090E0DF91CF911F910F91FF90EF90089564
:10511000F62E0B8D10E00F5F1F4F0F731127E02E3F
:105120008C8D8E110BC00FB607FCFACFE889F98978
:10513000808185FFF5CFCE0183DFF2CFEB8DEC0FC1
:10514000FD2FF11DE35AFF4FF0829FB7F8940B8FAC
:10515000EA89FB8980818062D0CFCF92DF92EF9283
:10516000FF921F93CF93DF93EC016A017B01122F13
:10517000E889F98982E08083C11481EED806E104D0
:10518000F10499F060E079E08DE390E0A7019601E9
:10519000C5D2215031094109510956954795379596
:1051A0002795211580E1380790F0E889F989108268
:1051B00060E874E88EE190E0A7019601AFD221503B
:1051C0003109410951095695479537952795EC8541
:1051D000FD853083EE85FF852083188EEC89FD895F
:1051E0001083EA89FB89808180618083EA89FB8959
:1051F000808188608083EA89FB89808180688083E0
:10520000EA89FB8980818F7D8083DF91CF911F9117
:10521000FF90EF90DF90CF9008951F920F920FB6FE
:105220000F9211240BB60F922F938F939F93EF93AE
:10523000FF93E0915A05F0915B058081E091600554
:10524000F091610582FD1DC09081809163058F5FA3
:105250008F7320916405821741F0E0916305F0E0BF
:10526000E65BFA4F958F80936305FF91EF919F91D5
:105270008F912F910F900BBE0F900FBE0F901F902C
:1052800018958081F2CF1F920F920FB60F921124C2
:105290000BB60F922F933F934F935F936F937F9330
:1052A0008F939F93AF93BF93EF93FF938AE495E01F
:1052B000C7DEFF91EF91BF91AF919F918F917F9149
:1052C0006F915F914F913F912F910F900BBE0F9077
:1052D0000FBE0F901F901895EAE4F5E0138212823A
:1052E00088EE93E0A0E0B0E084839583A683B78343
:1052F0008EEB92E09183808385EC90E095878487A4
:1053000084EC90E09787868780EC90E0918B808B8F
:1053100081EC90E0938B828B82EC90E0958B848B78
:1053200086EC90E0978B868B118E128E138E148EE6
:1053300008951F920F920FB60F9211240BB60F9281
:105340002F938F939F93EF93FF93E091F705F09145
:10535000F8058081E091FD05F091FE0582FD1DC0FC
:105360009081809100068F5F8F73209101068217D4
:1053700041F0E0910006F0E0E951FA4F958F8093FB
:105380000006FF91EF919F918F912F910F900BBE8F
:105390000F900FBE0F901F9018958081F2CF1F9233
:1053A0000F920FB60F9211240BB60F922F933F93CB
:1053B0004F935F936F937F938F939F93AF93BF931D
:1053C000EF93FF9387EE95E03BDEFF91EF91BF9166
:1053D000AF919F918F917F916F915F914F913F918D
:1053E0002F910F900BBE0F900FBE0F901F9018952E
:1053F000E7EEF5E01382128288EE93E0A0E0B0E0E1
:1054000084839583A683B7838EEB92E09183808318
:105410008DEC90E0958784878CEC90E09787868769
:1054200088EC90E0918B808B89EC90E0938B828B61
:105430008AEC90E0958B848B8EEC90E0978B868B3A
:10544000118E128E138E148E08951F920F920FB626
:105450000F9211240BB60F922F938F939F93EF937C
:10546000FF93E0919406F09195068081E0919A0671
:10547000F0919B0682FD1DC0908180919D068F5FFB
:105480008F7320919E06821741F0E0919D06F0E017
:10549000EC57F94F958F80939D06FF91EF919F9167
:1054A0008F912F910F900BBE0F900FBE0F901F90FA
:1054B00018958081F2CF1F920F920FB60F92112490
:1054C0000BB60F922F933F934F935F936F937F93FE
:1054D0008F939F93AF93BF93EF93FF9384E896E0EE
:1054E000AFDDFF91EF91BF91AF919F918F917F9130
:1054F0006F915F914F913F912F910F900BBE0F9045
:105500000FBE0F901F901895E4E8F6E01382128208
:1055100088EE93E0A0E0B0E084839583A683B78310
:105520008EEB92E09183808385ED90E09587848770
:1055300084ED90E09787868780ED90E0918B808B5B
:1055400081ED90E0938B828B82ED90E0958B848B44
:1055500086ED90E0978B868B118E128E138E148EB3
:1055600008951F920F920FB60F9211240BB60F924F
:105570002F938F939F93EF93FF93E0913107F091D7
:1055800032078081E0913707F091380782FD1DC016
:10559000908180913A078F5F8F7320913B0782172C
:1055A00041F0E0913A07F0E0EF5DF84F958F80937E
:1055B0003A07FF91EF919F918F912F910F900BBE22
:1055C0000F900FBE0F901F9018958081F2CF1F9201
:1055D0000F920FB60F9211240BB60F922F933F9399
:1055E0004F935F936F937F938F939F93AF93BF93EB
:1055F000EF93FF9381E297E023DDFF91EF91BF915D
:10560000AF919F918F917F916F915F914F913F915A
:105610002F910F900BBE0F900FBE0F901F901895FB
:10562000E1E2F7E01382128288EE93E0A0E0B0E0BE
:1056300084839583A683B7838EEB92E091838083E6
:1056400085E391E09587848784E391E09787868757
:1056500080E391E0918B808B81E391E0938B828B4F
:1056600082E391E0958B848B86E391E0978B868B28
:10567000118E128E138E148E0895AF92BF92CF9218
:10568000DF92EF92FF920F931F93CF93DF936C0102
:105690007B018B01040F151FEB015E01AE18BF08E3
:1056A000C017D10759F06991D601ED91FC91019095
:1056B000F081E02DC6011995892B79F7C501DF919D
:1056C000CF911F910F91FF90EF90DF90CF90BF90FF
:1056D000AF9008950895DB018F939F9349D0BF91B8
:1056E000AF91A29F800D911DA39F900DB29F900D31
:1056F00011240895AA1BBB1B51E107C0AA1FBB1FA1
:10570000A617B70710F0A61BB70B881F991F5A954D
:10571000A9F780959095BC01CD010895A1E21A2EBC
:10572000AA1BBB1BFD010DC0AA1FBB1FEE1FFF1F45
:10573000A217B307E407F50720F0A21BB30BE40B95
:10574000F50B661F771F881F991F1A9469F76095DC
:105750007095809590959B01AC01BD01CF01089596
:10576000EE0FFF1F881F8BBF0790F691E02D199455
:1057700009D0A59F900DB49F900DA49F800D911D01
:1057800011240895A29FB001B39FC001A39F700D83
:10579000811D1124911DB29F700D811D1124911D39
:1057A0000895FB01DC0102C001900D924150504070
:1057B000D8F70895DC0101C06D9341505040E0F7E7
:0657C0000895F894FFCFEC
:1057C6000000803F000000400000803F0000000015
:1057D600FEFFFFFF01E8030000FFFF00000000FFDF
:1057E600FFFFFFFFFFFFFFFFFF0100010001002099
:1057F6000038000800FFFFFFFF01E002FF00B90CC0
:10580600E50CFE009F0C200AFD00310C8B0CFC0001
:10581600770C200AF600680D200AF5003E0CA70D4D
:10582600F400310DBE0DDE00E5117E14DD005413CB
:10583600200ADA008E0F960FD9009914A60FE200FF
:10584600760E200AE100B10E200AE000260F200A9B
:10585600D6007C18200AD5003311200AD400BF10C8
:10586600200AD3003010200AC000B50F200AF0002D
:10587600E518200AED00A218200A000000006128A1
:0C5886003D2B11284228E327FD27EF27C7
:00000001FF
