:10000000F8C0000027C1000025C1000023C1000086
:1000100021C100001FC100001DC100001BC1000064
:1000200019C1000017C1000015C1000013C1000074
:1000300011C100000FC100000DC100000BC1000084
:1000400009C1000007C1000005C1000003C1000094
:1000500001C10000FFC00000FDC000000C94E324BB
:10006000F9C000000C94E3270C941928F3C0000099
:10007000F1C00000EFC00000EDC00000EBC00000C8
:10008000E9C00000E7C00000E5C00000E3C00000D8
:100090000C946F280C94A528DDC00000DBC0000084
:1000A000D9C00000D7C00000D5C00000D3C00000F8
:1000B000D1C00000CFC00000CDC00000CBC0000008
:1000C000C9C00000C7C000000C9444210C94FB2858
:1000D0000C943129BFC000000C9487290C94BD29D1
:1000E000B9C0000000000A0B02090C0D0E0807033E
:1000F00004010000000000000000000000000000FB
:1001000000000000000000000000000000000000EF
:1001100012111000000000000000000000000000AC
:100120000000000000000000000001021020200874
:100130000810204010204080020102010804020142
:1001400001020408102040808040201008040201B1
:10015000800402018040201008040201080402010A
:100160000102040810204080010204081020408091
:1001700005050505070508080808020202020A0A23
:100180000808040404040101010101010101030341
:10019000030303030303040707070C0C0C0C0C0CEC
:1001A0000C0C0202020206060606060606060B0BE9
:1001B0000B0B0B0B0B0B00002200250028002B0063
:1001C0002E003100340002010000050108010B017E
:1001D00000002100240027002A002D0030003300F9
:1001E00001010000040107010A014228CE285A2912
:1001F000E62911241FBECFEFD1E2DEBFCDBF00E064
:100200000CBF12E0A0E0B2E0E2E7F5E500E00BBFD2
:1002100002C007900D92A43CB107D9F726E0A4ECE8
:10022000B2E001C01D92A83CB207E1F710E0C9EFAF
:10023000D0E000E006C021970109802FFE010E9456
:10024000862AC53FD10780E00807A9F70E94472208
:100250000C94B72AD5CE611102C00C94502661309F
:10026000E1F362E0FACF662319F061E00C948C268A
:1002700060E0FCCF90E080E008950F931F9300971B
:1002800009F487C06115710509F483C00091140257
:100290001091150220911602309117020E3F1F4F48
:1002A0002F4F3F4F09F066C04FEF5FEFBA01409309
:1002B0001402509315026093160270931702409136
:1002C0001402509115026091160270911702DC0120
:1002D0001296ED91FC9180819181A281B3818093EE
:1002E0002E0390932F03A0933003B09331038481A6
:1002F0009581A681B78180932A0390932B03A093C5
:100300002C03B0932D0380859185A285B3858093BE
:10031000260390932703A0932803B0932903848591
:100320009585A685B7858093220390932303A09398
:100330002403B093250310921E0310921F03109202
:10034000200310922103ECD485EB96E09093C50234
:100350008093C4029093C7028093C602D0D30097C3
:1003600031F421E030E030933303209332031F91C6
:100370000F91089500911402109115022091160218
:1003800030911702DB010D931D932D933C9313972E
:1003900096CF8FEF9FEFEBCF8F929F92AF92BF924E
:1003A000CF92DF92EF92FF921F93CF93DF934B0197
:1003B0005C011091350382E090E0909333038093C9
:1003C000320381149104A104B10441F480913503F6
:1003D000811104C080913403C1E08111C0E0C12CBF
:1003E000D12C760180913503811106C080913403B0
:1003F000811102C0CC23D9F083E090E090933303C5
:1004000080933203CC2379F1CCE9DFEF111102C0E4
:100410000E94190ACE01DF91CF911F91FF90EF90BA
:10042000DF90CF90BF90AF909F908F9008956AE03B
:1004300070E080E090E00E94522580E1C80E87E2E3
:10044000D81EE11CF11C8FEF88169806A806B80686
:1004500031F0C1E08C149D04AE04BF0408F0C0E08C
:1004600080E081D3BFCFD0E0C0E0D0CFCF92DF9289
:10047000EF92FF920F931F93CF93DF938F3F9105DE
:1004800011F008F050C02091320330913303233033
:10049000310539F020913203309133032130310599
:1004A00031F424E030E030933303209332036A01C7
:1004B0007B01EC0182309105A0F011E0AE01C70193
:1004C000B6011CD3AB01BC01CE011123F9F0DF91C1
:1004D000CF911F910F91FF90EF90DF90CF900C94F0
:1004E000420C8C01000F111F0C531D4FD8018D9130
:1004F0009C91892B11F30E944C0C0297F1F6D801C4
:10050000ED91FC91CE011995182FD8CF0E94640C63
:1005100090E080E0DF91CF911F910F91FF90EF90DD
:10052000DF90CF9008958FEF9FEFF4CF80E01BC353
:10053000CF93DF9386E090E0909333038093320370
:100540006BD3EC01E4ECF2E084E0DF011D928A95CC
:10055000E9F707D71092330310923203CE01DF91EF
:10056000CF91089580913403089580911D030895DB
:1005700060931402709315028093160290931702F1
:1005800090E080E00895CF92DF92EF92FF926B01AE
:100590007C019F7720E030E040E859E50E94472346
:1005A00087FF2BC020E030E040E05FE3C701B601E9
:1005B0000E947C2487FD0EC020E030E040E05FE335
:1005C000C701B6010E94D022FF90EF90DF90CF903C
:1005D0000C94B42320E030E040E05FEBC701B601AB
:1005E0000E947C24181684F420E030E0A901C701A1
:1005F000B6010E9480246B017C01C701B601FF9007
:10060000EF90DF90CF90089520E030E040E05FE38E
:10061000C701B6010E94CF22FF90EF90DF90CF90EC
:100620000C9434234F925F926F927F928F929F929D
:10063000AF92BF92CF92DF92EF92FF926091000251
:100640007091010280910202909103029CDF6B0184
:100650007C0120E030E040E853E40E9447236FEF44
:1006600087FF0EC020E030E0A901C701B6010E945B
:100670007C2460E087FD04C0C701B6010E944B23C3
:100680008EE1F1DDC090C206D090C306E090C406B2
:10069000F090C506C701B6010E9479232B013C01E9
:1006A00020910C0230910D0240910E0250910F02E8
:1006B0000E94472387FF7DC0F7FC7BC08090040227
:1006C00090900502A0900602B090070220E030E072
:1006D00040E85FE3609108027091090280910A028C
:1006E00090910B020E94CF229B01AC01C301B20189
:1006F0000E947C2487FD61C01092C2061092C3063E
:100700001092C4061092C506C501B4013CDF6B010E
:100710007C0120E030E040E853E40E9447236FEF83
:1007200087FF0EC020E030E0A901C701B6010E949A
:100730007C2460E087FD04C0C701B6010E944B2302
:100740008FE191DD6091F4027091F5028091F602E3
:100750009091F7026F5F7F4F8F4F9F4F6093F4022E
:100760007093F5028093F6029093F7020E9477232C
:100770009B01AC016091F8027091F9028091FA023C
:100780009091FB020E9480246093F0027093F1022A
:100790008093F2029093F302FF90EF90DF90CF905E
:1007A000BF90AF909F908F907F906F905F904F9091
:1007B0000895812C912C540189CF8FEFC81AD80A43
:1007C000E80AF80AC092C206D092C306E092C406B4
:1007D000F092C50699CFCF92DF92EF92FF921F93CE
:1007E000CF93DF93EAEDF2E080E090E0A0E8BFEB8A
:1007F00082A393A3A4A3B5A380E090E0A0E8BEE306
:10080000868F978FA0A3B1A38EEA91E8AEE8B6E2F7
:1008100084839583A683B78389EB93E6A4EEBBED2F
:1008200080879187A287B38780E892E2A5E8BFE539
:1008300084879587A687B7878BE79CE2ADE7BAEAFE
:10084000808B918BA28BB38BAEECB2E0B383A2838F
:10085000E8ECF2E01196FC93EE9381E392E0918351
:10086000808393838283958384838EEE92E01596B2
:100870009C938E9314978EED92E013969C938E9397
:10088000129780EF92E017969C938E931697C2EB87
:10089000D6E01882C12CD12C7601C394C982DA82A9
:1008A000EB82FC8261E08EE1D6DC11E01D831886CC
:1008B000C986DA86EB86FC8661E08FE1CCDC1D8799
:1008C000DF91CF911F91FF90EF90DF90CF9008952F
:1008D0008091B206811103C081E08093B2068091BD
:1008E000BA06811103C081E08093BA0608954F9241
:1008F0005F926F927F928F929F92AF92BF92CF92B0
:10090000DF92EF92FF920F931F93F89440900D03A4
:1009100050900E0360900F0370901003C09001037D
:10092000D0900203E0900303F0900403452B09F0FC
:10093000A6C09B01AC0124193509460957092901B4
:100940003A010091090310910A0320910B033091A1
:100950000C0348015901840C951CA61CB71C801679
:100960009106A206B306A0F40091050310910603B8
:1009700020910703309108030F5F1F4F2F4F3F4F08
:100980000093050310930603209307033093080395
:100990008092090390920A03A0920B03B0920C0379
:1009A000009105031091060320910703309108037D
:1009B0008092110390921203A0921303B092140339
:1009C0000093150310931603209317033093180315
:1009D00060930D0370930E0380930F0390931003A5
:1009E000A301920160E970ED83E090E00E94412A4A
:1009F0006C0D7D1D8E1D9F1D60930103709302037E
:100A00008093030390930403009114021091150244
:100A100020911602309117020F3F1F4F2F4F3F4F6B
:100A2000F1F00091140210911502209116023091FC
:100A300017020E3F1F4F2F4F3F4F89F0C0901402F7
:100A4000D0901502E0901602F090170221E08C146D
:100A50009D04AE04BF0408F420E020931D037894A5
:100A60001F910F91FF90EF90DF90CF90BF90AF90CC
:100A70009F908F907F906F905F904F9008954B0163
:100A80005C0184189508A608B708A3019201261BEB
:100A9000370B480B590B6415750586059705E0F073
:100AA00082169306A406B50640F420E030E0A901C2
:100AB00081149104A104B104A1F460E970ED83E014
:100AC00090E00E94412AA7019601261B370B480B94
:100AD000590BCA01B901C3CF82169306A406B50605
:100AE00060F7A501940160E970ED83E090E00E9459
:100AF000412A6C0D7D1D8E1D9F1DB1CFF8CECF9369
:100B0000DF9300D01F92CDB7DEB71C821B821A8202
:100B100019821092190310921A0310921B0310925B
:100B20001C03BE016F5F7F4FCE0103960E9415210B
:100B300069817A818B819C810E94681B009761F496
:100B4000BE016F5F7F4FCE0103960E942121698114
:100B50007A818B819C812ED50F900F900F900F90F2
:100B6000DF91CF910895FF920F931F93CF93DF935F
:100B7000082F60E070E0CB010E945225FF24F3941F
:100B80000E94511AEC01892B89F010E0CE3F8FEFC3
:100B9000D80769F0002361F160E070E0CB010E94AA
:100BA000522581E090E0892B59F322C011E025D530
:100BB000EC01892B21F0CE3F8FEFD80759F71111A7
:100BC0001EC011E0229609F410E00E94011AEC0107
:100BD000892B21F0CE3F8FEFD807E1F6111111C01C
:100BE00011E0CE3F8FEFD80709F410E001110BC0E0
:100BF000CE01DF91CF911F910F91FF90089511E0E9
:100C0000E4CF11E0F3CF60E070E0CB010E94522509
:100C10001F25812F90E0C7CFCF93DF9380911D03D5
:100C2000882321F060E070E0CB014CD635D6D0E0CF
:100C3000C0E0892B71F06AE070E080E090E00E94F3
:100C4000522581E090DF28D62196C03D27E0D207CB
:100C500081F727D60E94BC1B1092350310923403F3
:100C600010922E0310922F03109230031092310332
:100C700010922A0310922B0310922C0310922D0332
:100C80001092260310922703109228031092290332
:100C90001092220310922303109224031092250332
:100CA00010921E0310921F03109220031092210332
:100CB0004EEF5FEF6FEF7FEF4093140250931502FA
:100CC000609316027093170210921D03E1E1F3E0A6
:100CD00028E0DF011D922A95E9F710920D0310928A
:100CE0000E0310920F03109210031092090310923A
:100CF0000A0310920B0310920C031092050310923A
:100D00000603109207031092080310920103109239
:100D100002031092030310920403DF91CF91089510
:100D20001092410310924203109243031092440325
:100D3000109240038091490390914A0390933F039E
:100D400080933E0310923D0310923C0310923803AF
:100D50001092390310923A0310923B03109246030B
:100D60001092450390E080E00895CF92DF92EF92D9
:100D7000FF920F931F93CF938C01892B09F055C0DD
:100D80002091490330914A0380913E0390913F03A3
:100D90004091490350914A0350933F0340933E03CF
:100DA0002817390781F010923D0310923C031092EE
:100DB00038031092390310923A0310923B031092B9
:100DC0004603109245038091490390914A0301978D
:100DD00061F58091450390914603892B21F4809120
:100DE0001802811112C0809145039091460301972A
:100DF000E1F48091380390913903A0913A03B091C6
:100E00003B030197A105B10581F4109238031092BC
:100E1000390310923A0310923B031092180282E0B9
:100E200090E090934603809345038091490390910D
:100E30004A03019709F01CC180915F039091600300
:100E40008017910709F014C180915B0390915C03B6
:100E5000A0915D03B0915E03009709F409C1209150
:100E60005A0321110DC040915B0350915C036091C6
:100E70005D0370915E03452B462B472B09F4F8C0A8
:100E800020914503309146032230310509F0F0C02E
:100E900020913C032111ECC0FC01C080D180E28094
:100EA000F38080914003882309F4D3C080914C03E0
:100EB00090914D03892B09F4FDC020914C03309192
:100EC0004D0381E02230310509F080E020914C0390
:100ED00030914D03C1E02130310549F020914C03A0
:100EE00030914D03C1E02230310509F0C0E0882384
:100EF00009F456C02091560330915703409158038E
:100F000050915903C701B6010E947C2487FD14C08B
:100F10002091560330915703409158035091590343
:100F20006091410370914203809143039091440387
:100F30000E94472387FD22C020915603309157031A
:100F40004091580350915903C701B6010E947C2477
:100F5000181634F5209156033091570340915803E9
:100F60005091590360914103709142038091430372
:100F7000909144030E944723811112C080914E0337
:100F800090914F03A0915003B0915103892B8A2B6C
:100F90008B2B19F481E080933D0381E080933C0327
:100FA000CC2309F456C02091560330915703409149
:100FB000580350915903C701B6010E94472387FF88
:100FC00014C020915603309157034091580350911B
:100FD00059036091410370914203809143039091C2
:100FE00044030E947C2487FF22C020915603309145
:100FF00057034091580350915903C701B6010E940D
:101000004723811126C02091560330915703409108
:1010100058035091590360914103709142038091AC
:101020004303909144030E947C24181694F4809109
:101030004E0390914F03A0915003B0915103892B1F
:101040008A2B8B2B19F481E080933D0381E0809300
:101050003C0381E090913C03911180E08093400338
:10106000C0924103D0924203E0924303F0924403C2
:10107000012B09F067C18091450390914603892BAC
:10108000D9F410924B0310923C03809118028823EC
:1010900079F082E090E090934603809345031092AC
:1010A00018022091490330914A0381E0232BE9F093
:1010B00080E01BC081E00ACF1092180280914B03A0
:1010C000882349F010923D03109246031092450385
:1010D00010924B03EDCF8091490390914A03892BE5
:1010E000E1F080913C0310923C0320914503309144
:1010F00046032230310509F45EC088F4211531051C
:1011000009F448C02130310509F4F3C010923D03C1
:1011100010923C0310924B0338C081E0E6CF23309D
:10112000310509F4B1C02430310581F7409138030D
:101130005091390360913A0370913B034115510579
:101140006105710561F041505109610971094093D0
:1011500038035093390360933A0370933B034091F3
:1011600038035091390360913A0370913B03452B4A
:10117000462B472BD9F42091470330914803213067
:10118000310509F046C010923D03109246031092BB
:1011900045030CC080911802882341F082E090E062
:1011A00090934603809345031092180210923603E1
:1011B00080913D03CEC08823C9F380914E03909166
:1011C0004F03A0915003B0915103181619061A0647
:1011D0001B060CF07DC08091490390914A03019752
:1011E00009F076C080914E0390914F03A091500377
:1011F000B09151038093380390933903A0933A033D
:10120000B0933B0383E090E09093460380934503C3
:10121000CDCF40915203509153036091540370918C
:101220005503452B462B472BA9F010923D03809187
:10123000520390915303A0915403B09155038093AE
:10124000380390933903A0933A03B0933B0381E0B2
:1012500090E0DACF882399F08091190290911A02D8
:10126000A0911B02B0911C02809338039093390324
:10127000A0933A03B0933B0384E090E0C5CF109273
:101280003D0382E090E0C0CF809138039091390314
:10129000A0913A03B0913B030097A105B10559F025
:1012A0000197A109B1098093380390933903A09362
:1012B0003A03B0933B038091380390913903A09196
:1012C0003A03B0913B03892B8A2B8B2B09F06ECF0D
:1012D0008091190290911A02A0911B02B0911C02F8
:1012E000892B8A2B8B2B09F44ECF81E080933D0311
:1012F000B3CF409138035091390360913A03709114
:101300003B03411551056105710561F041505109DB
:1013100061097109409338035093390360933A038C
:1013200070933B03409138035091390360913A0325
:1013300070913B03452B462B472B09F037CF81118A
:10134000C7CF9FCF80913603882309F431CF809196
:101350003703CF911F910F91FF90EF90DF90CF90C7
:101360000895109241031092420310924303109289
:1013700044031092400310924603109245031092CA
:101380003F0310923E031092600310925F0310928D
:101390003D0310923C0310923803109239031092CF
:1013A0003A0310923B0310923703109236031092C7
:1013B0005B0310925C0310925D0310925E03109227
:1013C0005A0310925603109257031092580310922A
:1013D000590388EE93E0A0E0B0E080931902909367
:1013E0001A02A0931B02B0931C0210925203109297
:1013F0005303109254031092550310924E0310920F
:101400004F03109250031092510310924D0310920B
:101410004C0381E08093180210924B0310924A0310
:1014200010924903109248031092470390E080E025
:1014300008958091490390914A03892B19F5809171
:101440001802882351F080914B03811106C081E07E
:101450008093370380933603089520914B03309196
:10146000180281E090E0332311F090E080E030E05A
:1014700082239323892B21F01092370381E0EACF56
:1014800010923603089582E090E0FA019183808300
:101490008FEF9FEF0895CF93DF93EA01009711F04C
:1014A0000E94361C1982188290E080E0DF91CF9173
:1014B0000895DB01009719F48FEF8C9308952EEFB8
:1014C0002C93FC013F96EF30F10508F034C08827DB
:1014D000E359F54F8F4F0C94862A990A970A950A7B
:1014E000930A910A8D0A8F0A8B0A890A870A840A4D
:1014F000800A7C0A820A9B0A80E311968C930895E5
:1015000089E2FBCF82E2F9CF11961C92089583E223
:10151000F4CF81E2F2CF81E1F0CF87E2EECF8AE231
:10152000ECCF80E1EACF84E2E8CF88E2E6CF86E242
:10153000E4CF81E3E2CF80E2E0CF80916D03909130
:101540006E03089590936E0380936D0308958091C8
:101550006C03089590916C03892B80936C0308951C
:10156000982F909580916C03892380936C03089544
:1015700080916B0308958091690390916A030895A7
:101580006115710559F0FB0130E020E070E060E08A
:101590002417350719F06115710511F0CB01089575
:1015A000A081B181A817B90709F4BF012F5F3F4F90
:1015B0003696EECF80916F0381111CC060D266D247
:1015C00090936203809361030E94DA140E94EC14EA
:1015D00090936603809365030E9469190E947019B5
:1015E000909364038093630381E080936F0390E0A2
:1015F00080E0089584EF9FEF08958F929F92AF92BD
:10160000BF92CF92DF92EF92FF920F931F93CF93EF
:10161000DF9300D000D000D01F92CDB7DEB71A867E
:10162000198618861F821E821D821C821B821A82C6
:10163000198280916F0307EF1FEF882309F49CC084
:101640008E010D5F1F4F9E012B5F3F4FAE01495F23
:101650005F4FBE01675F7F4F90E080E00E94ED1A10
:101660008C01009721F00596029708F0DBC02985D0
:101670003A852115310509F402C1ED80FE804B81C8
:101680005C81B701640F751F8F8198858617970756
:1016900008F4F5C0E20EF31ED7019C91903C09F0CE
:1016A0007FC04230510508F47BC011968C91409167
:1016B0006D0350916E03452B09F49CC0913F08F0D7
:1016C00071C02CE1290F2D3008F48BC02DE2290FB9
:1016D000203108F489C0903C21F48150823008F414
:1016E00083C088E3890F8B3008F481C099E5C92E47
:1016F0009AE0D92EE3E4FAE06D817E81AE014F5F7E
:101700005F4F89859A8519955C01C114D104A1F1B7
:1017100089809A808114910479F18B819C8188154C
:10172000990508F487C010E000E04B815C8170E00F
:1017300060E0C7010E94B02A01151105E9F4498152
:101740005A8169857A858D819E81680F791FC501CF
:10175000F6011995E980FA800D811E812F81388567
:1017600049855A856FEF7FEF81E090E00E94881AEB
:101770008C01892B09F056C0C8012A960FB6F8943F
:10178000DEBF0FBECDBFDF91CF911F910F91FF90B4
:10179000EF90DF90CF90BF90AF909F908F90089583
:1017A00080E085CF30E020E0220F331FF901EF59B0
:1017B000FC4F0190F081E02D309709F497CF892FED
:1017C00090E01995009709F491CFDC011296ED9104
:1017D000FC9113971496CD90DC90309709F08CCF44
:1017E0001FC021E030E0E0CF22E030E0DDCF23E099
:1017F00030E0DACFD12CC12CEBE4FAE09F3F09F0C6
:101800007BCFE0916103F0916203309721F4C9012D
:1018100004EF1FEF0CC08FEF90E019950097A9F629
:1018200004EF1FEF89859A85009709F4A5CF0E94E0
:10183000361CA2CF0E94B71B8C0189859A850E9415
:10184000361C70E060E0C4010E94501B98878F83B3
:101850000E94851A9E838D836F817885611571053D
:1018600059F0C8010E94591D9A87898706EF1FEF1A
:10187000892B09F058CF59CF08EF1FEF56CF08EF4B
:101880001FEFD0CF20916F03222319F020E00C949A
:10189000F11487EF9FEF089580916D0390916E038F
:1018A00008950E9475190E94CF18F5D0E1E6F3E083
:1018B00088E0DF011D928A95E9F710926F0390E0AE
:1018C00080E008950C942D1721E040E050E0BA012B
:1018D0000C94F11486E090E0FA019183808390E00B
:1018E00080E0089547E050E064E372E049CEDF9283
:1018F000EF92FF920F931F93CF93DF938A01EC0136
:10190000C60FD71FE0907303F0907403D9800E9434
:101910009F1BD816190678F082E090E0F8019183B9
:1019200080838EEF9FEFDF91CF911F910F91FF90FA
:10193000EF90DF900895EF2841F482E090E0F80105
:101940009183808384EF9FEFEECF89818093720330
:1019500090E00196F8019183808390E080E0E3CFEE
:10196000CF93DF93EA010E94DE17882321F00E94C3
:10197000AC1B0E94DF1782E090E0998388838BEF95
:101980009FEFDF91CF910895CF93DF93EB0186E036
:10199000FB0111928A95E9F78FEF8883D8DD89835F
:1019A000E7DD8A83E8DD9D838C83DF91CF91089505
:1019B000CF93DF93EA010E94E117811109C082E011
:1019C00090E09983888385EF9FEFDF91CF91089511
:1019D00090E080E0B7DD81E090E09983888390E03B
:1019E00080E0F3CF0F931F93CF93DF93EA018C0135
:1019F000060F171F0E94E11781110BC082E090E0D3
:101A00009983888385EF9FEFDF91CF911F910F918D
:101A10000895F8018181823038F082E090E0998366
:101A200088838EEF9FEFF0CF81E090E08BDD88E040
:101A300090E09983888390E080E0E6CFCF93DF93B6
:101A40000097D1F4EB01FB01329686E0DF011D9295
:101A50008A95E9F78FEF888385E089831A820E944F
:101A60009F1B8B830E949E1B9D838C8381E08E83B2
:101A70008F83DF91CF910895DF91CF911ACD82E7C7
:101A80009CE090937103809370030895809170039C
:101A9000909171030895109271031092700308954C
:101AA00080917303909174030895411105C06115ED
:101AB00071058105910561F0609373037093740360
:101AC00080937503909376034093770381E00895A4
:101AD00080E00895FF920F931F93CF93DF938A01C5
:101AE000EC01C60FD71FF9800E949F1BF81619063C
:101AF00068F082E090E0F801918380838EEF9FEFA1
:101B0000DF91CF911F910F91FF9008956C817D819E
:101B10008E819F814B81C9DF811108C082E090E0F6
:101B2000F8019183808384EF9FEFEACF89818093CE
:101B3000720390E00196F8019183808390E080E049
:101B4000DFCFCF93DF93EA01FC01E60FF71F64813B
:101B50007581868197814381A8DF811109C082E068
:101B600090E09983888384EF9FEFDF91CF91089570
:101B700081E090E09983888390E080E0F6CFE3E70E
:101B8000F3E04081518162817381480F511D611DD5
:101B9000711D40835183628373830895CF93C091F5
:101BA00072034C2F50E0609173037091740301969F
:101BB0000E94A72A8C2FE3DF10927203CF91089521
:101BC000009799F480917303909174032FEFFB01B8
:101BD0002083892B59F02091720330E02F5F3F4F13
:101BE0002417350719F4CB01D9CF63CC089500979A
:101BF00099F480917303909174032FEFFB0120837C
:101C0000892B59F02091720330E02F5F3F4F24174A
:101C1000350719F4CB01C2CF4CCC089523E1AC01B8
:101C2000249FC001259F900D1124E0917C03F09129
:101C30007D03E80FF91F238134812250310981E0AF
:101C40002230310508F080E008950F931F93CF9361
:101C5000DF9300917E0310917F03D0E0C0E080E02D
:101C60000C171D0749F491E0811190E0892FDF9155
:101C7000CF911F910F9108958111F5CFCE01CEDF45
:101C80002196EECFA0917C03B0917D03109729F1AE
:101C900020917E0330917F0382179307F0F453E184
:101CA000589F9001599F300D1124A20FB31FED9141
:101CB000FC911197309789F012968C91681768F40F
:101CC0008DE0689FE00DF11D112480819181892BA9
:101CD00021F081E09281491708F080E008959C018D
:101CE00043E1429FC001439F900D1124E0917C038A
:101CF000F0917D03E80FF91F8385823091F481E034
:101D000090E06581768140911D0250911E0264171A
:101D1000750711F490E080E0892B19F081E0232B06
:101D200009F080E00895FC01A081B1818DE0689FF9
:101D3000A00DB11D112413964D915C91858596855A
:101D4000489F9001499F300D589F300D1124C901C3
:101D50000196611103C0478144FD04960895EF92F6
:101D6000FF920F931F93CF93DF93EA01FC01E60FDD
:101D7000F71F02811381E480F5804F2D6E2DC8017D
:101D800081DF81110DC082E090E0998388838EEF1E
:101D90009FEFDF91CF911F910F91FF90EF900895EA
:101DA000C8013CDF882339F082E090E09983888382
:101DB00088EF9FEFEECF1093240200932302E0926E
:101DC0002502F092260281E090E09983888390E0DA
:101DD00080E0DFCFCF92DF92EF92FF920F931F93BD
:101DE000CF93DF937A01EC01C60FD71FC090230277
:101DF000D09024020091250210912602412F602FDD
:101E0000C60140DF811110C082E090E0F7019183AC
:101E100080838AEF9FEFDF91CF911F910F91FF9009
:101E2000EF90DF90CF900895C601F8DE882341F04F
:101E300082E090E0F7019183808388EF9FEFEBCF02
:101E40004C815D816E817F819A8189818F3F41F0D4
:101E500082E090E0F701918380838EEF9FEFDBCFEC
:101E6000E3E1EC9D9001ED9D300D1124E0917C03A8
:101E7000F0917D03E20FF31F0190F081E02D2DE042
:101E8000029FE00DF11D11240190F081E02D27E06B
:101E9000129FE00DF11D1124808391838B81828339
:101EA00043835483658376831F5F1093260281E00A
:101EB00090E0F7019183808390E080E0ACCFEF92D7
:101EC000FF920F931F93CF93DF937A018C01060F3C
:101ED000171FC0917C03D0917D03209781F021E0F2
:101EE00030E0F8018281938140917E0350917F031D
:101EF0008417950710F030E020E0232B71F482E086
:101F000090E0F701918380838EEF9FEFDF91CF9177
:101F10001F910F91FF90EF90089543E1489F90012A
:101F2000499F300D1124C20FD31F78DE882341F062
:101F300082E090E0F7019183808388EF9FEFE6CF06
:101F4000F8012481358120383105C8F68781811157
:101F5000D6CF4181842F90E08F7E009741F082E0C0
:101F600090E0F7019183808386EF9FEFCFCF4F837F
:101F70003E832D83268128871986223010F421E0A4
:101F8000288721E030E0F70131832083BFCF88E04C
:101F900090E0FA019183808390E080E00895FB0156
:101FA0008FEF808381E181838FEF9FEF9383828323
:101FB00080E890E095838483168217820895FB0160
:101FC0008FEF808391E0918382839383848384E382
:101FD000858381E090E0978386830895DF92EF9276
:101FE000FF920F931F93CF93DF93EA01FC01E60F5B
:101FF000F71F8181813071F082E090E099838883BE
:102000008FEF9FEFDF91CF911F910F91FF90EF9096
:10201000DF90089582819381D4802581E680F780C6
:1020200000917C0310917D030115110539F482E0C4
:1020300090E0998388838CEF9FEFE4CF40917E03FB
:1020400050917F038417950738F082E090E09983E0
:1020500088838EEF9FEFD6CF892B39F082E090E016
:102060009983888386EF9FEFCDCF8D2D8D7FB1F73C
:102070002130A1F781E0D11006C091E0E916F1040A
:1020800031F080E004C0E2E0EE16F104D0F38823E2
:1020900029F390E080E0C2DD882339F082E090E00F
:1020A0009983888388EF9FEFADCFF801D38681E0D5
:1020B0008487F686E586108A178681E090E099830A
:1020C000888390E080E09ECF4CE050E06EE572E0C7
:1020D00057CA8F929F92BF92CF92DF92EF92FF9258
:1020E0000F931F93CF93DF93EA01FC01E60FF71FD5
:1020F000828193810481B580E0917C03F0917D031E
:10210000309791F482E090E0998388838CEF9FEF81
:10211000DF91CF911F910F91FF90EF90DF90CF90C3
:10212000BF909F908F90089520917E0330917F0300
:102130008217930738F082E090E0998388838EEFCE
:102140009FEFE6CF23E1289F6001299FD00C112447
:10215000EC0DFD1DE080F180E114F10499F2828123
:10216000081748F78DE0089F80011124E00EF11E4A
:10217000F70180819181892B29F6BB20E1F2F7E0FC
:10218000BF9E40011124C4010E94331CF7019183BA
:102190008083E0917C03F0917D03EC0DFD1D0190A7
:1021A000F081E02DE00FF11F80819181009739F4DB
:1021B00082E090E0998388838DEF9FEFA9CFA401FF
:1021C00070E060E00E94B02A80917C0390917D03D2
:1021D000C80ED91EF60180819181080F191FF801E0
:1021E000B28281E090E09983888390E080E090CF94
:1021F000AF92BF92CF92DF92FF920F931F93CF9334
:10220000DF93EA01FC01E60FF71F82819381F480DE
:1022100000917C0310917D030115110581F482E08A
:1022200090E0998388838CEF9FEFDF91CF911F918E
:102230000F91FF90DF90CF90BF90AF9008952091C5
:102240007E0330917F038217930738F082E090E09D
:10225000998388838EEF9FEFE8CF2FEF2F0D2C3FD0
:10226000A8F723E1289F6001299FD00C11240C0DB1
:102270001D1DF80180819181892B89F6FDE0FF9E6B
:1022800050011124C5010E94331CF8019183808301
:10229000E0917C03F0917D03EC0DFD1D8081918127
:1022A000009739F482E090E0998388838DEF9FEF67
:1022B000BCCFA50170E060E00E94B02AE0917C03F1
:1022C000F0917D03EC0DFD1DF28281E090E0998399
:1022D000888390E080E0A9CFCF92DF92EF92FF92C7
:1022E0000F931F93CF93DF93860F971FFC010281FB
:1022F000138180917C0390917D03892B81F082E092
:1023000090E0FA01918380838CEF9FEFDF91CF9172
:102310001F910F91FF90EF90DF90CF900895C8012B
:10232000B0E0A0E00197A109B1098F3F9F4FA1053F
:10233000B10540F082E090E0FA01918380838EEF56
:102340009FEFE4CF7A0183E1809F6001819FD00CF1
:102350001124C6010E94331CEC01009741F482E075
:1023600090E0F701918380838DEF9FEFCFCFA6019F
:1023700070E060E00E94B02AD0937D03C0937C039C
:1023800010937F0300937E0390E080E02FEF3FEFF8
:1023900041E061E070E08017910741F481E090E056
:1023A000F7019183808390E080E0B0CF3A8B298B56
:1023B0001B864C877E876D87188A1F8601966396D9
:1023C000EACFEF92FF921F93CF93DF93EC0110E0DF
:1023D000F12CE12C6A811617B0F083E0689FB00100
:1023E0001124AE014F5E5F4FC7010E94601C009731
:1023F00021F02FEF3FEF3A8B298BDF91CF911F9187
:10240000FF90EF900895612FCE018DDC61E070E0C8
:102410000E94501BE816F90608F47C011F5FDACF12
:10242000F89420917A0330917B0381E021153105E6
:1024300009F080E0232B09F0789408952F923F92C1
:102440004F925F926F927F928F929F92AF92BF92C4
:10245000CF92DF92EF92FF920F931F93CF93DF9370
:102460003C01660E771EF301828193814C01B12CF1
:10247000A12CC0917C03D0917D03209769F021E0CD
:1024800030E060917E0370917F038617970710F00C
:1024900030E020E0232BD1F482E090E0FA01918338
:1024A00080838EEF9FEFDF91CF911F910F91FF906F
:1024B000EF90DF90CF90BF90AF909F908F907F90E4
:1024C0006F905F904F903F902F90089580922702D9
:1024D00090922802A0922902B0922A0263E1689F9A
:1024E0009001699F300D1124C20FD31FF301818128
:1024F000833040F082E090E0FA019183808386EFA0
:102500009FEFD1CF2A012B813C81232BF1F428812D
:1025100039819F8191FF2EC0232B09F46FC0209138
:1025200081039A81422F490F5527551FBA0141E077
:1025300050E06138710514F050E040E0452B09F49B
:102540005DC02A87920F909381038150823008F4F6
:1025500081C066DF882309F4D8C0F301818181300E
:1025600009F48DC008F47BC0823009F4C6C090E045
:1025700080E0ADC0232B09F441C0209180039A81F3
:10258000E22FE90FFF27FF1F41E050E0ED3FF1058B
:1025900014F050E040E0452B89F12A87920F909388
:1025A0008003D3CFA081B181A20FB31F11966C918C
:1025B000060F111D0196295F3F4F8417950794F36D
:1025C0008D859E85089F1001099F300C189F300C47
:1025D0001124C114D104D1F48F8184FF17C00E944B
:1025E0009E1BF5E02F0E311C21E08215930508F4A7
:1025F00020E0A701435F5F4F21110EC082E090E011
:10260000F2019183808387EF9FEF4DCF0E949E1B45
:102610002FEF221A320AE8CF88819981E80EF91E3D
:10262000F70114830383FFEFCF1ADF0A7A018A814F
:102630008C151D0409F00CF48CCFE881F981EE0DA6
:10264000FF1D428150E030E020E010E000E090E02B
:1026500080E0B3CFF12CE12CD12CC12CE8CF81E06C
:1026600090E09C838B83F1DA882309F480CF81E0AA
:1026700090E00E94A20A80E40E94B00A78CF898983
:102680009A89019661F083E090E09C838B8382E0DD
:1026900090E00E94A20A80E40E94AA0A68CF8D817D
:1026A0009E8120911D0230911E0282179307D1F462
:1026B0006091210270912202AE014F5E5F4F8091C6
:1026C0001F02909120020E94181D0097E1F2789459
:1026D00022E030E0F20131832083892B99F08DEFE5
:1026E0009FEFE1CE89288A288B2869F6892B59F635
:1026F000CE0167DE188A1F86E8CF82E090E09C83D7
:102700008B8335CF90E080E0CECE82E090E0F20186
:102710009183808385EF9FEFC6CE8F929F92AF9279
:10272000BF92CF92DF92EF92FF920F931F93CF93BE
:10273000DF93EA018C01060F171FF80181818330B6
:1027400098F082E090E09983888386EF9FEFDF9195
:10275000CF911F910F91FF90EF90DF90CF90BF909E
:10276000AF909F908F90089580917C0390917D030E
:10277000892B61F081E090E020917E0330917F030E
:10278000232B11F490E080E0892B39F482E090E073
:10279000998388838EEF9FEFDACF42DE882309F496
:1027A000DFC0F8018181813009F495C0E8F0823002
:1027B00099F420917E0330917F03E0917C03F091A6
:1027C0007D0390E080E041E050E02817390709F0F0
:1027D000BDC03BDA811117C0789481E090E0998305
:1027E000888390E080E0B3CF20917E0330917F0317
:1027F000E0917C03F0917D0390E080E041E050E0C7
:102800002817390741F481E090E00E94A20A80E491
:102810000E94B00AE1CF63817481672B11F0548369
:10282000438301967396ECCFE0917C03F0917D0396
:10283000E00FF11F2381348122303105D9F4218941
:1028400032892F3F3F4FB1F42581368140911D02DF
:1028500050911E022417350761F5AF014F5E5F4F9F
:10286000609121027091220280911F0290912002BA
:102870000E94181DEFEFCE1ADE0AEE0AFE0A0D5E68
:102880001F4F40917E0350917F0370E060E0C416BB
:10289000D506E606F7063CF5009731F27894892BC9
:1028A00009F49BCF82E090E0998388838DEF9FEFBE
:1028B0004ECFC114D104E104F104E1F6232BD1F68B
:1028C000CF017FDDE0917C03F0917D03E00FF11FEC
:1028D000108A1786CFCF10E000E090E080E0C12C96
:1028E000D12C7601CECF0097C9F610E000E0812C04
:1028F000912C540183E0E82EF12C1AC0E0917C0366
:10290000F0917D03E00FF11F83819481029749F4D8
:10291000F482E38282E090E00E94A20A80E40E94B6
:10292000AA0AFFEF8F1A9F0AAF0ABF0A0D5E1F4F58
:1029300080917E0390917F03B0E0A0E08816990615
:10294000AA06BB06DCF290E080E0A8CF6381748128
:102950006230710511F4548343830196739635CF29
:1029600082E090E09983888385EF9FEFF0CE009717
:10297000B9F48FEFFB018083209127023091280268
:1029800043E1429FC001439F900D1124E0917C03DD
:10299000F0917D03E80FF91F8285FB018183089583
:1029A0000C94590A88E090E0FA019183808390E0CA
:1029B00080E0089510927B0310927A03ECE7F3E035
:1029C00086E0DF011D928A95E9F784E690E1909315
:1029D0007903809378030895809178039091790327
:1029E00008952F923F924F925F926F927F928F92B3
:1029F0009F92AF92BF92CF92DF92EF92FF920F938E
:102A00001F93CF93DF93CDB7DEB72F970FB6F89410
:102A1000DEBF0FBECDBFF894E0917A03F0917B0347
:102A20003196F0937B03E0937A03789440907C0393
:102A300050907D034114510409F40CC2E0917E03CF
:102A4000F0917F03EF2B09F405C22D8749875A8740
:102A50006B877C8798878F831201B12CA12C10E0A3
:102A600000E080917E0390917F03A816B90618F4C8
:102A70000115110529F1F89480917A0390917B0357
:102A8000019790937B0380937A037894C8012F96E3
:102A90000FB6F894DEBF0FBECDBFDF91CF911F916F
:102AA0000F91FF90EF90DF90CF90BF90AF909F90ED
:102AB0008F907F906F905F904F903F902F900895F0
:102AC0007101E418F508D10117968C91179781FDD3
:102AD00054C013968D919C911497039709F04DC0A3
:102AE00015968D919C91EF81F8858E179F0709F0BF
:102AF00044C0B50190E080E07FD48A8320917C03BC
:102B000030917D033D832C833D85332309F44CC0F4
:102B10004C815D81452B09F49AC180917E0390918F
:102B20007F03A816B90608F092C1C501D8D888233A
:102B3000E9F06C817D816E0D7F1D7D836C83DB01EF
:102B40001F968D919C91892B89F0D12CC12CF12C51
:102B5000E12CAC81BD8112968C9112978E151F04C9
:102B600009F094F450961C921E921F972A812223FA
:102B700021F0B50190E080E041D43FEFA31AB30A01
:102B800043E1240E311C6DCFAC81BD81ED91FC91F0
:102B9000EC0DFD1D8581968169D6BFEFEB1AFB0A0E
:102BA000EDE0CE0ED11CD5CFEC81FD81309709F43C
:102BB0004EC180917E0390917F03A816B90608F05C
:102BC00046C1EE0DFF1DFF87EE87C50188D88B83B8
:102BD000882339F1AE85BF851F968D919C915097C2
:102BE000019621E01D964D915C918417950709F09F
:102BF00020E02E831982712C10E000E0AE85BF85A5
:102C000012968C91781608F45DC0EE85FF85878555
:102C100090890196658576850E94502A908B8787DA
:102C2000A5CFB1E0BE83E6CF992493946BC01BD6A9
:102C3000F6019683858382C0D601ED90FC90B7E0C3
:102C40006B9EE00CF11C1124F7016381748180817B
:102C50008F3F61F121E030E002C0220F331F8A95DF
:102C6000E2F7C901092E000CAA0BBB0BFB01408146
:102C700051816281738184239523A623B72321E0A8
:102C8000892B8A2B8B2B09F420E0D4012C93D701BC
:102C900011968C91F60123853485820F932F911D17
:102CA000880E991E1486138663949BC0418150E060
:102CB000C4010E94A72AEBCF998206EF1FEFC5C07F
:102CC0001982C3C0F981F111A0CFEDE07E9E7001A1
:102CD0001124AE85BF85CD90DC90CE0CDF1C15D4C1
:102CE0009D838C83BB81BB2309F49ECF81E0EE855D
:102CF000FF8527853089232B09F080E0982E8823D3
:102D000009F458C0672D8E859F850DD8D601189679
:102D10009C938E93179761E070E0C2D4EE85FF8597
:102D2000218932892F3F320709F481CFBC01C901C3
:102D3000C0D6D60116969C938E931597D6011596FC
:102D40008D919C911697009709F4B6CFEC81FD8187
:102D50008E0F9F1F1A969C938E931997AE85BF85F1
:102D6000ED91FC911197EE0EFF1EF7012185328542
:102D7000148613861A968C91870DD9018D93711044
:102D800016C0EE85FF85878184FF11C049855A856D
:102D90006B857C85F9014183528363837483F701DA
:102DA000838594850496A80FB91F14861386F701AE
:102DB000B287A187D60115968D919C911697892B84
:102DC00009F443C0EE85FF852581368180911D027F
:102DD00090911E022817390779F019968D909C90D2
:102DE000612CD60112968C911297681608F424CFA4
:102DF0001A969C928E921997BE81BB2309F460CFDC
:102E000061E070E0F601878190854AD4D60117967B
:102E1000ED90FC90189715964D915C91E1E0F0E0F3
:102E2000BA81BB2311F0F0E0E0E00C811D819C0130
:102E3000B501882799278E1B9F0B6AD38C01892B9C
:102E400021F0F6018581968111D57394D7CE0FEFCD
:102E50001FEF8CCE10E000E00ECE2F923F924F92EB
:102E60005F926F927F928F929F92AF92BF92CF921A
:102E7000DF92EF92FF920F931F93CF93DF93809196
:102E80007C0390917D0310E000E0892BA9F0C8DA63
:102E90000AEF1FEF882381F020907E0330907F039C
:102EA000C0917C03D0917D03D12CC12C10E000E0B7
:102EB0002C143D04A9F47894C801DF91CF911F919F
:102EC0000F91FF90EF90DF90CF90BF90AF909F90C9
:102ED0008F907F906F905F904F903F902F900895CC
:102EE000C6010E946F0E882309F18B819C81039794
:102EF000E9F48F859889892BC9F0B60190E080E0CC
:102F00007BD221E030E0882311F030E020E044243F
:102F10005524421A530AB12CA12C912C812C8A8160
:102F20008815190409F038F4188A1F864FEFC41A5F
:102F3000D40A6396BDCFE881F981EA0DFB1D858136
:102F40009681892BA1F161E070E087819085A8D3FB
:102F50003C01DBD28C01E881F981EA0DFB1D818502
:102F6000928525813681200F311FAC01421B530B06
:102F70009A0147815085421B530B70E060E00E942C
:102F8000B02AE881F981EA0DFB1DE780F0844581D4
:102F900056819301B601C201BBD28C01892B39F055
:102FA000E881F981EA0DFB1D858196815FD45FEF91
:102FB000851A950A8DE0A80EB11CB1CF31CA78945C
:102FC00008952F923F924F925F926F927F929F92BD
:102FD000AF92BF92CF92DF92EF92FF920F931F9327
:102FE000CF93DF9300D000D0CDB7DEB700917C0344
:102FF00010917D03992493940115110509F43EC0A5
:10300000A0907E03B0907F030BDA982E8823B1F155
:1030100010927D0310927C0310927F0310927E0326
:1030200010928003109281038FEF9FEFDC01809359
:10303000270290932802A0932902B0932A02789441
:103040007FD31E830D83C12CD12C7601C501B0E046
:10305000A0E089839A83AB83BC8322242A94322CF8
:1030600089819A81AB81BC81C816D906EA06FB0624
:10307000F4F0C801FBD380E40E94B00A892D2696A3
:103080000FB6F894DEBF0FBECDBFDF91CF911F9179
:103090000F91FF90EF90DF90CF90BF90AF909F90F7
:1030A0007F906F905F904F903F902F900895AD81EB
:1030B000BE8115968D919C91169720911D0230919D
:1030C0001E0282179307D1F451968D919C91DFD403
:1030D000ED81FE8180819181B12CA12C412C512C5C
:1030E0003201892B89F5BFEFCB1ADB0AEB0AFB0A09
:1030F000ED81FE817396FE83ED83B2CFC114D104BE
:10310000E104F10429F7892B19F7ED81FE8181890A
:1031100092898F3F980709F05CD4AD81BE815296A9
:103120003C922E925197D4CF8A0D9B1DDC018D913C
:103130009C91009709F09AD3BFEF4B1A5B0A6B0A78
:103140007B0AEDE0AE0EB11CAD81BE818D919C91EC
:10315000119712964C9150E070E060E044165506CD
:10316000660677060CF382D3BECFCF93DF93EA01D6
:1031700028DF811109C082E090E09983888385EF80
:103180009FEFDF91CF91089581E090E00E94A20A25
:1031900081E090E09983888390E080E0F2CF11DFB6
:1031A0001092790310927803089542E050E066EAA5
:1031B00072E00C94C00AFF920F931F93CF93DF939A
:1031C0008A01EC01C60FD71FF980B9D20897F8160B
:1031D000190671F068F082E090E0F8019183808335
:1031E0008EEF9FEFDF91CF911F910F91FF90089588
:1031F0006C817D818E819F814B810E94550D811153
:1032000008C082E090E0F8019183808384EF9FEF13
:10321000E9CFF9800E94500D4F2D50E0BE01685F4C
:103220007F4F0E94A72A89810E94BF0D81E090E014
:10323000F8019183808390E080E0D4CFDF92EF9219
:10324000FF920F931F93CF93DF938A01EC01C60F78
:10325000D71F0E94500D7C01D98071D2DD2059F01A
:10326000029721E030E0D816190619F010F030E08E
:1032700020E0232B79F482E090E0F80191838083B1
:103280008EEF9FEFDF91CF911F910F91FF90EF9005
:10329000DF900895EF2841F482E090E0F8019183F7
:1032A000808384EF9FEFEECFF9800E94500D4F2D69
:1032B00050E0BE016E5F7F4F0E94A72A89810E9465
:1032C000BF0D81E090E0F8019183808390E080E081
:1032D000D9CF85ED98E1909383038093820308957D
:1032E000809182039091830308950895FC011182D7
:1032F0001082938382830895DB011D921C92DC016E
:103300001296ED91FC9113977183608313967C93D1
:103310006E9312970895FC0180819181DB018D935A
:103320009C93A081B181109741F08D919C919183E4
:103330008083892B11F4F383E2830895FC0180815B
:103340009181DB018D939C93892B11F473836283AC
:10335000718360830895FC011182108293838283BC
:103360000895CF93DF931F921F92CDB7DEB71A82D5
:103370001982F894BE016F5F7F4F89E893E0CBDF3D
:1033800089819A81009709F071D289819A81892B6C
:1033900089F7BE016F5F7F4F8DE893E0BCDF8981C5
:1033A0009A81009709F062D289819A81892B89F7E5
:1033B00078940F900F90DF91CF910895CF93DF9382
:1033C0001F921F92CDB7DEB71A821982F894BE0100
:1033D0006F5F7F4F85E893E09EDF89819A81009738
:1033E00009F044D289819A81892B89F778940F90CA
:1033F0000F90DF91CF91089581E0089590E080E0F3
:103400000895EF92FF920F931F93CF93DF931F9234
:103410001F92CDB7DEB71A8219828091840307EF1D
:103420001FEF8823A1F1F894BE016F5F7F4F8DE8F5
:1034300093E071DF789489819A81EE24E394F12CF2
:10344000892B51F4F894BE016F5F7F4F89E893E0B8
:1034500062DF7894F12CE12C89819A810EEF1FEFC5
:103460000097A9F0FC014281538164E070E011D51E
:103470008C01892B61F0F89469817A81C701880FEA
:10348000991F880F991F87579C4F58DF7894C80160
:103490000F900F90DF91CF911F910F91FF90EF90C0
:1034A00008950F931F93CF93DF9300D01F92CDB752
:1034B000DEB71C821B821A8219828091840307EF77
:1034C0001FEF8823C1F0AE014D5F5F4F64E070E0F5
:1034D000CE01019651D58C01892B69F4E981FA81DD
:1034E0008B819C8193838283F89469817A8185E8BA
:1034F00093E002DF7894C8010F900F900F900F9027
:10350000DF91CF911F910F91089556D6049608959B
:103510008F929F92AF92BF92CF92DF92EF92FF92E3
:103520000F931F93CF93DF931F921F92CDB7DEB7F8
:103530001A821982BC016F5F7F4F6330710598F06A
:10354000AA24AA94BA2CC5010F900F90DF91CF91B5
:103550001F910F91FF90EF90DF90CF90BF90AF90B1
:103560009F908F9008954115510551F348015901DD
:103570008A016C01CADF8815990511F7E114F1047D
:10358000F9F28E0D9F1DA816B906D0F28091840322
:103590008823F1F0F894B501645071099701AE01E8
:1035A0004F5F5F4FC80104967CD55C01892B71F495
:1035B00089819A81F80193838283C601880F991FBC
:1035C000880F991FB80187579C4F96DE7894BBCF20
:1035D00087EFA82EBB24BA94B6CFAF92BF92CF92FA
:1035E000DF92EF92FF920F931F93CF93DF931F927F
:1035F0001F92CDB7DEB71A821982892B09F047C016
:103600006115710509F443C04115510509F43FC026
:103610002115310509F43BC001151105C1F1809157
:1036200084038823B9F179016A015B01F894BE0132
:103630006F5F7F4F85E893E06EDE789489819A8191
:10364000009759F1DC0112966D917C91A8010496C6
:1036500041D58C01E981FA81D501ED93FC938281FA
:1036600093810496F601918380834FDFD7018D9378
:103670009C93C8010F900F90DF91CF911F910F91F4
:10368000FF90EF90DF90CF90BF90AF9008950FEF35
:103690001FEFEFCF07EF1FEFECCF0EEF1FEFE9CFDC
:1036A000CF93DF93EC01672B71F48FD58C179D07B7
:1036B00060F082D52496C80FD91F81D58C0F9D1F2D
:1036C000DF91CF9108957ED5F1CF90E080E0F8CFE3
:1036D0000F931F93CF93DF932091840321112BC06D
:1036E0008B01EC0189E893E001DE8DE893E0FEDDDB
:1036F00085E893E0FBDD97D00097C1F466D570E0D4
:1037000060E0CEDF4BE252E062E070E0D9D000979B
:1037100069F480912B0290912C0269D5B801CE01F9
:103720009ED3009719F421E020938403DF91CF9179
:103730001F910F91089584EF9FEFF8CF43C545C5C2
:10374000CF93DF9345D5EC01892B11F40ADE36DEE9
:10375000CE01DF91CF910895CF93DF9339D5EC015E
:10376000892B09F4FEDDCE01DF91CF910895809180
:103770002B0290912C020895CF93DF9380918403C4
:10378000D0E0C0E08823D1F037D5EC01892BB1F42B
:10379000E8DD14DE80912B0290912C021AD1CED15B
:1037A000EC01892B59F489E893E0D5DD8DE893E0AD
:1037B000D2DD85E893E0CFDD10928403CE01DF9166
:1037C000CF910895EF92FF920F931F93CF93DF93C2
:1037D000EC017A018B010F5F1F4F0E9DA0010F9D21
:1037E000500D1E9D500D112470E060E00E94B02A23
:1037F00090E080E0F0E0E0E02FEFE816F90639F421
:10380000DF91CF911F910F91FF90EF9008951A8251
:1038100019822883309711F0D283C1830196FE016B
:10382000C00FD11FEACFE3E9F3E085E8DF011D9285
:103830008A95E9F71092920310929103EFE1F4E078
:1038400011821082158214821382128217821682CC
:1038500011861086EBE1F4E011821082138212824D
:1038600090E080E0089590E080E00895009739F1BD
:10387000DC018E91813041F4E0911D04F0911E0431
:103880003097E9F0CD011994811119C0F8948FEFA8
:103890008C9380911F049091200412969C938E9398
:1038A0001197B0932004A0931F048091210490915C
:1038B0002204019690932204809321047894089521
:1038C000EF92FF920F931F93CF93DF934115510512
:1038D00009F47CC0009709F479C06115710509F4F9
:1038E00075C0EA01AB01BC01F89480911F0490916E
:1038F0002004892B19F586E993E08C7F6D5F7F4F5B
:103900006C7F9B012F5F3F4F249F8001259F100DEF
:10391000349F100D11242091270430912804211583
:10392000310509F03CC0E0909103F090920322E849
:1039300030E02E193F092017310730F478942FEF2B
:103940003FEF86EF9FEF22C09093200480931F04E7
:103950005093240440932304509322044093210461
:103960007093260460932504109328040093270481
:10397000009709F027DF0E0D1F1D1093920300938F
:103980009103789430E020E090E080E03983288350
:10399000DF91CF911F910F91FF90EF900895201725
:1039A000310760F29093200480931F045093240405
:1039B00040932304509322044093210470932604DF
:1039C000609325040097E9F2FDDEDBCF8FEF9FEFD8
:1039D000DFCF892B51F5F8941092200410921F0428
:1039E00010922404109223041092220410922104B5
:1039F0001092260410922504209127043091280467
:103A00002115310571F08091910390919203821BF1
:103A1000930B909392038093910310922804109239
:103A20002704789490E080E008958FEF9FEF089549
:103A30004115510549F1009739F16115710521F1E1
:103A4000F89420911B0430911C04232BB9F420918D
:103A50001D0430911E04232B89F490931C04809341
:103A60001B0470931E0460931D04789421E030E0E1
:103A700090E080E0FA0131832083089578942FEF5D
:103A80003FEF86EF9FEFF6CF8FEF9FEF08950197FF
:103A900069F4F89410921C0410921B0410921E04F6
:103AA00010921D04789490E080E008958FEF9FEFCE
:103AB00008956115710519F4F0E0E0E011C081305E
:103AC000910581F4E0911B04F0911C043097A1F35F
:103AD000CB0101961995009779F3FC0181E0819360
:103AE000CF010895892B41F780911F049091200404
:103AF000892B11F38091250490912604861797074E
:103B0000D8F2F8948091210490912204009731F02A
:103B1000E0911F04F0912004309711F47894CCCFF9
:103B2000218132813093200420931F0401979093C8
:103B300022048093210411927894D2CFE8E1F4E03A
:103B400083E0DF011D928A95E9F7E3E9F3E085E878
:103B5000DF011D928A95E9F710929203109291036A
:103B6000EFE1F4E08AE0DF011D928A95E9F7EBE1ED
:103B7000F4E084E0DF011D928A95E9F790E080E0AF
:103B80000895CF93DF93C0912D02D0912E02CF3FA5
:103B9000DC0759F4DAD390932E0280932D0297FF1D
:103BA00009C0D0932E02C0932D0284EF9FEFDF91C6
:103BB000CF91089590E080E0FACF8230910528F40B
:103BC0008093290490E080E008958FEF9FEF08959F
:103BD0004F925F926F927F92AF92BF92CF92DF929D
:103BE000EF92FF920F931F93CF93DF931F921F9239
:103BF000CDB7DEB71A821982009709F478C0611533
:103C0000710509F474C020912D0230912E0207EF46
:103C10001FEF2F3F3F4F09F444C06B015C01412C63
:103C2000512C3201F12CE12C10E000E09E012F5FBD
:103C30003F4FA6014E195F09B5016E0D7F1D8091A2
:103C40002D0290912E02E0D3892B09F04AC0898180
:103C50009A81009741F4E114F10429F42091290498
:103C6000222309F441C0E80EF91EEC14FD04C8F447
:103C700080E8481684E858068EE16806710418F555
:103C800060E070E0CB010ED72AE0420E511C611CAF
:103C9000711C0A3F4FEF140721F0043F8FEF180704
:103CA000A1F4C8010F900F90DF91CF911F910F9158
:103CB000FF90EF90DF90CF90BF90AF907F906F908C
:103CC0005F904F90089501EF1FEF81E090E0013F7A
:103CD0002FEF120711F090E080E0892B09F4A6CFB6
:103CE000E0CF04EF1FEFDDCF0AEF1FEFDACF0FEFCA
:103CF0001FEFD7CF4F925F926F927F92AF92BF929A
:103D0000CF92DF92EF92FF920F931F93CF93DF93A7
:103D10001F921F92CDB7DEB71A821982009709F45D
:103D200078C06115710509F474C020912D0230919D
:103D30002E0207EF1FEF2F3F3F4F09F444C06B01E6
:103D40005C01412C512C3201F12CE12C10E000E0FF
:103D50009E012F5F3F4FA6014E195F09B5016E0D01
:103D60007F1D80912D0290912E0204D3892B09F0A2
:103D70004AC089819A81009741F4E114F10429F441
:103D800020912904222309F441C0E80EF91EEC1405
:103D9000FD04C8F480E4481682E458068FE0680603
:103DA000710418F560E070E0CB017CD62AE0420E89
:103DB000511C611C711C0E3F4FEF140721F0043F92
:103DC0008FEF1807A1F4C8010F900F90DF91CF91EA
:103DD0001F910F91FF90EF90DF90CF90BF90AF9029
:103DE0007F906F905F904F90089502EF1FEF81E0FA
:103DF00090E0023F2FEF120711F090E080E0892B56
:103E000009F4A6CFE0CF04EF1FEFDDCF0EEF1FEFD9
:103E1000DACF0FEF1FEFD7CF80912D0290912E02B6
:103E20008F3F980749F089D2892B49F48FEF9FEF94
:103E300090932E0280932D0290E080E0089584EF0D
:103E40009FEF0895FC01680F791F90E080E0E6176E
:103E5000F70709F408952191820F911DF8CF209161
:103E60002A04211113C08DDE009791F410923004C2
:103E700010922F0410922E0410922D0410922C04F4
:103E800010922B0421E020932A04089584EF9FEFE1
:103E90000895AF92BF92CF92DF92EF92FF920F936D
:103EA0001F93CF93DF93009709F460C0463051050C
:103EB00008F45CC020912A04C7EFDFEF222309F445
:103EC00049C08C01060F171FF801C080D180C114B2
:103ED000D10409F44EC096012A5F3F4F42175307A1
:103EE00008F447C07C0180912F04909130049383A3
:103EF0008283B6016C5F7F4F5801A60EB71EC801C2
:103F0000A1DFF5019183808364E070E0C80160DE89
:103F1000EC01892BF9F481E090E04FDEB601C80195
:103F2000049656DEEC01892B91F462E070E0C50145
:103F30004FDEEC01892B59F4C70198DC80912F04E6
:103F40009091300401969093300480932F0490E078
:103F500080E033DECE01DF91CF911F910F91FF9072
:103F6000EF90DF90CF90BF90AF900895CFEFDFEF4D
:103F7000F1CFC9EFDFEFEECF6F927F928F929F92DA
:103F8000AF92BF92CF92DF92EF92FF920F931F9367
:103F9000CF93DF9300D01F92CDB7DEB7009709F41F
:103FA0007AC04115510509F476C020912A0407EF23
:103FB0001FEF222309F44DC03A017B015C0164E04C
:103FC00070E0CE01019696DE8C01892B09F041C08C
:103FD00009811A810115110509F45AC0480186E0CA
:103FE000880E911CB701680D791D80912F02909168
:103FF00030025FDD6C01009709F450C0A70170E04A
:1040000060E00E94B02A89819A81AB81BC81EC0C6E
:10401000FD1CF70181939193A193B1937F0181E0FE
:1040200090E0CBDDB801C70165DE892B31F562E098
:1040300070E0C701800F911F5DDE8C01892BE9F4D0
:1040400090E080E0BADDF501D182C082F301918277
:104050008082C8010F900F900F900F90DF91CF9149
:104060001F910F91FF90EF90DF90CF90BF90AF9096
:104070009F908F907F906F90089590E080E09DDDFD
:10408000F50111821082F30111821082C601EEDB6C
:1040900009EF1FEFDECF0FEF1FEFDBCF06EF1FEFB4
:1040A000D8CF0097A1F04115510589F021153105B0
:1040B00071F0F90136966E177F0748F0DC012D93F9
:1040C0003C93DA01ED93FC9390E080E008958FEF4C
:1040D0009FEF0895AF92BF92CF92DF92EF92FF923F
:1040E0000F931F93CF93DF93009709F45FC041159F
:1040F000510509F45BC06530710508F457C0209183
:104100002A04C7EFDFEF222391F1DC01CD90DC9090
:1041100011971296ED91FC9196012A5F3F4FC9EFDE
:10412000DFEF2617370719F5C0912B04D0912C0427
:10413000209749F521E030E030932C0420932B04A4
:104140007A018C01F0932E04E0932D045601B4E023
:10415000AB0EB11CB50176DE0A0D1B1DF8012081E6
:1041600031818217930729F5D701CD92DC92CE01D8
:10417000DF91CF911F910F91FF90EF90DF90CF9043
:10418000BF90AF90089520912D0430912E042F5FA1
:104190003F4FCCEFDFEFE217F30790F2CBEFDFEF0B
:1041A0002E173F0768F2D0E0C0E0CACFCFEFDFEFB5
:1041B000DECFC3EFDFEFDBCF84E090E0089582E055
:1041C00090E008958CEF9FEF089580E290E00895CD
:1041D0001092300410922F0410922E0410922D048D
:1041E00010922C0410922B0490E080E0089590939C
:1041F000300280932F02089580912A04882391F041
:104200000BDE009789F41092300410922F04109264
:104210002E0410922D0410922C0410922B04109254
:104220002A04089590E080E00895009749F0611510
:10423000710531F0FC0111821082FB0111821082A4
:104240000895F3CF26E030E040E855E260E070E00A
:1042500090E080E000C08130910569F01CF4892B6A
:1042600039F008958230910549F0039751F008958F
:104270008EE394E048C68BED94E0FCCF88E795E0B0
:10428000F9CF85E196E0F6CF1F920F920FB60F920D
:1042900011240BB60F922F933F934F935F936F931D
:1042A0007F938F939F93AF93BF93EF93FF9387EF8A
:1042B00092EC9093250180932401BAD0FF91EF9165
:1042C000BF91AF919F918F917F916F915F914F912E
:1042D0003F912F910F900BBE0F900FBE0F901F902C
:1042E000189587EF92EC9093250180932401A3E722
:1042F000B0E08C918E7F8C93E0E2F1E080818C7F46
:104300008083E1E2F1E08081877E80838081846028
:10431000808380818C7F80838C9181608C930895D1
:10432000E3E7F0E0808190819E7F90838170089523
:1043300081E0089510923104089568EE73E080E002
:1043400090E0B0D390E080E0089526E030E040E0D7
:1043500050E16EE070E090E080E07DDF8EE394E07D
:1043600008D5892B21F08EE394E01DD5F7CF90E09E
:1043700080E00895CF92DF92EF92FF920F931F9308
:10438000CF93DF936B017A01E901198218828EE3E2
:1043900094E0EFD4892B69F18601CC24C39482E0A8
:1043A000D82E80913104811110C08EE394E0FBD4AB
:1043B0000297B9F7C0923104F801D1928F01888138
:1043C0009981019699838883ECCF888199818E1594
:1043D0009F0578F48EE394E0E6D48F3F9807A9F325
:1043E000F80181938F01888199810196998388834F
:1043F000ECCF90E080E0DF91CF911F910F91FF9083
:10440000EF90DF90CF9008950F931F93CF93DF939A
:10441000EA0189018EE394E00E94132AF801D18316
:10442000C08390E080E0DF91CF911F910F910895BC
:10443000CF92DF92EF92FF928091320491E0980F39
:1044400090933204882369F021E030E03093340403
:104450002093330480933204FF90EF90DF90CF904D
:1044600008957894E0913202F0913302C28CD38C9B
:10447000E48CF58C0E941203B701A60190E080E065
:104480000E943602F894809132048150E3CF0F935A
:104490001F93CF93DF931092C7061092C60638D3AE
:1044A000D1DEC0913202D0913302198218826FEFAF
:1044B0007FEFCB010E94B80270E060E090E080E006
:1044C0000E943A01009709F03AC00E94EB03F89469
:1044D0007894BE016E5D7F4F8A819B810E943D0171
:1044E000892B59F46FEF7FEFCB010E94CC010E9422
:1044F000B202882311F081E08EA3F894F2DE0E94CC
:10450000B502882311F080E008C00E94B202811138
:10451000FACF81E09EA19111F6CF8093C6067894E0
:104520000E949D0A8C0178948091C60681110CC06E
:104530000E9468040E949802F89490E080E0DF9165
:10454000CF911F910F9108950E9496020E94B5028B
:104550008823D9F081E08093C7069091C70681E057
:10456000911180E08093C6068091C7068111D8DE44
:104570000130110529F40E949D0A892B09F4DADE25
:104580000E949D0A8C01D4DECFCF0E94B20281111D
:10459000E1CF81E09EA19111DECF80E0DCCF5058C9
:1045A000BB27AA270ED057C148D130F04DD120F0FB
:1045B00031F49F3F11F41EF43DC10EF4E095E7FB8A
:1045C0000AC1E92F59D180F3BA176207730784072C
:1045D000950718F071F49EF588C10EF4E0950B2E46
:1045E000BA2FA02D0B01B90190010C01CA01A00145
:1045F0001124FF27591B99F0593F50F4503E68F1A0
:104600001A16F040A22F232F342F4427585FF3CFE0
:10461000469537952795A795F0405395C9F77EF4B1
:104620001F16BA0B620B730B840BBAF09150A1F0FA
:10463000FF0FBB1F661F771F881FC2F70EC0BA0F80
:10464000621F731F841F48F4879577956795B79508
:10465000F7959E3F08F0B3CF9395880F08F0992700
:10466000EE0F97958795089529D180F09F3740F4F4
:1046700091110EF43BC160E070E080E89FE3089583
:1046800026F01B16611D711D811DABC0C5C07FD0FA
:1046900008F481E00895F8D088F09F5790F0B92F82
:1046A0009927B751A0F0D1F0660F771F881F991F87
:1046B0001AF0BA95C9F712C0B13081F016D1B1E045
:1046C000089513C1672F782F8827B85F39F0B93F55
:1046D000CCF3869577956795B395D9F73EF4909589
:1046E0008095709561957F4F8F4F9F4F0895E89407
:1046F00009C097FB3EF490958095709561957F4F2A
:104700008F4F9F4F9923A9F0F92F96E9BB279395D7
:10471000F695879577956795B795F111F8CFFAF4E7
:10472000BB0F11F460FF1BC06F5F7F4F8F4F9F4F18
:1047300016C0882311F096E911C0772321F09EE876
:10474000872F762F05C0662371F096E8862F70E0DC
:1047500060E02AF09A95660F771F881FDAF7880FB6
:104760009695879597F90895A9D080F09F3740F4E2
:1047700091110EF0BBC060E070E080E89FEB0895FF
:1047800026F41B16611D711D811D2BC045C0990F9C
:104790000008550FAA0BE0E8FEEF16161706E8070B
:1047A000F907C0F012161306E407F50798F0621B2C
:1047B000730B840B950B39F40A2661F0232B242B01
:1047C000252B21F408950A2609F4A140A6958FEF20
:1047D000811D811D089597F99F6780E870E060E072
:1047E0000895882371F4772321F09850872B762F32
:1047F00007C0662311F499270DC09051862B70E0F5
:1048000060E02AF09A95660F771F881FDAF7880F05
:104810009695879597F908959F3F31F0915020F430
:10482000879577956795B795880F911D969587958C
:1048300097F908959FEF80EC089500240A941616C6
:10484000170618060906089500240A94121613067E
:10485000140605060895092E0394000C11F488230C
:1048600052F0BB0F40F4BF2B11F460FF04C06F5F28
:104870007F4F8F4F9F4F089557FD9058440F551FFE
:1048800059F05F3F71F04795880F97FB991F61F0D2
:104890009F3F79F087950895121613061406551F49
:1048A000F2CF4695F1DF08C0161617061806991FB5
:1048B000F1CF86957105610508940895E5DFA0F0B4
:1048C000BEE7B91788F4BB279F3860F41616B11DF0
:1048D000672F782F8827985FF7CF8695779567950C
:1048E000B11D93959639C8F30895E894BB276627C0
:1048F0007727CB0197F908954ADF08F48FEF0895E1
:104900000BD0A9CF9ADF28F09FDF18F0952309F08C
:1049100062CF90CF1124EACFAFDFA0F3959FD1F300
:10492000950F50E0551F629FF001729FBB27F00D5D
:10493000B11D639FAA27F00DB11DAA1F649F6627B2
:10494000B00DA11D661F829F2227B00DA11D621F01
:10495000739FB00DA11D621F839FA00D611D221FBB
:10496000749F3327A00D611D231F849F600D211D9F
:10497000822F762F6A2F11249F5750408AF0E1F042
:1049800088234AF0EE0FFF1FBB1F661F771F881F8B
:1049900091505040A9F79E3F510570F01CCFA6CF13
:1049A0005F3FECF3983EDCF3869577956795B79576
:1049B000F795E7959F5FC1F7FE2B880F911D9695A0
:1049C000879597F908951F920F920FB60F921124B1
:1049D0002F933F938F939F93AF93BF938091360410
:1049E00090913704A0913804B09139043091350486
:1049F00023E0230F2D3758F50196A11DB11D2093FB
:104A000035048093360490933704A0933804B09310
:104A1000390480913A0490913B04A0913C04B091F8
:104A20003D040196A11DB11D80933A0490933B046F
:104A3000A0933C04B0933D04BF91AF919F918F919F
:104A40003F912F910F900FBE0F901F90189526E861
:104A5000230F0296A11DB11DD2CF3FB7F8948091CC
:104A60003A0490913B04A0913C04B0913D0426B5DA
:104A7000A89B05C02F3F19F00196A11DB11D3FBF96
:104A8000BA2FA92F982F8827BC01CD01620F711D65
:104A9000811D911D42E0660F771F881F991F4A955F
:104AA000D1F708958F929F92AF92BF92CF92DF92EB
:104AB000EF92FF926B017C01D0DF4B015C01C114CE
:104AC000D104E104F104D9F0DBD4C7DF6819790916
:104AD0008A099B09683E73408105910580F321E0B6
:104AE000C21AD108E108F10888EE880E83E0981E0A
:104AF000A11CB11CC114D104E104F10431F7FF90F1
:104B0000EF90DF90CF90BF90AF909F908F900895DF
:104B1000789484B5826084BD84B5816084BD85B598
:104B2000826085BD85B5816085BDEEE6F0E080815F
:104B300081608083E1E8F0E0108280818260808380
:104B4000808181608083E0E8F0E080818160808303
:104B5000E1EBF0E0808184608083E0EBF0E0808135
:104B600081608083E1E9F0E08081826080838081E0
:104B700081608083E0E9F0E0808181608083E1EA08
:104B8000F0E0808182608083808181608083E0EAC0
:104B9000F0E0808181608083E1E2F1E080818260E9
:104BA0008083808181608083E0E2F1E080818160A8
:104BB0008083EAE7F0E08081846080838081826086
:104BC000808380818160808380818068808310926F
:104BD000C10008958150823108F059C0E82FF0E0FB
:104BE0008827EB50FA4D8F4F91C4152619260726BA
:104BF0000D26112647261C26222626262C26302660
:104C000034263A263E264726422648264C268091C0
:104C100080008F77809380000895809180008F7D41
:104C2000F9CF80918000877FF5CF84B58F7784BDE1
:104C3000089584B58F7DFBCF8091B0008F778093EE
:104C4000B00008958091B0008F7DF9CF80919000E1
:104C50008F77809390000895809190008F7DF9CF99
:104C600080919000877FF5CF8091A0008F7780930F
:104C7000A00008958091A0008F7DF9CF8091A000C1
:104C8000877FF5CF809120018F7780932001089551
:104C9000809120018F7DF9CF80912001877FF5CF12
:104CA000CF93DF9390E0FC01E65DFE4F24918059A5
:104CB0009E4FFC0184918823C9F090E0880F991FD2
:104CC000FC01E053FE4FA591B491FC01EA54FE4F64
:104CD000C591D49161110DC09FB7F8948C91209526
:104CE00082238C938881282328839FBFDF91CF91D3
:104CF0000895623051F49FB7F8943C91822F8095CB
:104D000083238C93E8812E2BEFCF8FB7F894EC910F
:104D10002E2B2C938FBFEACF1F93CF93DF93282F97
:104D200030E0F901EC51FF4F8491F901E65DFE4F4F
:104D3000D491F901E059FE4FC491CC23A1F0162F74
:104D4000811148DFEC2FF0E0EE0FFF1FEA54FE4F19
:104D5000A591B4918FB7F894EC91111108C0D0953A
:104D6000DE23DC938FBFDF91CF911F910895DE2B5F
:104D7000F8CFFC01918D228D892F90E0805C9F4FB0
:104D8000821B91098F7399270895FC01918D828D63
:104D9000981731F0828DE80FF11D858D90E0089510
:104DA0008FEF9FEF0895FC01918D828D981761F030
:104DB000A28DAE0FBF2FB11D5D968C91928D9F5F1E
:104DC0009F73928F90E008958FEF9FEF0895FC01FD
:104DD000538D448D252F30E0842F90E0821B930B60
:104DE000541710F0CF96089501970895FC01A48DF3
:104DF000A80FB92FB11DA35ABF4F2C91848D90E0FD
:104E000001968F739927848FA689B7892C93A089DF
:104E1000B1898C91837080648C93938D848D981369
:104E200006C00288F389E02D80818F7D80830895FC
:104E3000CF93DF93EC01888D8823B1F0AA89BB89D9
:104E4000E889F9898C9185FD03C0808186FD0CC0BD
:104E50000FB607FCF7CF8C9185FFF2CF808185FFDD
:104E6000EDCFCE01C3DFEACFDF91CF910895EF926E
:104E7000FF920F931F93CF93DF93EC0181E0888F14
:104E80009B8D8C8D98131AC0E889F989808185FFE4
:104E900015C09FB7F894EE89FF896083E889F98986
:104EA00080818370806480839FBF81E090E0DF9188
:104EB000CF911F910F91FF90EF900895F62E0B8DDB
:104EC00010E00F5F1F4F0F731127E02E8C8D8E1196
:104ED0000BC00FB607FCFACFE889F989808185FFFE
:104EE000F5CFCE0183DFF2CFEB8DEC0FFD2FF11D5F
:104EF000E35AFF4FF0829FB7F8940B8FEA89FB8942
:104F000080818062D0CFCF92DF92EF92FF921F9389
:104F1000CF93DF93EC016A017B01122FE889F989B5
:104F200082E08083C11481EED806E104F10499F097
:104F300060E079E08DE390E0A7019601C5D22150B1
:104F400031094109510956954795379527952115FE
:104F500080E1380790F0E889F989108260E874E808
:104F60008EE190E0A7019601AFD2215031094109AD
:104F700051095695479537952795EC85FD853083E2
:104F8000EE85FF852083188EEC89FD891083EA89E0
:104F9000FB89808180618083EA89FB8980818860C8
:104FA0008083EA89FB89808180688083EA89FB8924
:104FB00080818F7D8083DF91CF911F91FF90EF9053
:104FC000DF90CF9008951F920F920FB60F92112489
:104FD0000BB60F922F938F939F93EF93FF93E091D4
:104FE0004E04F0914F048081E0915404F0915504F7
:104FF00082FD1DC09081809157048F5F8F73209137
:105000005804821741F0E0915704F0E0E25CFB4F56
:10501000958F80935704FF91EF919F918F912F91DE
:105020000F900BBE0F900FBE0F901F9018958081B0
:10503000F2CF1F920F920FB60F9211240BB60F9260
:105040002F933F934F935F936F937F938F939F9390
:10505000AF93BF93EF93FF938EE394E0C7DEFF918E
:10506000EF91BF91AF919F918F917F916F915F91E0
:105070004F913F912F910F900BBE0F900FBE0F904D
:105080001F901895EEE3F4E01382128288EE93E00D
:10509000A0E0B0E084839583A683B78386EB92E09B
:1050A0009183808385EC90E09587848784EC90E001
:1050B0009787868780EC90E0918B808B81EC90E0E5
:1050C000938B828B82EC90E0958B848B86EC90E0C6
:1050D000978B868B118E128E138E148E08951F92CD
:1050E0000F920FB60F9211240BB60F922F938F933E
:1050F0009F93EF93FF93E091EB04F091EC04808198
:10510000E091F104F091F20482FD1DC09081809144
:10511000F4048F5F8F732091F504821741F0E091C2
:10512000F404F0E0E552FB4F958F8093F404FF9177
:10513000EF919F918F912F910F900BBE0F900FBE0B
:105140000F901F9018958081F2CF1F920F920FB68B
:105150000F9211240BB60F922F933F934F935F93AF
:105160006F937F938F939F93AF93BF93EF93FF932F
:105170008BED94E03BDEFF91EF91BF91AF919F915A
:105180008F917F916F915F914F913F912F910F90F0
:105190000BBE0F900FBE0F901F901895EBEDF4E033
:1051A0001382128288EE93E0A0E0B0E084839583BE
:1051B000A683B78386EB92E0918380838DEC90E0A9
:1051C000958784878CEC90E09787868788EC90E0C1
:1051D000918B808B89EC90E0938B828B8AEC90E0B2
:1051E000958B848B8EEC90E0978B868B118E128E34
:1051F000138E148E08951F920F920FB60F921124E2
:105200000BB60F922F938F939F93EF93FF93E091A1
:105210008805F09189058081E0918E05F0918F05D8
:1052200082FD1DC09081809191058F5F8F732091C9
:105230009205821741F0E0919105F0E0E858FA4FAD
:10524000958F80939105FF91EF919F918F912F9171
:105250000F900BBE0F900FBE0F901F90189580817E
:10526000F2CF1F920F920FB60F9211240BB60F922E
:105270002F933F934F935F936F937F938F939F935E
:10528000AF93BF93EF93FF9388E795E0AFDDFF9176
:10529000EF91BF91AF919F918F917F916F915F91AE
:1052A0004F913F912F910F900BBE0F900FBE0F901B
:1052B0001F901895E8E7F5E01382128288EE93E0DC
:1052C000A0E0B0E084839583A683B78386EB92E069
:1052D0009183808385ED90E09587848784ED90E0CD
:1052E0009787868780ED90E0918B808B81ED90E0B1
:1052F000938B828B82ED90E0958B848B86ED90E092
:10530000978B868B118E128E138E148E08951F929A
:105310000F920FB60F9211240BB60F922F938F930B
:105320009F93EF93FF93E0912506F09126068081ED
:10533000E0912B06F0912C0682FD1DC0908180919A
:105340002E068F5F8F7320912F06821741F0E09118
:105350002E06F0E0EB5EF94F958F80932E06FF91BD
:10536000EF919F918F912F910F900BBE0F900FBED9
:105370000F901F9018958081F2CF1F920F920FB659
:105380000F9211240BB60F922F933F934F935F937D
:105390006F937F938F939F93AF93BF93EF93FF93FD
:1053A00085E196E023DDFF91EF91BF91AF919F9151
:1053B0008F917F916F915F914F913F912F910F90BE
:1053C0000BBE0F900FBE0F901F901895E5E1F6E011
:1053D0001382128288EE93E0A0E0B0E0848395838C
:1053E000A683B78386EB92E09183808385E391E087
:1053F0009587848784E391E09787868780E391E0AF
:10540000918B808B81E391E0938B828B82E391E09F
:10541000958B848B86E391E0978B868B118E128E11
:10542000138E148E0895AF92BF92CF92DF92EF92B7
:10543000FF920F931F93CF93DF936C017B018B013E
:10544000040F151FEB015E01AE18BF08C017D1078E
:1054500059F06991D601ED91FC910190F081E02D18
:10546000C6011995892B79F7C501DF91CF911F915D
:105470000F91FF90EF90DF90CF90BF90AF90089585
:105480000895DB018F939F9349D0BF91AF91A29F65
:10549000800D911DA39F900DB29F900D1124089532
:1054A000AA1BBB1B51E107C0AA1FBB1FA617B7074A
:1054B00010F0A61BB70B881F991F5A95A9F7809566
:1054C0009095BC01CD010895A1E21A2EAA1BBB1B29
:1054D000FD010DC0AA1FBB1FEE1FFF1FA217B307C0
:1054E000E407F50720F0A21BB30BE40BF50B661FD6
:1054F000771F881F991F1A9469F76095709580959A
:1055000090959B01AC01BD01CF010895EE0FFF1FE7
:10551000881F8BBF0790F691E02D199409D0A59FA5
:10552000900DB49F900DA49F800D911D112408959E
:10553000A29FB001B39FC001A39F700D811D1124D4
:10554000911DB29F700D811D1124911D0895FB01C5
:10555000DC0102C001900D9241505040D8F70895EF
:10556000DC0101C06D9341505040E0F70895F8947C
:02557000FFCF6B
:105572000000803F0000803F000000400000803FAC
:1055820000000000FEFFFFFF01E8030000FFFF0034
:10559200000000FFFFFFFFFFFFFFFFFFFFFFFFFF16
:1055A200FF01DA02FF00F20C1E0DFE00D80C590AB0
:1055B200FD006A0CC40CFC00B00C590AF600A10DE7
:1055C200590AF500770CE00DF4006A0DF70DDE00C4
:1055D2001E12B714DD008D13590ADA00C70FCF0F60
:1055E200D900D214DF0FE200AF0E590AE100EA0E31
:1055F200590AE0005F0F590AD600B518590AD500BA
:105602006C11590AD400F810590AD3006910590ACA
:10561200C000EE0F590AF0001E19590AED00DB18FE
:10562200590A000000003727132AE7261827B9264F
:04563200D326C52690
:00000001FF
