:10000000F8C0000027C1000025C1000023C1000086
:1000100021C100001FC100001DC100001BC1000064
:1000200019C1000017C1000015C1000013C1000074
:1000300011C100000FC100000DC100000BC1000084
:1000400009C1000007C1000005C1000003C1000094
:1000500001C10000FFC00000FDC000000C94562646
:10006000F9C000000C9456290C948C29F3C00000B0
:10007000F1C00000EFC00000EDC00000EBC00000C8
:10008000E9C00000E7C00000E5C00000E3C00000D8
:100090000C94E2290C94182ADDC00000DBC000009B
:1000A000D9C00000D7C00000D5C00000D3C00000F8
:1000B000D1C00000CFC00000CDC00000CBC0000008
:1000C000C9C00000C7C000000C94B7220C946E2A6F
:1000D0000C94A42ABFC000000C94FA2A0C94302B74
:1000E000B9C0000000000A0B02090C0D0E0807033E
:1000F00004010000000000000000000000000000FB
:1001000000000000000000000000000000000000EF
:1001100012111000000000000000000000000000AC
:100120000000000000000000000001021020200874
:100130000810204010204080020102010804020142
:1001400001020408102040808040201008040201B1
:10015000800402018040201008040201080402010A
:100160000102040810204080010204081020408091
:1001700005050505070508080808020202020A0A23
:100180000808040404040101010101010101030341
:10019000030303030303040707070C0C0C0C0C0CEC
:1001A0000C0C0202020206060606060606060B0BE9
:1001B0000B0B0B0B0B0B00002200250028002B0063
:1001C0002E003100340002010000050108010B017E
:1001D00000002100240027002A002D0030003300F9
:1001E00001010000040107010A01B529412ACD2AB5
:1001F000592B11241FBECFEFD1E2DEBFCDBF00E0EF
:100200000CBF12E0A0E0B2E0E8E5F8E500E00BBFCB
:1002100002C007900D92A03DB107D9F728E0A0EDEC
:10022000B2E001C01D92A230B207E1F710E0C9EFC1
:10023000D0E000E006C021970109802FFE010E9456
:10024000F92BC53FD10780E00807A9F70E94BA2320
:100250000C942A2CD5CE611102C00C94C3276130B6
:10026000E1F362E0FACF662319F061E00C94FF2716
:1002700060E0FCCF90E080E008950F931F9300971B
:1002800009F487C06115710509F483C00091140257
:100290001091150220911602309117020E3F1F4F48
:1002A0002F4F3F4F09F066C04FEF5FEFBA01409309
:1002B0001402509315026093160270931702409136
:1002C0001402509115026091160270911702DC0120
:1002D0001296ED91FC9180819181A281B3818093EE
:1002E0003A0390933B03A0933C03B0933D03848176
:1002F0009581A681B7818093360390933703A093AD
:100300003803B093390380859185A285B3858093A6
:10031000320390933303A0933403B0933503848561
:100320009585A685B78580932E0390932F03A09380
:100330003003B093310310922A0310922B031092D2
:100340002C0310922D03FCD485EC96E09093D102FF
:100350008093D0029093D3028093D202E0D300978F
:1003600031F421E030E030933F0320933E031F91AE
:100370000F91089500911402109115022091160218
:1003800030911702DB010D931D932D933C9313972E
:1003900096CF8FEF9FEFEBCF8F929F92AF92BF924E
:1003A000CF92DF92EF92FF921F93CF93DF934B0197
:1003B0005C011091410382E090E090933F038093B1
:1003C0003E0381149104A104B10441F480914103DE
:1003D000811104C080914003C1E08111C0E0C12CB3
:1003E000D12C760180914103811106C08091400398
:1003F000811102C0CC23D9F083E090E090933F03B9
:1004000080933E03CC2379F1CCE9DFEF111102C0D8
:100410000E94290ACE01DF91CF911F91FF90EF90AA
:10042000DF90CF90BF90AF909F908F9008956AE03B
:1004300070E080E090E00E94C52680E1C80E87E26F
:10044000D81EE11CF11C8FEF88169806A806B80686
:1004500031F0C1E08C149D04AE04BF0408F0C0E08C
:1004600080E091D3BFCFD0E0C0E0D0CFCF92DF9279
:10047000EF92FF920F931F93CF93DF938F3F9105DE
:1004800011F008F050C020913E0330913F0323301B
:10049000310539F020913E0330913F032130310581
:1004A00031F424E030E030933F0320933E036A01AF
:1004B0007B01EC0182309105A0F011E0AE01C70193
:1004C000B6012CD3AB01BC01CE011123F9F0DF91B1
:1004D000CF911F910F91FF90EF90DF90CF900C94F0
:1004E000520C8C01000F111F00531D4FD8018D912C
:1004F0009C91892B11F30E945C0C0297F1F6D801B4
:10050000ED91FC91CE011995182FD8CF0E94740C53
:1005100090E080E0DF91CF911F910F91FF90EF90DD
:10052000DF90CF9008958FEF9FEFF4CF80E02BC343
:10053000CF93DF9386E090E090933F0380933E0358
:100540007BD3EC01E0EDF2E084E0DF011D928A95BF
:10055000E9F717D710923F0310923E03CE01DF91C7
:10056000CF910895809140030895809129030895C3
:1005700060931402709315028093160290931702F1
:1005800090E080E00895CF92DF92EF92FF926B01AE
:100590007C019F7720E030E040E859E50E94BA24D2
:1005A00087FF2BC020E030E040E05FE3C701B601E9
:1005B0000E94EF2587FD0EC020E030E040E05FE3C1
:1005C000C701B6010E944324FF90EF90DF90CF90C7
:1005D0000C94272520E030E040E05FEBC701B60136
:1005E0000E94EF25181684F420E030E0A901C7012D
:1005F000B6010E94F3256B017C01C701B601FF9093
:10060000EF90DF90CF90089520E030E040E05FE38E
:10061000C701B6010E944224FF90EF90DF90CF9077
:100620000C94A7244F925F926F927F928F929F9229
:10063000AF92BF92CF92DF92EF92FF926091000251
:100640007091010280910202909103026093F80779
:100650007093F9078093FA079093FB0794DF6B017F
:100660007C0120E030E040E853E40E94BA246FEFC0
:1006700087FF0EC020E030E0A901C701B6010E944B
:10068000EF2560E087FD04C0C701B6010E94BE24CB
:100690008EE1E9DDC090F407D090F507E090F60711
:1006A000F090F707C701B6010E94EC242B013C0132
:1006B00020910C0230910D0240910E0250910F02D8
:1006C0000E94BA2487FF85C0F7FC83C08090040293
:1006D00090900502A0900602B09007028092FC075D
:1006E0009092FD07A092FE07B092FF0720E030E055
:1006F00040E85FE3609108027091090280910A026C
:1007000090910B020E9442249B01AC01C301B201F3
:100710000E94EF2587FD61C01092F4071092F50743
:100720001092F6071092F707C501B4012CDF6B0198
:100730007C0120E030E040E853E40E94BA246FEFEF
:1007400087FF0EC020E030E0A901C701B6010E947A
:10075000EF2560E087FD04C0C701B6010E94BE24FA
:100760008FE181DD609100037091010380910203AC
:10077000909103036F5F7F4F8F4F9F4F60930003F4
:100780007093010380930203909303030E94EA2471
:100790009B01AC01609104037091050380910603F5
:1007A000909107030E94F3256093FC027093FD0271
:1007B0008093FE029093FF02FF90EF90DF90CF9026
:1007C000BF90AF909F908F907F906F905F904F9071
:1007D0000895812C912C540181CF8FEFC81AD80A2B
:1007E000E80AF80AC092F407D092F507E092F607FB
:1007F000F092F70799CFCF92DF92EF92FF921F937B
:10080000CF93DF93E6EEF2E080E090E0A0E8BFEB6C
:1008100082A393A3A4A3B5A380E090E0A0E8BEE3E5
:10082000868F978FA0A3B1A386E19BEDAAE8B3EED4
:1008300084839583A683B78380EE9BE2A0EBB4EE1E
:1008400080879187A287B3878CE59AEDACE4BDE7FA
:1008500084879587A687B78783E294E7A9EFBFECE3
:10086000808B918BA28BB38BAAEDB2E0B383A28372
:10087000E4EDF2E01196FC93EE938DE392E0918328
:10088000808393838283958384838AEF92E0159695
:100890009C938E9314978AEE92E013969C938E937A
:1008A00012978CEF92E017969C938E931697C4EE56
:1008B000D7E01886C12CD12C7601C394C986DA867C
:1008C000EB86FC8661E08EE1C6DC11E01D871882B4
:1008D000C982DA82EB82FC8261E08FE1BCDC1D839D
:1008E000DF91CF911F91FF90EF90DF90CF9008950F
:1008F0008091EC07811103C081E08093EC07809127
:10090000E407811103C081E08093E40708954F92CA
:100910005F926F927F928F929F92AF92BF92CF928F
:10092000DF92EF92FF920F931F93F8944090190378
:1009300050901A0360901B0370901C03C0900D032D
:10094000D0900E03E0900F03F0901003452B09F0B8
:10095000A6C09B01AC012419350946095709290194
:100960003A0100911503109116032091170330915D
:10097000180348015901840C951CA61CB71C80164D
:100980009106A206B306A0F4009111031091120380
:1009900020911303309114030F5F1F4F2F4F3F4FD0
:1009A0000093110310931203209313033093140345
:1009B0008092150390921603A0921703B092180329
:1009C000009111031091120320911303309114032D
:1009D00080921D0390921E03A0921F03B0922003E9
:1009E00000932103109322032093230330932403C5
:1009F0006093190370931A0380931B0390931C0355
:100A0000A301920160E970ED83E090E00E94B42BB5
:100A10006C0D7D1D8E1D9F1D60930D0370930E0345
:100A200080930F039093100300911402109115020C
:100A300020911602309117020F3F1F4F2F4F3F4F4B
:100A4000F1F00091140210911502209116023091DC
:100A500017020E3F1F4F2F4F3F4F89F0C0901402D7
:100A6000D0901502E0901602F090170221E08C144D
:100A70009D04AE04BF0408F420E020932903789479
:100A80001F910F91FF90EF90DF90CF90BF90AF90AC
:100A90009F908F907F906F905F904F9008954B0143
:100AA0005C0184189508A608B708A3019201261BCB
:100AB000370B480B590B6415750586059705E0F053
:100AC00082169306A406B50640F420E030E0A901A2
:100AD00081149104A104B104A1F460E970ED83E0F4
:100AE00090E00E94B42BA7019601261B370B480B00
:100AF000590BCA01B901C3CF82169306A406B506E5
:100B000060F7A501940160E970ED83E090E00E9438
:100B1000B42B6C0D7D1D8E1D9F1DB1CFF8CECF93D4
:100B2000DF9300D01F92CDB7DEB71C821B821A82E2
:100B30001982109225031092260310922703109217
:100B40002803BE016F5F7F4FCE0103960E9488226B
:100B500069817A818B819C810E94781B009761F466
:100B6000BE016F5F7F4FCE0103960E949422698180
:100B70007A818B819C812ED50F900F900F900F90D2
:100B8000DF91CF910895FF920F931F93CF93DF933F
:100B9000082F60E070E0CB010E94C526FF24F3948B
:100BA0000E94611AEC01892B89F010E0CE3F8FEF93
:100BB000D80769F0002361F160E070E0CB010E948A
:100BC000C52681E090E0892B59F322C011E025D59C
:100BD000EC01892B21F0CE3F8FEFD80759F7111187
:100BE0001EC011E0229609F410E00E94111AEC01D7
:100BF000892B21F0CE3F8FEFD807E1F6111111C0FC
:100C000011E0CE3F8FEFD80709F410E001110BC0BF
:100C1000CE01DF91CF911F910F91FF90089511E0C8
:100C2000E4CF11E0F3CF60E070E0CB010E94C52675
:100C30001F25812F90E0C7CFCF93DF9380912903A9
:100C4000882321F060E070E0CB014CD635D6D0E0AF
:100C5000C0E0892B71F06AE070E080E090E00E94D3
:100C6000C52681E090DF28D62196C03D27E0D20737
:100C700081F727D60E94CC1B1092410310924003AB
:100C800010923A0310923B0310923C0310923D03E2
:100C900010923603109237031092380310923903E2
:100CA00010923203109233031092340310923503E2
:100CB00010922E0310922F031092300310923103E2
:100CC00010922A0310922B0310922C0310922D03E2
:100CD0004EEF5FEF6FEF7FEF4093140250931502DA
:100CE000609316027093170210922903EDE1F3E06E
:100CF00028E0DF011D922A95E9F71092190310925E
:100D00001A0310921B0310921C03109215031092E9
:100D100016031092170310921803109211031092E9
:100D20001203109213031092140310920D031092E9
:100D30000E0310920F0310921003DF91CF910895CC
:100D400010924D0310924E0310924F0310925003D5
:100D500010924C03809155039091560390934B034E
:100D600080934A031092490310924803109244035F
:100D700010924503109246031092470310925203BB
:100D80001092510390E080E00895CF92DF92EF92AD
:100D9000FF920F931F93CF938C01892B09F055C0BD
:100DA000209155033091560380914A0390914B0353
:100DB000409155035091560350934B0340934A037F
:100DC0002817390781F010924903109248031092B6
:100DD0004403109245031092460310924703109269
:100DE000520310925103809155039091560301973D
:100DF00061F58091510390915203892B21F48091E8
:100E00001802811112C080915103909152030197F1
:100E1000E1F48091440390914503A0914603B09181
:100E200047030197A105B10581F410924403109284
:100E3000450310924603109247031092180282E075
:100E400090E09093520380935103809155039091C9
:100E50005603019709F01CC180916B0390916C03BC
:100E60008017910709F014C180916703909168037E
:100E7000A0916903B0916A03009709F409C1209118
:100E8000660321110DC04091670350916803609182
:100E9000690370916A03452B462B472B09F4F8C070
:100EA00020915103309152032230310509F0F0C0F6
:100EB000209148032111ECC0FC01C080D180E28068
:100EC000F38080914C03882309F4D3C080915803A8
:100ED00090915903892B09F4FDC02091580330915A
:100EE000590381E02230310509F080E02091580358
:100EF00030915903C1E02130310549F02091580368
:100F000030915903C1E02230310509F0C0E0882357
:100F100009F456C020916203309163034091640349
:100F200050916503C701B6010E94EF2587FD14C0EB
:100F300020916203309163034091640350916503F3
:100F400060914D0370914E0380914F039091500337
:100F50000E94BA2487FD22C020916203309163036E
:100F60004091640350916503C701B6010E94EF25CB
:100F7000181634F5209162033091630340916403A5
:100F80005091650360914D0370914E0380914F0322
:100F9000909150030E94BA24811112C080915A038B
:100FA00090915B03A0915C03B0915D03892B8A2B28
:100FB0008B2B19F481E08093490381E080934803EF
:100FC000CC2309F456C02091620330916303409111
:100FD000640350916503C701B6010E94BA2487FFDC
:100FE00014C02091620330916303409164035091D7
:100FF000650360914D0370914E0380914F03909172
:1010000050030E94EF2587FF22C020916203309198
:1010100063034091640350916503C701B6010E94C8
:10102000BA24811126C0209162033091630340915C
:1010300064035091650360914D0370914E0380915C
:101040004F03909150030E94EF25181694F480915D
:101050005A0390915B03A0915C03B0915D03892BCF
:101060008A2B8B2B19F481E08093490381E08093D4
:10107000480381E090914803911180E080934C03F4
:10108000C0924D03D0924E03E0924F03F092500372
:10109000012B09F067C18091510390915203892B74
:1010A000D9F41092570310924803809118028823B4
:1010B00079F082E090E09093520380935103109274
:1010C0001802209155033091560381E0232BE9F05B
:1010D00080E01BC081E00ACF109218028091570374
:1010E000882349F010924903109252031092510341
:1010F00010925703EDCF8091550390915603892BA1
:10110000E1F08091480310924803209151033091FF
:1011100052032230310509F45EC088F421153105EF
:1011200009F448C02130310509F4F3C01092490395
:10113000109248031092570338C081E0E6CF233065
:10114000310509F4B1C02430310581F740914403E1
:101150005091450360914603709147034115510535
:101160006105710561F041505109610971094093B0
:1011700044035093450360934603709347034091A3
:101180004403509145036091460370914703452BFA
:10119000462B472BD9F4209153033091540321302F
:1011A000310509F046C01092490310925203109283
:1011B00051030CC080911802882341F082E090E036
:1011C000909352038093510310921802109242039D
:1011D00080914903CEC08823C9F380915A0390912E
:1011E0005B03A0915C03B0915D03181619061A0603
:1011F0001B060CF07DC0809155039091560301971A
:1012000009F076C080915A0390915B03A0915C0332
:10121000B0915D038093440390934503A0934603EC
:10122000B093470383E090E090935203809351037F
:10123000CDCF40915E0350915F0360916003709148
:101240006103452B462B472BA9F01092490380914F
:101250005E0390915F03A0916003B091610380935E
:10126000440390934503A0934603B093470381E062
:1012700090E0DACF882399F08091190290911A02B8
:10128000A0911B02B0911C028093440390934503EC
:10129000A0934603B093470384E090E0C5CF10923B
:1012A000490382E090E0C0CF8091440390914503D0
:1012B000A0914603B09147030097A105B10559F0ED
:1012C0000197A109B1098093440390934503A0932A
:1012D0004603B09347038091440390914503A09146
:1012E0004603B0914703892B8A2B8B2B09F06ECFD5
:1012F0008091190290911A02A0911B02B0911C02D8
:10130000892B8A2B8B2B09F44ECF81E080934903E4
:10131000B3CF4091440350914503609146037091CF
:101320004703411551056105710561F041505109AF
:101330006109710940934403509345036093460348
:1013400070934703409144035091450360914603D5
:1013500070914703452B462B472B09F037CF81115E
:10136000C7CF9FCF80914203882309F431CF80916A
:101370004303CF911F910F91FF90EF90DF90CF909B
:10138000089510924D0310924E0310924F03109245
:10139000500310924C03109252031092510310927A
:1013A0004B0310924A0310926C0310926B0310923D
:1013B000490310924803109244031092450310927F
:1013C0004603109247031092430310924203109277
:1013D0006703109268031092690310926A031092D7
:1013E00066031092620310926303109264031092DA
:1013F000650388EE93E0A0E0B0E08093190290933B
:101400001A02A0931B02B0931C0210925E0310926A
:101410005F03109260031092610310925A031092BE
:101420005B0310925C0310925D03109259031092BB
:10143000580381E0809318021092570310925603CC
:1014400010925503109254031092530390E080E0E1
:1014500008958091550390915603892B19F5809139
:101460001802882351F080915703811106C081E052
:101470008093430380934203089520915703309152
:10148000180281E090E0332311F090E080E030E03A
:1014900082239323892B21F01092430381E0EACF2A
:1014A00010924203089582E090E0FA0191838083D4
:1014B0008FEF9FEF0895CF93DF93EA01009711F02C
:1014C0000E94EC1C1982188290E080E0DF91CF919D
:1014D0000895DB01009719F48FEF8C9308952EEF98
:1014E0002C93FC013F96EF30F10508F034C08827BB
:1014F000E358F54F8F4F0C94F92BA90AA70AA50AB8
:10150000A30AA10A9D0A9F0A9B0A990A970A940AAC
:10151000900A8C0A920AAB0A80E311968C93089584
:1015200089E2FBCF82E2F9CF11961C92089583E203
:10153000F4CF81E2F2CF81E1F0CF87E2EECF8AE211
:10154000ECCF80E1EACF84E2E8CF88E2E6CF86E222
:10155000E4CF81E3E2CF80E2E0CF80917903909104
:101560007A03089590937A03809379030895809184
:101570007803089590917803892B809378030895D8
:10158000982F90958091780389238093780308950C
:101590008091770308958091750390917603089563
:1015A0006115710559F0FB0130E020E070E060E06A
:1015B0002417350719F06115710511F0CB01089555
:1015C000A081B181A817B90709F4BF012F5F3F4F70
:1015D0003696EECF80917B0381111CC060D266D21B
:1015E00090936E0380936D030E94EA140E94FC1492
:1015F00090937203809371030E9479190E9480195D
:101600009093700380936F0381E080937B0390E05D
:1016100080E0089584EF9FEF08958F929F92AF929C
:10162000BF92CF92DF92EF92FF920F931F93CF93CF
:10163000DF9300D000D000D01F92CDB7DEB71A865E
:10164000198618861F821E821D821C821B821A82A6
:10165000198280917B0307EF1FEF882309F49CC058
:101660008E010D5F1F4F9E012B5F3F4FAE01495F03
:101670005F4FBE01675F7F4F90E080E00E94FD1AE0
:101680008C01009721F00596029708F0DBC02985B0
:101690003A852115310509F402C1ED80FE804B81A8
:1016A0005C81B701640F751F8F8198858617970736
:1016B00008F4F5C0E20EF31ED7019C91903C09F0AE
:1016C0007FC04230510508F47BC011968C91409147
:1016D000790350917A03452B09F49CC0913F08F09F
:1016E00071C02CE1290F2D3008F48BC02DE2290F99
:1016F000203108F489C0903C21F48150823008F4F4
:1017000083C088E3890F8B3008F481C099E6C92E25
:101710009AE0D92EE3E5FAE06D817E81AE014F5F5C
:101720005F4F89859A8519955C01C114D104A1F197
:1017300089809A808114910479F18B819C8188152C
:10174000990508F487C010E000E04B815C8170E0EF
:1017500060E0C7010E94232C01151105E9F44981BD
:101760005A8169857A858D819E81680F791FC501AF
:10177000F6011995E980FA800D811E812F81388547
:1017800049855A856FEF7FEF81E090E00E94981ABB
:101790008C01892B09F056C0C8012A960FB6F8941F
:1017A000DEBF0FBECDBFDF91CF911F910F91FF9094
:1017B000EF90DF90CF90BF90AF909F908F90089563
:1017C00080E085CF30E020E0220F331FF901E3599C
:1017D000FC4F0190F081E02D309709F497CF892FCD
:1017E00090E01995009709F491CFDC011296ED91E4
:1017F000FC9113971496CD90DC90309709F08CCF24
:101800001FC021E030E0E0CF22E030E0DDCF23E078
:1018100030E0DACFD12CC12CEBE5FAE09F3F09F0A4
:101820007BCFE0916D03F0916E03309721F4C901F5
:1018300004EF1FEF0CC08FEF90E019950097A9F609
:1018400004EF1FEF89859A85009709F4A5CF0E94C0
:10185000EC1CA2CF0E94C71B8C0189859A850E942F
:10186000EC1C70E060E0C4010E94601B98878F83CD
:101870000E94951A9E838D836F817885611571050D
:1018800059F0C8010E94781E9A87898706EF1FEFDA
:10189000892B09F058CF59CF08EF1FEF56CF08EF2B
:1018A0001FEFD0CF20917B03222319F020E00C946E
:1018B000011587EF9FEF08958091790390917A0346
:1018C00008950E9485190E94DF18F5D0EDE6F3E037
:1018D00088E0DF011D928A95E9F710927B0390E082
:1018E00080E008950C943D1721E040E050E0BA01FB
:1018F0000C94011586E090E0FA019183808390E0DA
:1019000080E0089547E050E060E472E049CEDF9265
:10191000EF92FF920F931F93CF93DF938A01EC0115
:10192000C60FD71FE0907F03F0908003D9800E94FC
:10193000AF1BD816190678F082E090E0F801918389
:1019400080838EEF9FEFDF91CF911F910F91FF90DA
:10195000EF90DF900895EF2841F482E090E0F801E5
:101960009183808384EF9FEFEECF898180937E0304
:1019700090E00196F8019183808390E080E0E3CFCE
:10198000CF93DF93EA010E94EE17882321F00E9493
:10199000BC1B0E94EF1782E090E0998388838BEF55
:1019A0009FEFDF91CF910895CF93DF93EB0186E016
:1019B000FB0111928A95E9F78FEF8883D8DD89833F
:1019C000E7DD8A83E8DD9D838C83DF91CF910895E5
:1019D000CF93DF93EA010E94F117811109C082E0E1
:1019E00090E09983888385EF9FEFDF91CF910895F1
:1019F00090E080E0B7DD81E090E09983888390E01B
:101A000080E0F3CF0F931F93CF93DF93EA018C0114
:101A1000060F171F0E94F11781110BC082E090E0A2
:101A20009983888385EF9FEFDF91CF911F910F916D
:101A30000895F8018181823038F082E090E0998346
:101A400088838EEF9FEFF0CF81E090E08BDD88E020
:101A500090E09983888390E080E0E6CFCF93DF9396
:101A60000097D1F4EB01FB01329686E0DF011D9275
:101A70008A95E9F78FEF888385E089831A820E942F
:101A8000AF1B8B830E94AE1B9D838C8381E08E8372
:101A90008F83DF91CF910895DF91CF911ACD82E8A6
:101AA0009CE090937D0380937C03089580917C0358
:101AB00090917D03089510927D0310927C03089508
:101AC00080917F03909180030895411105C06115B5
:101AD00071058105910561F060937F037093800328
:101AE00080938103909382034093830381E0089560
:101AF00080E00895FF920F931F93CF93DF938A01A5
:101B0000EC01C60FD71FF9800E94AF1BF81619060B
:101B100068F082E090E0F801918380838EEF9FEF80
:101B2000DF91CF911F910F91FF9008956C817D817E
:101B30008E819F814B81C9DF811108C082E090E0D6
:101B4000F8019183808384EF9FEFEACF89818093AE
:101B50007E0390E00196F8019183808390E080E01D
:101B6000DFCFCF93DF93EA01FC01E60FF71F64811B
:101B70007581868197814381A8DF811109C082E048
:101B800090E09983888384EF9FEFDF91CF91089550
:101B900081E090E09983888390E080E0F6CFEFE7E2
:101BA000F3E04081518162817381480F511D611DB5
:101BB000711D40835183628373830895CF93C091D5
:101BC0007E034C2F50E060917F037091800301965B
:101BD0000E941A2C8C2FE3DF10927E03CF91089580
:101BE000009799F480917F03909180032FEFFB0180
:101BF0002083892B59F020917E0330E02F5F3F4FE7
:101C00002417350719F4CB01D9CF63CC0895009779
:101C100099F480917F03909180032FEFFB01208343
:101C2000892B59F020917E0330E02F5F3F4F24171E
:101C3000350719F4CB01C2CF4CCC089523E1AC0198
:101C4000249FC001259F900D1124E0918803F091FD
:101C50008903E80FF91F238134812250310981E083
:101C60002230310508F080E008950F931F93CF9341
:101C7000DF9300918A0310918B03D0E0C0E080E0F5
:101C80000C171D0749F491E0811190E0892FDF9135
:101C9000CF911F910F9108958111F5CFCE01CEDF25
:101CA0002196EECFA0918803B0918903109729F176
:101CB00020918A0330918B0382179307F0F453E14C
:101CC000589F9001599F300D1124A20FB31FED9121
:101CD000FC911197309789F012968C91681768F4EF
:101CE0008DE0689FE00DF11D112480819181892B89
:101CF00021F081E09281491708F080E008959C016D
:101D000043E1429FC001439F900D1124E09188035D
:101D1000F0918903E80FF91F8385823091F481E007
:101D200090E06581768140911D0250911E026417FA
:101D3000750711F490E080E0892B19F081E0232BE6
:101D400009F080E00895FC01A081B1818DE0689FD9
:101D5000A00DB11D112413964D915C91858596853A
:101D6000489F9001499F300D589F300D1124C901A3
:101D70000196611103C0478144FD04960895EF92D6
:101D8000FF920F931F93CF93DF93EA01FC01E60FBD
:101D9000F71F02811381E480F5804F2D6E2DC8015D
:101DA00081DF81110DC082E090E0998388838EEFFE
:101DB0009FEFDF91CF911F910F91FF90EF900895CA
:101DC000C8013CDF882339F082E090E09983888362
:101DD00088EF9FEFEECF1093240200932302E0924E
:101DE0002502F092260281E090E09983888390E0BA
:101DF00080E0DFCFCF92DF92EF92FF920F931F939D
:101E0000CF93DF937A01EC01C60FD71FC090230256
:101E1000D09024020091250210912602412F602FBC
:101E2000C60140DF811110C082E090E0F70191838C
:101E300080838AEF9FEFDF91CF911F910F91FF90E9
:101E4000EF90DF90CF900895C601F8DE882341F02F
:101E500082E090E0F7019183808388EF9FEFEBCFE2
:101E60004C815D816E817F819A8189818F3F41F0B4
:101E700082E090E0F701918380838EEF9FEFDBCFCC
:101E8000E3E1EC9D9001ED9D300D1124E09188037C
:101E9000F0918903E20FF31F0190F081E02D2DE016
:101EA000029FE00DF11D11240190F081E02D27E04B
:101EB000129FE00DF11D1124808391838B81828319
:101EC00043835483658376831F5F1093260281E0EA
:101ED00090E0F7019183808390E080E0ACCFEF92B7
:101EE000FF920F931F93CF93DF937A018C01060F1C
:101EF000171FC0918803D0918903209781F021E0BA
:101F000030E0F8018281938140918A0350918B03E4
:101F10008417950710F030E020E0232B71F482E065
:101F200090E0F701918380838EEF9FEFDF91CF9157
:101F30001F910F91FF90EF90089543E1489F90010A
:101F4000499F300D1124C20FD31F78DE882341F042
:101F500082E090E0F7019183808388EF9FEFE6CFE6
:101F6000F8012481358120383105C8F68781811137
:101F7000D6CF4181842F90E08F7E009741F082E0A0
:101F800090E0F7019183808386EF9FEFCFCF4F835F
:101F90003E832D83268128871986223010F421E084
:101FA000288721E030E0F70131832083BFCF88E02C
:101FB00090E0FA019183808390E080E00895FB0136
:101FC0008FEF808381E181838FEF9FEF9383828303
:101FD00080E890E095838483168217820895FB0140
:101FE0008FEF808391E0918382839383848384E362
:101FF000858381E090E0978386830895DF92EF9256
:10200000FF920F931F93CF93DF93EA01FC01E60F3A
:10201000F71F8181813071F082E090E0998388839D
:102020008FEF9FEFDF91CF911F910F91FF90EF9076
:10203000DF90089582819381D4802581E680F780A6
:1020400000918803109189030115110539F482E08C
:1020500090E0998388838CEF9FEFE4CF40918A03CF
:1020600050918B038417950738F082E090E09983B4
:1020700088838EEF9FEFD6CF892B39F082E090E0F6
:102080009983888386EF9FEFCDCF8D2D8D7FB1F71C
:102090002130A1F781E0D11006C091E0E916F104EA
:1020A00031F080E004C0E2E0EE16F104D0F38823C2
:1020B00029F390E080E0C2DD882339F082E090E0EF
:1020C0009983888388EF9FEFADCFF801D38681E0B5
:1020D0008487F686E586108A178681E090E09983EA
:1020E000888390E080E09ECF4CE050E06AE672E0AA
:1020F00057CA8F929F92BF92CF92DF92EF92FF9238
:102100000F931F93CF93DF93EA01FC01E60FF71FB4
:10211000828193810481B580E0918803F0918903E5
:10212000309791F482E090E0998388838CEF9FEF61
:10213000DF91CF911F910F91FF90EF90DF90CF90A3
:10214000BF909F908F90089520918A0330918B03C8
:102150008217930738F082E090E0998388838EEFAE
:102160009FEFE6CF23E1289F6001299FD00C112427
:10217000EC0DFD1DE080F180E114F10499F2828103
:10218000081748F78DE0089F80011124E00EF11E2A
:10219000F70180819181892B29F6BB20E1F2F7E0DC
:1021A000BF9E40011124C4010E94B31CF70191831A
:1021B0008083E0918803F0918903EC0DFD1D01906F
:1021C000F081E02DE00FF11F80819181009739F4BB
:1021D00082E090E0998388838DEF9FEFA9CFA401DF
:1021E00070E060E00E94232C809188039091890325
:1021F000C80ED91EF60180819181080F191FF801C0
:10220000B28281E090E09983888390E080E090CF73
:10221000AF92BF92CF92DF92FF920F931F93CF9313
:10222000DF93EA01FC01E60FF71F82819381F480BE
:1022300000918803109189030115110581F482E052
:1022400090E0998388838CEF9FEFDF91CF911F916E
:102250000F91FF90DF90CF90BF90AF9008952091A5
:102260008A0330918B038217930738F082E090E065
:10227000998388838EEF9FEFE8CF2FEF2F0D2C3FB0
:10228000A8F723E1289F6001299FD00C11240C0D91
:102290001D1DF80180819181892B89F6FDE0FF9E4B
:1022A00050011124C5010E94B31CF8019183808361
:1022B000E0918803F0918903EC0DFD1D80819181EF
:1022C000009739F482E090E0998388838DEF9FEF47
:1022D000BCCFA50170E060E00E94232CE091880350
:1022E000F0918903EC0DFD1DF28281E090E099836D
:1022F000888390E080E0A9CFCF92DF92EF92FF92A7
:102300000F931F93CF93DF93860F971FFC010281DA
:1023100013818091880390918903892B81F082E059
:1023200090E0FA01918380838CEF9FEFDF91CF9152
:102330001F910F91FF90EF90DF90CF900895C8010B
:10234000B0E0A0E00197A109B1098F3F9F4FA1051F
:10235000B10540F082E090E0FA01918380838EEF36
:102360009FEFE4CF7A0183E1809F6001819FD00CD1
:102370001124C6010E94B31CEC01009741F482E0D5
:1023800090E0F701918380838DEF9FEFCFCFA6017F
:1023900070E060E00E94232CD0938903C0938803EF
:1023A00010938B0300938A0390E080E02FEF3FEFC0
:1023B00041E061E070E08017910741F481E090E036
:1023C000F7019183808390E080E0B0CF3A8B298B36
:1023D0001B864C877E876D87188A1F8601966396B9
:1023E000EACFEF92FF921F93CF93DF93EC0110E0BF
:1023F000F12CE12C6A811617B0F083E0689FB001E0
:102400001124AE014F5E5F4FC7010E94181D009757
:1024100021F02FEF3FEF3A8B298BDF91CF911F9166
:10242000FF90EF900895612FCE018DDC61E070E0A8
:102430000E94601BE816F90608F47C011F5FDACFE2
:10244000F894209186033091870381E021153105AE
:1024500009F080E0232B09F0789408952F923F92A1
:102460004F925F926F927F928F929F92AF92BF92A4
:10247000CF92DF92EF92FF920F931F93CF93DF9350
:102480003C01660E771EF301828193814C01B12CD1
:10249000A12CC0918803D0918903209769F021E095
:1024A00030E060918A0370918B038617970710F0D4
:1024B00030E020E0232BD1F482E090E0FA01918318
:1024C00080838EEF9FEFDF91CF911F910F91FF904F
:1024D000EF90DF90CF90BF90AF909F908F907F90C4
:1024E0006F905F904F903F902F90089580922702B9
:1024F00090922802A0922902B0922A0263E1689F7A
:102500009001699F300D1124C20FD31FF301818107
:10251000833040F082E090E0FA019183808386EF7F
:102520009FEFD1CF2A012B813C81232BF1F428810D
:1025300039819F8191FF2EC0232B09F46FC0209118
:102540008D039A81422F490F5527551FBA0141E04B
:1025500050E06138710514F050E040E0452B09F47B
:102560005DC02A87920F90938D038150823008F4CA
:1025700081C066DF882309F4D8C0F30181818130EE
:1025800009F48DC008F47BC0823009F4C6C090E025
:1025900080E0ADC0232B09F441C020918C039A81C7
:1025A000E22FE90FFF27FF1F41E050E0ED3FF1056B
:1025B00014F050E040E0452B89F12A87920F909368
:1025C0008C03D3CFA081B181A20FB31F11966C9160
:1025D000060F111D0196295F3F4F8417950794F34D
:1025E0008D859E85089F1001099F300C189F300C27
:1025F0001124C114D104D1F48F8184FF17C00E942B
:10260000AE1BF5E02F0E311C21E08215930508F476
:1026100020E0A701435F5F4F21110EC082E090E0F0
:10262000F2019183808387EF9FEF4DCF0E94AE1B15
:102630002FEF221A320AE8CF88819981E80EF91E1D
:10264000F70114830383FFEFCF1ADF0A7A018A812F
:102650008C151D0409F00CF48CCFE881F981EE0D86
:10266000FF1D428150E030E020E010E000E090E00B
:1026700080E0B3CFF12CE12CD12CC12CE8CF81E04C
:1026800090E09C838B83F1DA882309F480CF81E08A
:1026900090E00E94B20A80E40E94C00A78CF898943
:1026A0009A89019661F083E090E09C838B8382E0BD
:1026B00090E00E94B20A80E40E94BA0A68CF8D813D
:1026C0009E8120911D0230911E0282179307D1F442
:1026D0006091210270912202AE014F5E5F4F8091A6
:1026E0001F02909120020E94371E0097E1F2789419
:1026F00022E030E0F20131832083892B99F08DEFC5
:102700009FEFE1CE89288A288B2869F6892B59F614
:10271000CE0167DE188A1F86E8CF82E090E09C83B6
:102720008B8335CF90E080E0CECE82E090E0F20166
:102730009183808385EF9FEFC6CE8F929F92AF9259
:10274000BF92CF92DF92EF92FF920F931F93CF939E
:10275000DF93EA018C01060F171FF8018181833096
:1027600098F082E090E09983888386EF9FEFDF9175
:10277000CF911F910F91FF90EF90DF90CF90BF907E
:10278000AF909F908F9008958091880390918903D6
:10279000892B61F081E090E020918A0330918B03D6
:1027A000232B11F490E080E0892B39F482E090E053
:1027B000998388838EEF9FEFDACF42DE882309F476
:1027C000DFC0F8018181813009F495C0E8F08230E2
:1027D00099F420918A0330918B03E0918803F09162
:1027E000890390E080E041E050E02817390709F0C4
:1027F000BDC03BDA811117C0789481E090E09983E5
:10280000888390E080E0B3CF20918A0330918B03DE
:10281000E0918803F091890390E080E041E050E08E
:102820002817390741F481E090E00E94B20A80E461
:102830000E94C00AE1CF63817481672B11F0548339
:10284000438301967396ECCFE0918803F09189035E
:10285000E00FF11F2381348122303105D9F4218921
:1028600032892F3F3F4FB1F42581368140911D02BF
:1028700050911E022417350761F5AF014F5E5F4F7F
:10288000609121027091220280911F02909120029A
:102890000E94371EEFEFCE1ADE0AEE0AFE0A0D5E28
:1028A0001F4F40918A0350918B0370E060E0C41683
:1028B000D506E606F7063CF5009731F27894892BA9
:1028C00009F49BCF82E090E0998388838DEF9FEF9E
:1028D0004ECFC114D104E104F104E1F6232BD1F66B
:1028E000CF017FDDE0918803F0918903E00FF11FB4
:1028F000108A1786CFCF10E000E090E080E0C12C76
:10290000D12C7601CECF0097C9F610E000E0812CE3
:10291000912C540183E0E82EF12C1AC0E091880339
:10292000F0918903E00FF11F83819481029749F4AC
:10293000F482E38282E090E00E94B20A80E40E9486
:10294000BA0AFFEF8F1A9F0AAF0ABF0A0D5E1F4F28
:1029500080918A0390918B03B0E0A0E088169906DD
:10296000AA06BB06DCF290E080E0A8CF6381748108
:102970006230710511F4548343830196739635CF09
:1029800082E090E09983888385EF9FEFF0CE0097F7
:10299000B9F48FEFFB018083209127023091280248
:1029A00043E1429FC001439F900D1124E0918803B1
:1029B000F0918903E80FF91F8285FB018183089557
:1029C0000C94690A88E090E0FA019183808390E09A
:1029D00080E008951092870310928603E8E8F3E000
:1029E00086E0DF011D928A95E9F784E790E19093F4
:1029F00085038093840308958091840390918503D7
:102A000008952F923F924F925F926F927F928F9292
:102A10009F92AF92BF92CF92DF92EF92FF920F936D
:102A20001F93CF93DF93CDB7DEB72F970FB6F894F0
:102A3000DEBF0FBECDBFF894E0918603F09187030F
:102A40003196F0938703E09386037894409088034F
:102A5000509089034114510409F40CC2E0918A0397
:102A6000F0918B03EF2B09F405C22D8749875A8714
:102A70006B877C8798878F831201B12CA12C10E083
:102A800000E080918A0390918B03A816B90618F490
:102A90000115110529F1F89480918603909187031F
:102AA000019790938703809386037894C8012F96AB
:102AB0000FB6F894DEBF0FBECDBFDF91CF911F914F
:102AC0000F91FF90EF90DF90CF90BF90AF909F90CD
:102AD0008F907F906F905F904F903F902F900895D0
:102AE0007101E418F508D10117968C91179781FDB3
:102AF00054C013968D919C911497039709F04DC083
:102B000015968D919C91EF81F8858E179F0709F09E
:102B100044C0B50190E080E07FD48A83209188038F
:102B2000309189033D832C833D85332309F44CC0C8
:102B30004C815D81452B09F49AC180918A03909163
:102B40008B03A816B90608F092C1C501D8D888230E
:102B5000E9F06C817D816E0D7F1D7D836C83DB01CF
:102B60001F968D919C91892B89F0D12CC12CF12C31
:102B7000E12CAC81BD8112968C9112978E151F04A9
:102B800009F094F450961C921E921F972A812223DA
:102B900021F0B50190E080E041D43FEFA31AB30AE1
:102BA00043E1240E311C6DCFAC81BD81ED91FC91D0
:102BB000EC0DFD1D858196810FD7BFEFEB1AFB0A47
:102BC000EDE0CE0ED11CD5CFEC81FD81309709F41C
:102BD0004EC180918A0390918B03A816B90608F024
:102BE00046C1EE0DFF1DFF87EE87C50188D88B8398
:102BF000882339F1AE85BF851F968D919C915097A2
:102C0000019621E01D964D915C918417950709F07E
:102C100020E02E831982712C10E000E0AE85BF8584
:102C200012968C91781608F45DC0EE85FF85878535
:102C300090890196658576850E94C32B908B878746
:102C4000A5CFB1E0BE83E6CF992493946BC08BD619
:102C5000F6019683858382C0D601ED90FC90B7E0A3
:102C60006B9EE00CF11C1124F7016381748180815B
:102C70008F3F61F121E030E002C0220F331F8A95BF
:102C8000E2F7C901092E000CAA0BBB0BFB01408126
:102C900051816281738184239523A623B72321E088
:102CA000892B8A2B8B2B09F420E0D4012C93D7019C
:102CB00011968C91F60123853485820F932F911DF7
:102CC000880E991E1486138663949BC0418150E040
:102CD000C4010E941A2CEBCF998206EF1FEFC5C0EA
:102CE0001982C3C0F981F111A0CFEDE07E9E700181
:102CF0001124AE85BF85CD90DC90CE0CDF1C15D4A1
:102D00009D838C83BB81BB2309F49ECF81E0EE853C
:102D1000FF8527853089232B09F080E0982E8823B2
:102D200009F458C0672D8E859F850DD8D601189659
:102D30009C938E93179761E070E0C2D4EE85FF8577
:102D4000218932892F3F320709F481CFBC01C901A3
:102D5000CFD7D60116969C938E931597D6011596CC
:102D60008D919C911697009709F4B6CFEC81FD8167
:102D70008E0F9F1F1A969C938E931997AE85BF85D1
:102D8000ED91FC911197EE0EFF1EF7012185328522
:102D9000148613861A968C91870DD9018D93711024
:102DA00016C0EE85FF85878184FF11C049855A854D
:102DB0006B857C85F9014183528363837483F701BA
:102DC000838594850496A80FB91F14861386F7018E
:102DD000B287A187D60115968D919C911697892B64
:102DE00009F443C0EE85FF852581368180911D025F
:102DF00090911E022817390779F019968D909C90B2
:102E0000612CD60112968C911297681608F424CF83
:102E10001A969C928E921997BE81BB2309F460CFBB
:102E200061E070E0F601878190854AD4D60117965B
:102E3000ED90FC90189715964D915C91E1E0F0E0D3
:102E4000BA81BB2311F0F0E0E0E00C811D819C0110
:102E5000B501882799278E1B9F0B6AD38C01892B7C
:102E600021F0F60185819681B7D57394D7CE0FEF07
:102E70001FEF8CCE10E000E00ECE2F923F924F92CB
:102E80005F926F927F928F929F92AF92BF92CF92FA
:102E9000DF92EF92FF920F931F93CF93DF93809176
:102EA00088039091890310E000E0892BA9F0C8DA2B
:102EB0000AEF1FEF882381F020908A0330908B0364
:102EC000C0918803D0918903D12CC12C10E000E07F
:102ED0002C143D04A9F47894C801DF91CF911F917F
:102EE0000F91FF90EF90DF90CF90BF90AF909F90A9
:102EF0008F907F906F905F904F903F902F900895AC
:102F0000C6010E947F0E882309F18B819C81039763
:102F1000E9F48F859889892BC9F0B60190E080E0AB
:102F20007BD221E030E0882311F030E020E044241F
:102F30005524421A530AB12CA12C912C812C8A8140
:102F40008815190409F038F4188A1F864FEFC41A3F
:102F5000D40A6396BDCFE881F981EA0DFB1D858116
:102F60009681892BA1F161E070E087819085A8D3DB
:102F70003C01DBD28C01E881F981EA0DFB1D8185E2
:102F8000928525813681200F311FAC01421B530BE6
:102F90009A0147815085421B530B70E060E00E940C
:102FA000232CE881F981EA0DFB1DE780F08445813F
:102FB00056819301B601C201BBD28C01892B39F035
:102FC000E881F981EA0DFB1D8581968105D55FEFCA
:102FD000851A950A8DE0A80EB11CB1CF31CA78943C
:102FE00008952F923F924F925F926F927F929F929D
:102FF000AF92BF92CF92DF92EF92FF920F931F9307
:10300000CF93DF9300D000D0CDB7DEB70091880317
:1030100010918903992493940115110509F43EC078
:10302000A0908A03B0908B030BDA982E8823B1F11D
:10303000109289031092880310928B0310928A03D6
:1030400010928C0310928D038FEF9FEFDC01809321
:10305000270290932802A0932902B0932A02789421
:103060007FD31E830D83C12CD12C7601C501B0E026
:10307000A0E089839A83AB83BC8322242A94322CD8
:1030800089819A81AB81BC81C816D906EA06FB0604
:10309000F4F0C801A1D480E40E94C00A892D2696CC
:1030A0000FB6F894DEBF0FBECDBFDF91CF911F9159
:1030B0000F91FF90EF90DF90CF90BF90AF909F90D7
:1030C0007F906F905F904F903F902F900895AD81CB
:1030D000BE8115968D919C91169720911D0230917D
:1030E0001E0282179307D1F451968D919C91EED5D3
:1030F000ED81FE8180819181B12CA12C412C512C3C
:103100003201892B89F5BFEFCB1ADB0AEB0AFB0AE8
:10311000ED81FE817396FE83ED83B2CFC114D1049D
:10312000E104F10429F7892B19F7ED81FE818189EA
:1031300092898F3F980709F029D5AD81BE815296BB
:103140003C922E925197D4CF8A0D9B1DDC018D911C
:103150009C91009709F040D4BFEF4B1A5B0A6B0AB1
:103160007B0AEDE0AE0EB11CAD81BE818D919C91CC
:10317000119712964C9150E070E060E044165506AD
:10318000660677060CF328D4BECFCF93DF93EA010F
:1031900028DF811109C082E090E09983888385EF60
:1031A0009FEFDF91CF91089581E090E00E94B20AF5
:1031B00081E090E09983888390E080E0F2CF11DF96
:1031C0001092850310928403089542E050E062EB70
:1031D00072E00C94D00AFF920F931F93CF93DF936A
:1031E0008A01EC01C60FD71FF980B9D20897F816EB
:1031F000190671F068F082E090E0F8019183808315
:103200008EEF9FEFDF91CF911F910F91FF90089567
:103210006C817D818E819F814B810E94650D811122
:1032200008C082E090E0F8019183808384EF9FEFF3
:10323000E9CFF9800E94600D4F2D50E0BE01685F1C
:103240007F4F0E941A2C89810E94CF0D81E090E06F
:10325000F8019183808390E080E0D4CFDF92EF92F9
:10326000FF920F931F93CF93DF938A01EC01C60F58
:10327000D71F0E94600D7C01D98071D2DD2059F0EA
:10328000029721E030E0D816190619F010F030E06E
:1032900020E0232B79F482E090E0F8019183808391
:1032A0008EEF9FEFDF91CF911F910F91FF90EF90E5
:1032B000DF900895EF2841F482E090E0F8019183D7
:1032C000808384EF9FEFEECFF9800E94600D4F2D39
:1032D00050E0BE016E5F7F4F0E941A2C89810E94D0
:1032E000CF0D81E090E0F8019183808390E080E051
:1032F000D9CF85EE98E190938F0380938E03089544
:1033000080918E0390918F0308950895FC0111829E
:103310001082938382830895DB011D921C92DC014D
:103320001296ED91FC9113977183608313967C93B1
:103330006E9312970895FC0180819181DB018D933A
:103340009C93A081B181109741F08D919C919183C4
:103350008083892B11F4F383E2830895FC0180813B
:103360009181DB018D939C93892B11F4738362838C
:10337000718360830895FC0111821082938382839C
:103380000895CF93DF931F921F92CDB7DEB71A82B5
:103390001982F894BE016F5F7F4F85E993E0CBDF20
:1033A00089819A81009709F017D389819A81892BA5
:1033B00089F7BE016F5F7F4F89E993E0BCDF8981A8
:1033C0009A81009709F008D389819A81892B89F71E
:1033D00078940F900F90DF91CF910895CF93DF9362
:1033E0001F921F92CDB7DEB71A821982F894BE01E0
:1033F0006F5F7F4F81E993E09EDF89819A8100971B
:1034000009F0EAD289819A81892B89F778940F9003
:103410000F90DF91CF91089581E0089590E080E0D2
:103420000895EF92FF920F931F93CF93DF931F9214
:103430001F92CDB7DEB71A8219828091900307EFF1
:103440001FEF8823A1F1F894BE016F5F7F4F89E9D8
:1034500093E071DF789489819A81EE24E394F12CD2
:10346000892B51F4F894BE016F5F7F4F85E993E09B
:1034700062DF7894F12CE12C89819A810EEF1FEFA5
:103480000097A9F0FC014281538164E070E074D69A
:103490008C01892B61F0F89469817A81C701880FCA
:1034A000991F880F991F8B569C4F58DF7894C8013D
:1034B0000F900F90DF91CF911F910F91FF90EF90A0
:1034C00008950F931F93CF93DF9300D01F92CDB732
:1034D000DEB71C821B821A8219828091900307EF4B
:1034E0001FEF8823C1F0AE014D5F5F4F64E070E0D5
:1034F000CE010196B4D68C01892B69F4E981FA8159
:103500008B819C8193838283F89469817A8181E99C
:1035100093E002DF7894C8010F900F900F900F9006
:10352000DF91CF911F910F910895B9D70496089517
:103530008F929F92AF92BF92CF92DF92EF92FF92C3
:103540000F931F93CF93DF931F921F92CDB7DEB7D8
:103550001A821982BC016F5F7F4F6330710598F04A
:10356000AA24AA94BA2CC5010F900F90DF91CF9195
:103570001F910F91FF90EF90DF90CF90BF90AF9091
:103580009F908F9008954115510551F348015901BD
:103590008A016C01CADF8815990511F7E114F1045D
:1035A000F9F28E0D9F1DA816B906D0F280919003F6
:1035B0008823F1F0F894B501645071099701AE01C8
:1035C0004F5F5F4FC8010496DFD65C01892B71F411
:1035D00089819A81F80193838283C601880F991F9C
:1035E000880F991FB8018B569C4F96DE7894BBCFFD
:1035F00087EFA82EBB24BA94B6CFAF92BF92CF92DA
:10360000DF92EF92FF920F931F93CF93DF931F925E
:103610001F92CDB7DEB71A821982892B09F047C0F5
:103620006115710509F443C04115510509F43FC006
:103630002115310509F43BC001151105C1F1809137
:1036400090038823B9F179016A015B01F894BE0106
:103650006F5F7F4F81E993E06EDE789489819A8174
:10366000009759F1DC0112966D917C91A8010496A6
:10367000A4D68C01E981FA81D501ED93FC93828176
:1036800093810496F601918380834FDFD7018D9358
:103690009C93C8010F900F90DF91CF911F910F91D4
:1036A000FF90EF90DF90CF90BF90AF9008950FEF15
:1036B0001FEFEFCF07EF1FEFECCF0EEF1FEFE9CFBC
:1036C000CF93DF93EC01672B71F4F2D68C179D0733
:1036D00060F0E5D62496C80FD91FE4D68C0F9D1F45
:1036E000DF91CF910895E1D6F1CF90E080E0F8CF5F
:1036F0000F931F93CF93DF932091900321112BC041
:103700008B01EC0185E993E001DE89E993E0FEDDC0
:1037100081E993E0FBDD97D00097C1F4C9D670E052
:1037200060E0CEDF4BE252E062E070E081D10097D2
:1037300069F480912B0290912C02CCD6B801CE0175
:1037400001D5009719F421E020939003DF91CF91E8
:103750001F910F91089584EF9FEFF8CFA6C6A8C6DA
:10376000CF93DF93A8D6EC01892B11F40ADE36DE65
:10377000CE01DF91CF910895CF93DF939CD6EC01DA
:10378000892B09F4FEDDCE01DF91CF910895809160
:103790002B0290912C020895CF93DF938091900398
:1037A000D0E0C0E08823D1F09AD6EC01892BB1F4A7
:1037B000E8DD14DE80912B0290912C02E7D1E8D253
:1037C000EC01892B59F485E993E0D5DD89E993E093
:1037D000D2DD81E993E0CFDD10929003CE01DF913D
:1037E000CF910895EF92FF920F931F93CF93DF93A2
:1037F000EC017A018B010F5F1F4F0E9DA0010F9D01
:10380000500D1E9D500D112470E060E00E94232C8D
:1038100090E080E0F0E0E0E02FEFE816F90639F400
:10382000DF91CF911F910F91FF90EF9008951A8231
:1038300019822883309711F0D283C1830196FE014B
:10384000C00FD11FEACFCF92DF92EF92FF920F937A
:103850001F93CF93DF930AEB14E00C7F43E050E01B
:103860006DE272E083E392E01AD48DE2E82E82E00A
:10387000F82E93E3C92E92E0D92EC9E2D5E0D70104
:103880004D915D917D01F601619171916F011983F7
:1038900008835D834C835B834A837F836E839B01B4
:1038A0002F5F3F4F249FC001259F900D349F900DA7
:1038B0001124998788870115110511F0C80192DF3D
:1038C00088859985080F191F2A96F3E3EF16F2E011
:1038D000FF06A9F6EFE9F3E088E191E0DF019C0142
:1038E0001D9221503040E1F710929E0310929D03EB
:1038F000109248051092470510924C0510924B0506
:1039000010924A051092490510924E0510924D05ED
:103910001092500510924F051092520510925105C9
:1039200010925605109255051092540510925305A9
:10393000109258051092570510925A051092590589
:103940001092260510922505109228051092270541
:1039500090E080E0DF91CF911F910F91FF90EF9069
:10396000DF90CF9008950097F1F0F894A3E3B2E0D0
:10397000E9E2F5E030E020E04D915D91481759070C
:10398000A8F0428153814115510581F08AE0829F60
:10399000F001839FF00D1124E75DFA4F8081918142
:1039A000009759F4789490E080E008952F5F3F4F9E
:1039B0003A962330310501F7F5CFDC0111966D9170
:1039C0007C91718360834150510953834283FC0190
:1039D0002193CF0178940895009749F1DC018E91ED
:1039E000853041F4E0912705F09128053097F9F0F2
:1039F000CD0119948530D8F4282F30E0F8948FEF5A
:103A00008C938AE0829FF001839FF00D1124E75D83
:103A1000FA4F8081918112969C938E931197B18376
:103A2000A083828193810196938382837894089501
:103A3000CF92DF92EF92FF920F931F93CF93DF937A
:103A40009C0182EA93E08C7F4115510509F49BC0EB
:103A50002115310509F497C06115710509F493C06A
:103A60007A01AB01B9016D5F7F4F6C7F9B012F5FC6
:103A70003F4F249F8001259F100D349F100D11246E
:103A8000F8942091470530914805232B59F4209153
:103A90004F05309150052115310569F12017310787
:103AA00008F058C02091510530915205232B91F414
:103AB00020914F0530915005820F931F2091590599
:103AC00030915A052115310509F441C020173107FD
:103AD00008F056C07894CFEFDFEF86EF9FEFF70145
:103AE000D183C083DF91CF911F910F91FF90EF9011
:103AF000DF90CF900895C3E0D0E0C0909D03D090B8
:103B00009E0325E131E02C193D092017310710F300
:103B10002AE02C9FF0012D9FF00D1124E75DFA4F54
:103B20009183808355834483538342837783668361
:103B300011870087009709F055DE0C0D1D1D1093AD
:103B40009E0300939D03789490E080E0C8CFC4E08A
:103B5000D0E0D3CFC3E0D0E02AE02C9FF0012D9F2E
:103B6000F00D1124E75DFA4F9183808355834483E0
:103B70005383428377836683009729F333DEE3CF51
:103B8000C4E0D0E0E9CF8FEF9FEFACCF9C0103976B
:103B9000029708F069C0F89484E09AE0482F50E05A
:103BA000241735070CF44DC091E08AE0829FF001A4
:103BB000839FF00D1124E75DFA4F11821082158268
:103BC000148213821282178216829923B1F1809196
:103BD000470590914805892BA9F420914F05309114
:103BE00050052115310571F080919D0390919E0340
:103BF000821B930B90939E0380939D03109250051C
:103C000010924F058091510590915205892BA9F48E
:103C10002091590530915A052115310571F0809197
:103C20009D0390919E03821B930B90939E03809320
:103C30009D0310925A0510925905789490E080E007
:103C40000895949FF001959FF00D1124E75DFA4FC0
:103C500040815181452B31F440855185452B11F42C
:103C600081509CCF90E0A1CF8FEF9FEF0895411539
:103C7000510549F1009739F16115710521F1F89469
:103C80002091250530912605232BB9F42091270595
:103C900030912805232B89F49093260580932505E0
:103CA0007093280560932705789425E030E090E034
:103CB00080E0FA0131832083089578942FEF3FEF5D
:103CC00086EF9FEFF6CF8FEF9FEF0895059769F48A
:103CD000F89410922605109225051092280510924E
:103CE0002705789490E080E008958FEF9FEF089586
:103CF0006115710519F4F0E0E0E011C0853091051F
:103D000081F4E0912505F09126053097A1F3CB01D0
:103D100001961995009779F3FC0185E08193CF0115
:103D200008959C01235031092230310520F72AE003
:103D3000289FD001299FB00D1124A75DBA4F2D9166
:103D40003C911197232BB9F216962D913C91179720
:103D50002617370780F2F89412962D913C9113970D
:103D60002115310529F0ED91FC911197309711F44F
:103D70007894C1CF4181528111965C934E9321502A
:103D8000310913963C932E93129781937894C7CF61
:103D9000E7EBF4E08EE6DF011D928A95E9F7EFE9A3
:103DA000F3E088E191E0DF019C011D922150304059
:103DB000E1F710929E0310929D03E9E2F5E082E3A1
:103DC000DF011D928A95E9F7E5E2F5E084E0DF0185
:103DD0001D928A95E9F790E080E00895CF93DF93F4
:103DE000C0913902D0913A02CF3FDC0759F420D478
:103DF00090933A028093390297FF09C0D0933A0218
:103E0000C093390284EF9FEFDF91CF91089590E046
:103E100080E0FACF8230910528F480935B0590E032
:103E200080E008958FEF9FEF08954F925F926F9219
:103E30007F92AF92BF92CF92DF92EF92FF920F9359
:103E40001F93CF93DF931F921F92CDB7DEB71A82D5
:103E50001982009709F478C06115710509F474C0DE
:103E60002091390230913A0207EF1FEF2F3F3F4F69
:103E700009F444C06B015C01412C512C3201F12C3E
:103E8000E12C10E000E09E012F5F3F4FA6014E198C
:103E90005F09B5016E0D7F1D8091390290913A0244
:103EA00026D4892B09F04AC089819A81009741F470
:103EB000E114F10429F420915B05222309F441C0A7
:103EC000E80EF91EEC14FD04C8F480E8481684E8F6
:103ED00058068EE16806710418F560E070E0CB01C9
:103EE00054D72AE0420E511C611C711C0A3F4FEF4F
:103EF000140721F0043F8FEF1807A1F4C8010F90B9
:103F00000F90DF91CF911F910F91FF90EF90DF9075
:103F1000CF90BF90AF907F906F905F904F9008953B
:103F200001EF1FEF81E090E0013F2FEF120711F04A
:103F300090E080E0892B09F4A6CFE0CF04EF1FEFDB
:103F4000DDCF0AEF1FEFDACF0FEF1FEFD7CF4F9282
:103F50005F926F927F92AF92BF92CF92DF92EF9279
:103F6000FF920F931F93CF93DF931F921F92CDB7B2
:103F7000DEB71A821982009709F478C061157105BD
:103F800009F474C02091390230913A0207EF1FEF13
:103F90002F3F3F4F09F444C06B015C01412C512C71
:103FA0003201F12CE12C10E000E09E012F5F3F4F29
:103FB000A6014E195F09B5016E0D7F1D8091390272
:103FC00090913A024AD3892B09F04AC089819A819B
:103FD000009741F4E114F10429F420915B052223B8
:103FE00009F441C0E80EF91EEC14FD04C8F480E4A5
:103FF000481682E458068FE06806710418F560E000
:1040000070E0CB01C2D62AE0420E511C611C711C2B
:104010000E3F4FEF140721F0043F8FEF1807A1F474
:10402000C8010F900F90DF91CF911F910F91FF90DA
:10403000EF90DF90CF90BF90AF907F906F905F90A8
:104040004F90089502EF1FEF81E090E0023F2FEFC5
:10405000120711F090E080E0892B09F4A6CFE0CFA1
:1040600004EF1FEFDDCF0EEF1FEFDACF0FEF1FEFE3
:10407000D7CF8091390290913A028F3F980749F04B
:10408000CFD2892B49F48FEF9FEF90933A02809320
:10409000390290E080E0089584EF9FEF0895CF9279
:1040A000DF92EF92FF920F931F93CF93DF9321E064
:1040B0004115510509F020E04150510921112CC052
:1040C000DC01FB01D12CC12C21E022C03FEFC31A3F
:1040D000D30A7D010D911D91E701EA80FB80E01676
:1040E000F106A8F420813181E280F380F182E08240
:1040F00033832283ED90FC9011979D01225031096A
:10410000E901F982E88211961C930E9320E0329621
:10411000C416D506D8F2D2CFDF91CF911F910F915F
:10412000FF90EF90DF90CF900895FC01680F791F0A
:1041300090E080E0E617F70709F408952191820FD7
:10414000911DF8CF20915C05211113C047DE009727
:1041500091F4109262051092610510926005109220
:104160005F0510925E0510925D0521E020935C05CD
:10417000089584EF9FEF0895AF92BF92CF92DF92A0
:10418000EF92FF920F931F93CF93DF93009709F461
:1041900060C04630510508F45CC020915C05C7EF53
:1041A000DFEF222309F449C08C01060F171FF80125
:1041B000C080D180C114D10409F44EC096012A5F99
:1041C0003F4F4217530708F447C07C0180916105B7
:1041D0009091620593838283B6016C5F7F4F580193
:1041E000A60EB71EC801A1DFF5019183808364E0AC
:1041F00070E0C8011ADEEC01892BF9F481E090E04F
:1042000009DEB601C801049610DEEC01892B91F499
:1042100062E070E0C50109DEEC01892B59F4C701A9
:10422000DBDB8091610590916205019690936205B8
:104230008093610590E080E0EDDDCE01DF91CF91CC
:104240001F910F91FF90EF90DF90CF90BF90AF90B4
:104250000895CFEFDFEFF1CFC9EFDFEFEECF6F9231
:104260007F928F929F92AF92BF92CF92DF92EF9206
:10427000FF920F931F93CF93DF9300D01F92CDB780
:10428000DEB7009709F47AC04115510509F476C0EC
:1042900020915C0507EF1FEF222309F44DC03A017E
:1042A0007B015C0164E070E0CE01019650DE8C0180
:1042B000892B09F041C009811A810115110509F402
:1042C0005AC0480186E0880E911CB701680D791D1F
:1042D00080913B0290913C020BDD6C01009709F448
:1042E00050C0A70170E060E00E94232C89819A8170
:1042F000AB81BC81EC0CFD1CF70181939193A193E0
:10430000B1937F0181E090E085DDB801C7011FDE38
:10431000892B31F562E070E0C701800F911F17DE35
:104320008C01892BE9F490E080E074DDF501D18205
:10433000C082F30191828082C8010F900F900F908C
:104340000F90DF91CF911F910F91FF90EF90DF9031
:10435000CF90BF90AF909F908F907F906F90089577
:1043600090E080E057DDF50111821082F3011182A7
:104370001082C60131DB09EF1FEFDECF0FEF1FEF19
:10438000DBCF06EF1FEFD8CF0097A1F04115510505
:1043900089F02115310571F0F90136966E177F0706
:1043A00048F0DC012D933C93DA01ED93FC9390E00F
:1043B00080E008958FEF9FEF0895AF92BF92CF9264
:1043C000DF92EF92FF920F931F93CF93DF930097AB
:1043D00009F45FC04115510509F45BC065307105F2
:1043E00008F457C020915C05C7EFDFEF222391F15D
:1043F000DC01CD90DC9011971296ED91FC91960125
:104400002A5F3F4FC9EFDFEF2617370719F5C09135
:104410005D05D0915E05209749F521E030E03093AD
:104420005E0520935D057A018C01F0936005E093B1
:104430005F055601B4E0AB0EB11CB50176DE0A0D86
:104440001B1DF801208131818217930729F5D701BF
:10445000CD92DC92CE01DF91CF911F910F91FF9011
:10446000EF90DF90CF90BF90AF90089520915F05BF
:10447000309160052F5F3F4FCCEFDFEFE217F3077E
:1044800090F2CBEFDFEF2E173F0768F2D0E0C0E0ED
:10449000CACFCFEFDFEFDECFC3EFDFEFDBCF84E0BC
:1044A00090E0089582E090E008958CEF9FEF0895EA
:1044B00080E290E0089510926205109261051092DA
:1044C000600510925F0510925E0510925D0590E008
:1044D00080E0089590933C0280933B020895809180
:1044E0005C05882391F0C5DD009789F41092620580
:1044F000109261051092600510925F0510925E05A2
:1045000010925D0510925C05089590E080E008959A
:10451000009749F06115710531F0FC01118210829C
:10452000FB01118210820895F3CF26E030E040E8CD
:1045300055E260E070E090E080E000C081309105DD
:1045400069F01CF4892B39F008958230910549F007
:10455000039751F0089580E795E048C68DE096E016
:10456000FCCF8AEA96E0F9CF87E497E0F6CF1F9276
:104570000F920FB60F9211240BB60F922F933F9309
:104580004F935F936F937F938F939F93AF93BF935B
:10459000EF93FF9387EF92EC909325018093240192
:1045A000BAD0FF91EF91BF91AF919F918F917F9181
:1045B0006F915F914F913F912F910F900BBE0F9094
:1045C0000FBE0F901F90189587EF92EC90932501E6
:1045D00080932401A3E7B0E08C918E7F8C93E0E27E
:1045E000F1E080818C7F8083E1E2F1E08081877E51
:1045F000808380818460808380818C7F80838C91A4
:1046000081608C930895E3E7F0E0808190819E7F44
:1046100090838170089581E0089510926305089554
:1046200068EE73E080E090E0B0D390E080E0089521
:1046300026E030E040E050E16EE070E090E080E0A5
:104640007DDF80E795E008D5892B21F080E795E0B4
:104650001DD5F7CF90E080E00895CF92DF92EF92E2
:10466000FF920F931F93CF93DF936B017A01E901C0
:104670001982188280E795E0EFD4892B69F18601D1
:10468000CC24C39482E0D82E80916305811110C0A0
:1046900080E795E0FBD40297B9F7C0926305F80173
:1046A000D1928F0188819981019699838883ECCF7B
:1046B000888199818E159F0578F480E795E0E6D48E
:1046C0008F3F9807A9F3F80181938F018881998121
:1046D000019699838883ECCF90E080E0DF91CF91C1
:1046E0001F910F91FF90EF90DF90CF9008950F935F
:1046F0001F93CF93DF93EA01890180E795E00E9441
:10470000862BF801D183C08390E080E0DF91CF91C8
:104710001F910F910895CF92DF92EF92FF928091B7
:10472000640591E0980F90936405882369F021E077
:1047300030E0309366052093650580936405FF9013
:10474000EF90DF90CF9008957894E0913E02F09141
:104750003F02C28CD38CE48CF58C0E941203B7010B
:10476000A60190E080E00E943602F89480916405F2
:104770008150E3CF0F931F93CF93DF9310920108E3
:104780001092000838D3D1DEC0913E02D0913F0292
:10479000198218826FEF7FEFCB010E94B80270E0A0
:1047A00060E090E080E00E943A01009709F03AC092
:1047B0000E94FB03F8947894BE016E5D7F4F8A815E
:1047C0009B810E943D01892B59F46FEF7FEFCB0154
:1047D0000E94CC010E94B202882311F081E08EA3D6
:1047E000F894F2DE0E94B502882311F080E008C040
:1047F0000E94B2028111FACF81E09EA19111F6CF01
:104800008093000878940E94AD0A8C01789480917E
:10481000000881110CC00E9478040E949802F8944C
:1048200090E080E0DF91CF911F910F9108950E9459
:1048300096020E94B5028823D9F081E08093010896
:104840009091010881E0911180E0809300088091AF
:1048500001088111D8DE0130110529F40E94AD0A4A
:10486000892B09F4DADE0E94AD0A8C01D4DECFCFA9
:104870000E94B2028111E1CF81E09EA19111DECFB1
:1048800080E0DCCF5058BB27AA270ED057C148D1B3
:1048900030F04DD120F031F49F3F11F41EF43DC1B2
:1048A0000EF4E095E7FB0AC1E92F59D180F3BA175E
:1048B000620773078407950718F071F49EF588C1A5
:1048C0000EF4E0950B2EBA2FA02D0B01B90190012B
:1048D0000C01CA01A0011124FF27591B99F0593F6F
:1048E00050F4503E68F11A16F040A22F232F342FB7
:1048F0004427585FF3CF469537952795A795F04005
:104900005395C9F77EF41F16BA0B620B730B840B19
:10491000BAF09150A1F0FF0FBB1F661F771F881FD1
:10492000C2F70EC0BA0F621F731F841F48F4879529
:1049300077956795B795F7959E3F08F0B3CF939518
:10494000880F08F09927EE0F97958795089529D13C
:1049500080F09F3740F491110EF43BC160E070E0AD
:1049600080E89FE3089526F01B16611D711D811DCF
:10497000ABC0C5C07FD008F481E00895F8D088F0BE
:104980009F5790F0B92F9927B751A0F0D1F0660F3B
:10499000771F881F991F1AF0BA95C9F712C0B13056
:1049A00081F016D1B1E0089513C1672F782F8827C1
:1049B000B85F39F0B93FCCF3869577956795B39595
:1049C000D9F73EF490958095709561957F4F8F4F04
:1049D0009F4F0895E89409C097FB3EF49095809509
:1049E000709561957F4F8F4F9F4F9923A9F0F92FB5
:1049F00096E9BB279395F695879577956795B79533
:104A0000F111F8CFFAF4BB0F11F460FF1BC06F5F18
:104A10007F4F8F4F9F4F16C0882311F096E911C02A
:104A2000772321F09EE8872F762F05C0662371F04B
:104A300096E8862F70E060E02AF09A95660F771F5F
:104A4000881FDAF7880F9695879597F90895A9D06A
:104A500080F09F3740F491110EF0BBC060E070E031
:104A600080E89FEB089526F41B16611D711D811DC2
:104A70002BC045C0990F0008550FAA0BE0E8FEEFC8
:104A800016161706E807F907C0F012161306E40712
:104A9000F50798F0621B730B840B950B39F40A260B
:104AA00061F0232B242B252B21F408950A2609F4E9
:104AB000A140A6958FEF811D811D089597F99F67ED
:104AC00080E870E060E00895882371F4772321F096
:104AD0009850872B762F07C0662311F499270DC0B5
:104AE0009051862B70E060E02AF09A95660F771F50
:104AF000881FDAF7880F9695879597F908959F3F55
:104B000031F0915020F4879577956795B795880F88
:104B1000911D9695879597F908959FEF80EC0895DC
:104B200000240A941616170618060906089500248C
:104B30000A9412161306140605060895092E039406
:104B4000000C11F4882352F0BB0F40F4BF2B11F47A
:104B500060FF04C06F5F7F4F8F4F9F4F089557FDD9
:104B60009058440F551F59F05F3F71F04795880FDB
:104B700097FB991F61F09F3F79F087950895121672
:104B800013061406551FF2CF4695F1DF08C016161E
:104B900017061806991FF1CF8695710561050894CF
:104BA0000895E5DFA0F0BEE7B91788F4BB279F386A
:104BB00060F41616B11D672F782F8827985FF7CFFE
:104BC000869577956795B11D93959639C8F30895A5
:104BD000E894BB2766277727CB0197F908954ADF2A
:104BE00008F48FEF08950BD0A9CF9ADF28F09FDF4C
:104BF00018F0952309F062CF90CF1124EACFAFDFF0
:104C0000A0F3959FD1F3950F50E0551F629FF001DF
:104C1000729FBB27F00DB11D639FAA27F00DB11D38
:104C2000AA1F649F6627B00DA11D661F829F2227C1
:104C3000B00DA11D621F739FB00DA11D621F839F48
:104C4000A00D611D221F749F3327A00D611D231F1E
:104C5000849F600D211D822F762F6A2F11249F576C
:104C600050408AF0E1F088234AF0EE0FFF1FBB1F8F
:104C7000661F771F881F91505040A9F79E3F51052E
:104C800070F01CCFA6CF5F3FECF3983EDCF3869527
:104C900077956795B795F795E7959F5FC1F7FE2BD9
:104CA000880F911D9695879597F908951F920F92F9
:104CB0000FB60F9211242F933F938F939F93AF932F
:104CC000BF938091680590916905A0916A05B091A4
:104CD0006B053091670523E0230F2D3758F50196BA
:104CE000A11DB11D20936705809368059093690508
:104CF000A0936A05B0936B0580916C0590916D054A
:104D0000A0916E05B0916F050196A11DB11D809314
:104D10006C0590936D05A0936E05B0936F05BF91E0
:104D2000AF919F918F913F912F910F900FBE0F9058
:104D30001F90189526E8230F0296A11DB11DD2CF12
:104D40003FB7F89480916C0590916D05A0916E0528
:104D5000B0916F0526B5A89B05C02F3F19F00196AD
:104D6000A11DB11D3FBFBA2FA92F982F8827BC01C5
:104D7000CD01620F711D811D911D42E0660F771FED
:104D8000881F991F4A95D1F708958F929F92AF92ED
:104D9000BF92CF92DF92EF92FF926B017C01D0DF46
:104DA0004B015C01C114D104E104F104D9F0DBD45E
:104DB000C7DF681979098A099B09683E7340810534
:104DC000910580F321E0C21AD108E108F10888EECC
:104DD000880E83E0981EA11CB11CC114D104E1040B
:104DE000F10431F7FF90EF90DF90CF90BF90AF903C
:104DF0009F908F900895789484B5826084BD84B527
:104E0000816084BD85B5826085BD85B5816085BDC5
:104E1000EEE6F0E0808181608083E1E8F0E01082DE
:104E2000808182608083808181608083E0E8F0E01F
:104E3000808181608083E1EBF0E080818460808309
:104E4000E0EBF0E0808181608083E1E9F0E0808147
:104E500082608083808181608083E0E9F0E08081EE
:104E600081608083E1EAF0E08081826080838081DC
:104E700081608083E0EAF0E0808181608083E1E20C
:104E8000F1E0808182608083808181608083E0E2C4
:104E9000F1E0808181608083EAE7F0E080818460D6
:104EA0008083808182608083808181608083808133
:104EB000806880831092C10008958150823108F08B
:104EC00059C0E82FF0E08827E859F84D8F4F91C47A
:104ED00088278C277A2780278427BA278F2795272A
:104EE00099279F27A327A727AD27B127BA27B5273B
:104EF000BB27BF27809180008F7780938000089523
:104F0000809180008F7DF9CF80918000877FF5CFE1
:104F100084B58F7784BD089584B58F7DFBCF809154
:104F2000B0008F778093B00008958091B0008F7D9E
:104F3000F9CF809190008F778093900008958091B1
:104F400090008F7DF9CF80919000877FF5CF809181
:104F5000A0008F778093A00008958091A0008F7D9E
:104F6000F9CF8091A000877FF5CF809120018F77C6
:104F7000809320010895809120018F7DF9CF809149
:104F80002001877FF5CFCF93DF9390E0FC01E65DB2
:104F9000FE4F249180599E4FFC0184918823C9F0D3
:104FA00090E0880F991FFC01E053FE4FA591B4914A
:104FB000FC01EA54FE4FC591D49161110DC09FB719
:104FC000F8948C91209582238C93888128232883C0
:104FD0009FBFDF91CF910895623051F49FB7F8944D
:104FE0003C91822F809583238C93E8812E2BEFCFE9
:104FF0008FB7F894EC912E2B2C938FBFEACF1F9391
:10500000CF93DF93282F30E0F901EC51FF4F8491CB
:10501000F901E65DFE4FD491F901E059FE4FC491CC
:10502000CC23A1F0162F811148DFEC2FF0E0EE0F1A
:10503000FF1FEA54FE4FA591B4918FB7F894EC91FD
:10504000111108C0D095DE23DC938FBFDF91CF9183
:105050001F910895DE2BF8CFFC01918D228D892FB1
:1050600090E0805C9F4F821B91098F739927089570
:10507000FC01918D828D981731F0828DE80FF11D22
:10508000858D90E008958FEF9FEF0895FC01918D3D
:10509000828D981761F0A28DAE0FBF2FB11D5D9666
:1050A0008C91928D9F5F9F73928F90E008958FEF08
:1050B0009FEF0895FC01538D448D252F30E0842F00
:1050C00090E0821B930B541710F0CF960895019730
:1050D0000895FC01A48DA80FB92FB11DA35ABF4F8D
:1050E0002C91848D90E001968F739927848FA689E7
:1050F000B7892C93A089B1898C91837080648C933B
:10510000938D848D981306C00288F389E02D8081E9
:105110008F7D80830895CF93DF93EC01888D882362
:10512000B1F0AA89BB89E889F9898C9185FD03C012
:10513000808186FD0CC00FB607FCF7CF8C9185FFF0
:10514000F2CF808185FFEDCFCE01C3DFEACFDF91C3
:10515000CF910895EF92FF920F931F93CF93DF9318
:10516000EC0181E0888F9B8D8C8D98131AC0E889A3
:10517000F989808185FF15C09FB7F894EE89FF8972
:105180006083E889F98980818370806480839FBF10
:1051900081E090E0DF91CF911F910F91FF90EF9010
:1051A0000895F62E0B8D10E00F5F1F4F0F73112720
:1051B000E02E8C8D8E110BC00FB607FCFACFE8895C
:1051C000F989808185FFF5CFCE0183DFF2CFEB8DAA
:1051D000EC0FFD2FF11DE35AFF4FF0829FB7F894BB
:1051E0000B8FEA89FB8980818062D0CFCF92DF92DA
:1051F000EF92FF921F93CF93DF93EC016A017B0143
:10520000122FE889F98982E08083C11481EED806E3
:10521000E104F10499F060E079E08DE390E0A7010A
:105220009601C5D22150310941095109569547953A
:1052300037952795211580E1380790F0E889F9899D
:10524000108260E874E88EE190E0A7019601AFD289
:1052500021503109410951095695479537952795B0
:10526000EC85FD853083EE85FF852083188EEC89E3
:10527000FD891083EA89FB89808180618083EA89C6
:10528000FB89808188608083EA89FB8980818068CE
:105290008083EA89FB8980818F7D8083DF91CF9134
:1052A0001F91FF90EF90DF90CF9008951F920F9283
:1052B0000FB60F9211240BB60F922F938F939F93DB
:1052C000EF93FF93E0918005F09181058081E0915B
:1052D0008605F091870582FD1DC09081809189052A
:1052E0008F5F8F7320918A05821741F0E0918905C5
:1052F000F0E0E059FA4F958F80938905FF91EF9187
:105300009F918F912F910F900BBE0F900FBE0F901A
:105310001F9018958081F2CF1F920F920FB60F92B7
:1053200011240BB60F922F933F934F935F936F937C
:105330007F938F939F93AF93BF93EF93FF9380E7F8
:1053400095E0C7DEFF91EF91BF91AF919F918F9153
:105350007F916F915F914F913F912F910F900BBE75
:105360000F900FBE0F901F901895E0E7F5E01382A5
:10537000128288EE93E0A0E0B0E084839583A68358
:10538000B78382EC92E09183808385EC90E09587EF
:10539000848784EC90E09787868780EC90E0918BFF
:1053A000808B81EC90E0938B828B82EC90E0958BEC
:1053B000848B86EC90E0978B868B118E128E138EE9
:1053C000148E08951F920F920FB60F9211240BB6F0
:1053D0000F922F938F939F93EF93FF93E0911D066E
:1053E000F0911E068081E0912306F091240682FD53
:1053F0001DC09081809126068F5F8F7320912706B4
:10540000821741F0E0912606F0E0E35FF94F958FB7
:1054100080932606FF91EF919F918F912F910F908E
:105420000BBE0F900FBE0F901F9018958081F2CF8A
:105430001F920F920FB60F9211240BB60F922F935B
:105440003F934F935F936F937F938F939F93AF930C
:10545000BF93EF93FF938DE096E03BDEFF91EF91DA
:10546000BF91AF919F918F917F916F915F914F917C
:105470003F912F910F900BBE0F900FBE0F901F907A
:105480001895EDE0F6E01382128288EE93E0A0E03A
:10549000B0E084839583A683B78382EC92E0918306
:1054A00080838DEC90E0958784878CEC90E09787E3
:1054B000868788EC90E0918B808B89EC90E0938BD1
:1054C000828B8AEC90E0958B848B8EEC90E0978BAE
:1054D000868B118E128E138E148E08951F920F924A
:1054E0000FB60F9211240BB60F922F938F939F93A9
:1054F000EF93FF93E091BA06F091BB068081E091B3
:10550000C006F091C10682FD1DC090818091C30646
:105510008F5F8F732091C406821741F0E091C3061C
:10552000F0E0E655F94F958F8093C306FF91EF9118
:105530009F918F912F910F900BBE0F900FBE0F90E8
:105540001F9018958081F2CF1F920F920FB60F9285
:1055500011240BB60F922F933F934F935F936F934A
:105560007F938F939F93AF93BF93EF93FF938AEAB9
:1055700096E0AFDDFF91EF91BF91AF919F918F9139
:105580007F916F915F914F913F912F910F900BBE43
:105590000F900FBE0F901F901895EAEAF6E0138265
:1055A000128288EE93E0A0E0B0E084839583A68326
:1055B000B78382EC92E09183808385ED90E09587BC
:1055C000848784ED90E09787868780ED90E0918BCB
:1055D000808B81ED90E0938B828B82ED90E0958BB8
:1055E000848B86ED90E0978B868B118E128E138EB6
:1055F000148E08951F920F920FB60F9211240BB6BE
:105600000F922F938F939F93EF93FF93E091570700
:10561000F09158078081E0915D07F0915E0782FD6F
:105620001DC09081809160078F5F8F73209161070B
:10563000821741F0E0916007F0E0E95BF84F958F49
:1056400080936007FF91EF919F918F912F910F9021
:105650000BBE0F900FBE0F901F9018958081F2CF58
:105660001F920F920FB60F9211240BB60F922F9329
:105670003F934F935F936F937F938F939F93AF93DA
:10568000BF93EF93FF9387E497E023DDFF91EF91C2
:10569000BF91AF919F918F917F916F915F914F914A
:1056A0003F912F910F900BBE0F900FBE0F901F9048
:1056B0001895E7E4F7E01382128288EE93E0A0E009
:1056C000B0E084839583A683B78382EC92E09183D4
:1056D000808385E391E09587848784E391E09787D1
:1056E000868780E391E0918B808B81E391E0938BBF
:1056F000828B82E391E0958B848B86E391E0978B9C
:10570000868B118E128E138E148E0895AF92BF92D7
:10571000CF92DF92EF92FF920F931F93CF93DF937D
:105720006C017B018B01040F151FEB015E01AE18AC
:10573000BF08C017D10759F06991D601ED91FC91CE
:105740000190F081E02DC6011995892B79F7C501EB
:10575000DF91CF911F910F91FF90EF90DF90CF904D
:10576000BF90AF9008950895DB018F939F9349D028
:10577000BF91AF91A29F800D911DA39F900DB29FED
:10578000900D11240895AA1BBB1B51E107C0AA1F4D
:10579000BB1FA617B70710F0A61BB70B881F991FD2
:1057A0005A95A9F780959095BC01CD010895A1E285
:1057B0001A2EAA1BBB1BFD010DC0AA1FBB1FEE1F8B
:1057C000FF1FA217B307E407F50720F0A21BB30BD6
:1057D000E40BF50B661F771F881F991F1A9469F752
:1057E00060957095809590959B01AC01BD01CF01AE
:1057F0000895EE0FFF1F881F8BBF0790F691E02DD5
:10580000199409D0A59F900DB49F900DA49F800D71
:10581000911D11240895A29FB001B39FC001A39FC1
:10582000700D811D1124911DB29F700D811D1124D9
:10583000911D0895FB01DC0102C001900D924150C1
:105840005040D8F70895DC0101C06D93415050409D
:08585000E0F70895F894FFCF82
:10585800000000000000803F000000400000803F82
:1058680000000000FEFFFFFF01E8030000FFFF004B
:10587800000000FFFFFFFFFFFFFFFFFFFF01000128
:10588800000100200038001000FFFFFFFF01E602C2
:10589800FF00020D2E0DFE00E80C690AFD007A0CCF
:1058A800D40CFC00C00C690AF600B10D690AF500B9
:1058B800870CF00DF4007A0D070EDE002E12C714C7
:1058C800DD009D13690ADA00D70FDF0FD900E21453
:1058D800EF0FE200BF0E690AE100FA0E690AE00064
:1058E8006F0F690AD600C518690AD5007C11690AC4
:1058F800D4000811690AD3007910690AC000FE0FA4
:10590800690AF0002E19690AED00EB18690A00000F
:105918000000AA28862B5A288B282C2846283828A5
:00000001FF
