:10000000F8C0000027C1000025C1000023C1000086
:1000100021C100001FC100001DC100001BC1000064
:1000200019C1000017C1000015C1000013C1000074
:1000300011C100000FC100000DC100000BC1000084
:1000400009C1000007C1000005C1000003C1000094
:1000500001C10000FFC00000FDC000000C946E282C
:10006000F9C000000C94422C0C94782CF3C00000D2
:10007000F1C00000EFC00000EDC00000EBC00000C8
:10008000E9C00000E7C00000E5C00000E3C00000D8
:100090000C94CE2C0C94042DDDC00000DBC00000BD
:1000A000D9C00000D7C00000D5C00000D3C00000F8
:1000B000D1C00000CFC00000CDC00000CBC0000008
:1000C000C9C00000C7C000000C94CA240C945A2D6B
:1000D0000C94902DBFC000000C94E62D0C941C2EA7
:1000E000B9C0000000000A0B02090C0D0E0807033E
:1000F00004010000000000000000000000000000FB
:1001000000000000000000000000000000000000EF
:1001100012111000000000000000000000000000AC
:100120000000000000000000000001021020200874
:100130000810204010204080020102010804020142
:1001400001020408102040808040201008040201B1
:10015000800402018040201008040201080402010A
:100160000102040810204080010204081020408091
:1001700005050505070508080808020202020A0A23
:100180000808040404040101010101010101030341
:10019000030303030303040707070C0C0C0C0C0CEC
:1001A0000C0C0202020206060606060606060B0BE9
:1001B0000B0B0B0B0B0B00002200250028002B0063
:1001C0002E003100340002010000050108010B017E
:1001D00000002100240027002A002D0030003300F9
:1001E00001010000040107010A01A12C2D2DB92DE8
:1001F000452E11241FBECFEFD1E2DEBFCDBF00E000
:100200000CBF12E0A0E0B2E0E0E3FEE500E00BBFCF
:1002100002C007900D92A83CB107D9F727E0A8ECDF
:10022000B2E001C01D92AB3DB207E1F710E0C9EFAB
:10023000D0E000E006C021970109802FFE010E9456
:10024000E52EC53FD10780E00807A9F70E94CD251C
:100250000C94162FD5CE611102C00C94AF2A6130D8
:10026000E1F362E0FACF662319F061E00C94EB2A27
:1002700060E0FCCFCF92DF92EF92FF92CF93882382
:1002800051F16A017B01CFEFC80F20E030E0A901F6
:10029000CB01B6010E94CD2618168CF0C701B6011D
:1002A00090580E94D6269B01AC016C2F70E090E024
:1002B00080E0CF91FF90EF90DF90CF90B2C0C70168
:1002C000B6010E94D1268C2FCF91FF90EF90DF9046
:1002D000CF900C947529CF91FF90EF90DF90CF9045
:1002E00008950F931F938B019C0183E0369527950A
:1002F000179507958A95D1F708531D4F462F4770DC
:1003000021E030E0F90102C0EE0FFF1F4A95E2F74D
:10031000AF01F80120812423CB010196211102C0F5
:1003200090E080E01F910F9108950F931F938B0130
:100330009C0183E036952795179507958A95D1F707
:10034000677081E090E001C0880F6A95EAF7F801D4
:10035000E853FD4F2081452B31F480958223808323
:100360001F910F910895822BFACF2F923F924F92B7
:100370005F926F927F928F929F92AF92BF92CF9235
:10038000DF92EF92FF920F931F93CF93DF93D62EBE
:10039000C72E782E692E49015A01280161E08D2D62
:1003A0000E94AF2ACD2DDC2D8E010F5F1F4FA801BB
:1003B0006D2D7C2D872D962DB8DF20E030E0A90132
:1003C000C201B7010E940728181664F4C201B701E0
:1003D0000E94D6262B01C501B4010E94D626A20197
:1003E000CE0123D0C801DF91CF911F910F91FF90D3
:1003F000EF90DF90CF90BF90AF909F908F907F90C5
:100400006F905F904F903F902F900895882341F018
:100410008150682F70E090E080E050E040E085CFB0
:100420000895862FB9010C9475299C01FC01EC51AB
:10043000FF4FE491E150E231E0F4F0E08827EC5D19
:10044000FD4F8F4F0C94E52E36023D0240025702BD
:100450006C02390281028D029102A802BD02D20211
:10046000E902FE02390213032A033F0384B58068C0
:1004700084BD60E0822F0C94EB2A84B58062F8CFB3
:10048000809180008C7F82608093800080918100C9
:10049000807E8061682B6093810050938700409339
:1004A000860080918000806880938000E2CF8091F8
:1004B00080008C7F82608093800080918100807EAC
:1004C0008061682B60938100509387004093860081
:1004D000809180008062E8CF809180008C7F826074
:1004E0008093800080918100807E8061682B609382
:1004F000810050938700409386008091800088603F
:10050000D3CF8091B00080688093B0008091B1001B
:10051000887F682B6093B100ACCF8091B00080627F
:10052000F3CF809190008C7F8260809390008091C7
:100530009100807E8061682B6093910050939700BA
:10054000409396008091900080688093900091CFB6
:10055000809190008C7F82608093900080919100C8
:10056000807E8061682B6093910050939700409348
:100570009600809190008062E8CF809190008C7FFF
:1005800082608093900080919100807E8061682BD2
:100590006093910050939700409396008091900053
:1005A0008860D3CF8091A0008C7F82608093A00070
:1005B0008091A100807E8061682B6093A1005093A0
:1005C000A7004093A6008091A00080688093A000BF
:1005D00050CF8091A0008C7F82608093A00080919A
:1005E000A100807E8061682B6093A1005093A700DA
:1005F0004093A6008091A0008062E8CF8091A00087
:100600008C7F82608093A0008091A100807E8061B9
:10061000682B6093A1005093A7004093A60080919F
:10062000A0008860D3CF809120018C7F826080936E
:10063000200180912101807E8061682B60932101DF
:100640005093270140932601809120018068809378
:1006500020010FCF809120018C7F82608093200148
:1006600080912101807E8061682B609321015093ED
:10067000270140932601809120018062E8CF80917C
:1006800020018C7F82608093200180912101807EF7
:100690008061682B609321015093270140932601CC
:1006A000809120018860D3CF90E080E008950F937F
:1006B0001F93009709F487C06115710509F483C081
:1006C00000910C0210910D0220910E0230910F0248
:1006D0000E3F1F4F2F4F3F4F09F066C04FEF5FEFA8
:1006E000BA0140930C0250930D0260930E02709376
:1006F0000F0240910C0250910D0260910E02709118
:100700000F02DC011296ED91FC9180819181A28112
:10071000B38180933B0390933C03A0933D03B0933C
:100720003E0384819581A681B7818093370390939E
:100730003803A0933903B0933A0380859185A2854D
:10074000B3858093330390933403A0933503B09320
:10075000360384859585A685B78580932F0390936E
:100760003003A0933103B093320310922B03109205
:100770002C0310922D0310922E03F5D488ED98E0EF
:100780009093D2028093D1029093D4028093D302AB
:10079000D9D3009731F421E030E030934003209327
:1007A0003F031F910F91089500910C0210910D02CB
:1007B00020910E0230910F02DB010D931D932D93BA
:1007C0003C93139796CF8FEF9FEFEBCF8F929F9233
:1007D000AF92BF92CF92DF92EF92FF921F93CF938F
:1007E000DF934B015C011091420382E090E0909313
:1007F000400380933F0381149104A104B10441F4A8
:1008000080914203811104C080914103C1E08111B4
:10081000C0E0C12CD12C760180914203811106C029
:1008200080914103811102C0CC23D9F083E090E094
:100830009093400380933F03CC2379F1CCE9DFEF21
:10084000111102C00E943C0CCE01DF91CF911F918B
:10085000FF90EF90DF90CF90BF90AF909F908F90E0
:1008600008956AE070E080E090E00E94DD2880E179
:10087000C80E87E2D81EE11CF11C8FEF881698067F
:10088000A806B80631F0C1E08C149D04AE04BF0484
:1008900008F0C0E080E08AD3BFCFD0E0C0E0D0CF86
:1008A000CF92DF92EF92FF920F931F93CF93DF933C
:1008B0008F3F910511F008F050C020913F03309117
:1008C00040032330310539F020913F03309140033C
:1008D0002130310531F424E030E03093400320939F
:1008E0003F036A017B01EC0182309105A0F011E029
:1008F000AE01C701B60125D3AB01BC01CE01112366
:10090000F9F0DF91CF911F910F91FF90EF90DF9061
:10091000CF900C94650E8C01000F111F0F521D4FCC
:10092000D8018D919C91892B11F30E946F0E029733
:10093000F1F6D801ED91FC91CE011995182FD8CF81
:100940000E94870E90E080E0DF91CF911F910F9180
:10095000FF90EF90DF90CF9008958FEF9FEFF4CF4F
:1009600080E024C3CF93DF9386E090E09093400330
:1009700080933F0374D3EC01E1EDF2E084E0DF010A
:100980001D928A95E9F710D71092400310923F0309
:10099000CE01DF91CF910895809141030895809118
:1009A0002A03089560930C0270930D0280930E0247
:1009B00090930F0290E080E00895CF92DF92EF9243
:1009C000FF926B017C019F7720E030E040E859E521
:1009D0000E94CD2687FF2BC020E030E040E05FE39F
:1009E000C701B6010E94072887FD0EC020E030E055
:1009F00040E05FE3C701B6010E945626FF90EF90EA
:100A0000DF90CF900C943F2720E030E040E05FEB98
:100A1000C701B6010E940728181684F420E030E0D0
:100A2000A901C701B6010E940B286B017C01C70117
:100A3000B601FF90EF90DF90CF90089520E030E076
:100A400040E05FE3C701B6010E945526FF90EF909A
:100A5000DF90CF900C94BA26CF92DF92EF92FF9264
:100A6000CF93DF93609100027091010280910202A6
:100A700090910302A2DF6B017C0120E030E040E8AE
:100A800053E40E94CD266FEF87FF0EC020E030E0D8
:100A9000A901C701B6010E94072860E087FD04C0D4
:100AA000C701B6010E94D6268EE1DDDB80910402EB
:100AB00090910502A0910602B09107028093D5079C
:100AC0009093D607A093D707B093D80762E070E061
:100AD00080E090E006DCEC019093D4078093D3078C
:100AE0002091D5073091D6074091D7075091D8076C
:100AF000609108027091090280910A0290910B02A4
:100B00000E940B286B017C0120E030E04FE753E4AA
:100B10000E94CD2618160CF441C020E030E0A90157
:100B2000C701B6010E94072887FF03C0C12CD12C42
:100B30007601B701A601CE019DDB609101037091A2
:100B4000020380910303909104036F5F7F4F8F4FE7
:100B50009F4F60930103709302038093030390936C
:100B600004030E9402279B01AC0160910503709170
:100B7000060380910703909108030E940B2860935D
:100B8000FD027093FE028093FF0290930003DF91B9
:100B9000CF91FF90EF90DF90CF900895C12CD12C92
:100BA0008FE7E82E83E4F82EC4CF8F929F92AF9206
:100BB000BF92DF92EF92FF920F931F93CF93DF9339
:100BC000E7EEF2E080E090E0A0E8BFEB82A393A321
:100BD000A4A3B5A38DEC9CECACE4BEE3868F978F09
:100BE000A0A3B1A380E391E2ADE1BEED8483958340
:100BF000A683B7838BEF9AE1A1E3BFEA8087918751
:100C0000A287B38780E798E5ADEAB7ED848795873B
:100C1000A687B78788EC92E1A3E8B4E9808B918B33
:100C2000A28BB38BABEDB2E0B383A283E5EDF2E030
:100C30001196FC93EE9385E392E0918380839383F6
:100C40008283958384838BEF92E015969C938E9399
:100C500014978BEE92E013969C938E9312978DEFE0
:100C600092E017969C938E931697C5ECD7E0188266
:100C7000812C912C5401839489829A82AB82BC820C
:100C800061E08EE1E8DADD24D394DD82188689867E
:100C90009A86AB86BC86E12CF12C8701A8019701CE
:100CA00062E070E080E090E060DB9F878E87DD8609
:100CB000DF91CF911F910F91FF90EF90DF90BF9048
:100CC000AF909F908F9008958091C507811103C0C8
:100CD00081E08093C5078091CD0781112AC081E012
:100CE0008093CD078091CE079091CF07A091D00738
:100CF000B091D1070197A105B105D9F48091D20730
:100D00008823B9F062E070E080E090E0EADA909346
:100D1000D4078093D30740E050E0BA01ABDA62E039
:100D200070E080E090E0DDDA9093D4078093D30701
:100D30006DCB08954F925F926F927F928F929F92A8
:100D4000AF92BF92CF92DF92EF92FF920F931F93D9
:100D5000F89440901A0350901B0360901C0370900D
:100D60001D03C0900E03D0900F03E0901003F0908D
:100D70001103452B09F0A6C09B01AC0124193509CC
:100D80004609570929013A010091160310911703EA
:100D9000209118033091190348015901840C951CC6
:100DA000A61CB71C80169106A206B306A0F40091FB
:100DB00012031091130320911403309115030F5F58
:100DC0001F4F2F4F3F4F0093120310931303209395
:100DD0001403309315038092160390921703A09288
:100DE0001803B0921903009112031091130320917C
:100DF00014033091150380921E0390921F03A0925A
:100E00002003B09221030093220310932303209325
:100E100024033093250360931A0370931B0380937C
:100E20001C0390931D03A301920160E47DE083E025
:100E300090E00E94A02E6C0D7D1D8E1D9F1D609365
:100E40000E0370930F03809310039093110300918E
:100E50000C0210910D0220910E0230910F020F3FF3
:100E60001F4F2F4F3F4FF1F000910C0210910D02D8
:100E700020910E0230910F020E3F1F4F2F4F3F4F18
:100E800089F0C0900C02D0900D02E0900E02F0901C
:100E90000F0221E08C149D04AE04BF0408F420E08E
:100EA00020932A0378941F910F91FF90EF90DF9089
:100EB000CF90BF90AF909F908F907F906F905F90FA
:100EC0004F9008954B015C0184189508A608B70857
:100ED000A3019201261B370B480B590B64157505AE
:100EE00086059705E0F082169306A406B50640F441
:100EF00020E030E0A90181149104A104B104A1F41F
:100F000060E47DE083E090E00E94A02EA7019601BE
:100F1000261B370B480B590BCA01B901C3CF8216E8
:100F20009306A406B50660F7A501940160E47DE090
:100F300083E090E00E94A02E6C0D7D1D8E1D9F1DF4
:100F4000B1CFF8CECF93DF9300D01F92CDB7DEB7ED
:100F50001C821B821A821982109226031092270388
:100F60001092280310922903BE016F5F7F4FCE01BC
:100F700003960E949B2469817A818B819C810E94C7
:100F80008B1D009761F4BE016F5F7F4FCE0103960A
:100F90000E94A72469817A818B819C812ED50F9034
:100FA0000F900F900F90DF91CF910895FF920F93C4
:100FB0001F93CF93DF93082F60E070E0CB010E9476
:100FC000DD28FF24F3940E94741CEC01892B89F026
:100FD00010E0CE3F8FEFD80769F0002361F160E0A9
:100FE00070E0CB010E94DD2881E090E0892B59F36D
:100FF00022C011E025D5EC01892B21F0CE3F8FEFE7
:10100000D80759F711111EC011E0229609F410E01B
:101010000E94241CEC01892B21F0CE3F8FEFD807D2
:10102000E1F6111111C011E0CE3F8FEFD80709F49E
:1010300010E001110BC0CE01DF91CF911F910F91F4
:10104000FF90089511E0E4CF11E0F3CF60E070E08D
:10105000CB010E94DD281F25812F90E0C7CFCF93C1
:10106000DF9380912A03882321F060E070E0CB01B8
:101070004CD635D6D0E0C0E0892B71F06AE070E044
:1010800080E090E00E94DD2881E090DF28D6219664
:10109000C03D27E0D20781F727D60E94DF1D1092BE
:1010A00042031092410310923B0310923C031092B2
:1010B0003D0310923E0310923703109238031092B2
:1010C000390310923A0310923303109234031092B2
:1010D00035031092360310922F03109230031092B2
:1010E00031031092320310922B0310922C031092B2
:1010F0002D0310922E034EEF5FEF6FEF7FEF4093C3
:101100000C0250930D0260930E0270930F02109226
:101110002A03EEE1F3E028E0DF011D922A95E9F7CA
:1011200010921A0310921B0310921C0310921D03BD
:1011300010921603109217031092180310921903BD
:1011400010921203109213031092140310921503BD
:1011500010920E0310920F031092100310921103BD
:10116000DF91CF91089510924E0310924F03109289
:1011700050031092510310924D03809156039091A9
:10118000570390934C0380934B0310924A031092A1
:1011900049031092450310924603109247031092A0
:1011A0004803109253031092520390E080E0089598
:1011B000CF92DF92EF92FF920F931F93CF938C0108
:1011C000892B09F055C02091560330915703809127
:1011D0004B0390914C034091560350915703509309
:1011E0004C0340934B032817390781F010924A03B0
:1011F0001092490310924503109246031092470340
:101200001092480310925303109252038091560398
:1012100090915703019761F5809152039091530388
:10122000892B21F480911002811112C08091520308
:10123000909153030197E1F4809145039091460307
:10124000A0914703B09148030197A105B10581F42E
:1012500010924503109246031092470310924803E0
:101260001092100282E090E0909353038093520317
:101270008091560390915703019709F01CC180910A
:101280006C0390916D038017910709F014C1809150
:10129000680390916903A0916A03B0916B03009772
:1012A00009F409C12091670321110DC04091680321
:1012B0005091690360916A0370916B03452B462B33
:1012C000472B09F4F8C02091520330915303223088
:1012D000310509F0F0C0209149032111ECC0FC0157
:1012E000C080D180E280F38080914D03882309F48F
:1012F000D3C08091590390915A03892B09F4FDC002
:101300002091590330915A0381E02230310509F0D0
:1013100080E02091590330915A03C1E0213031051A
:1013200049F02091590330915A03C1E02230310530
:1013300009F0C0E0882309F456C02091630330917E
:1013400064034091650350916603C701B6010E9492
:10135000072887FD14C020916303309164034091F6
:1013600065035091660360914E0370914F03809125
:101370005003909151030E94CD2687FD22C02091F9
:101380006303309164034091650350916603C70184
:10139000B6010E940728181634F520916303309196
:1013A0006403409165035091660360914E03709110
:1013B0004F0380915003909151030E94CD268111DB
:1013C00012C080915B0390915C03A0915D03B0918A
:1013D0005E03892B8A2B8B2B19F481E080934A03BF
:1013E00081E080934903CC2309F456C02091630324
:1013F000309164034091650350916603C701B601C3
:101400000E94CD2687FF14C02091630330916403AE
:10141000409165035091660360914E0370914F03B4
:1014200080915003909151030E94072887FF22C0AA
:1014300020916303309164034091650350916603EA
:10144000C701B6010E94CD26811126C020916303F9
:1014500030916403409165035091660360914E039F
:1014600070914F0380915003909151030E9407287F
:10147000181694F480915B0390915C03A0915D0336
:10148000B0915E03892B8A2B8B2B19F481E080931A
:101490004A0381E08093490381E0909149039111CF
:1014A00080E080934D03C0924E03D0924F03E092B0
:1014B0005003F0925103012B09F067C18091520350
:1014C00090915303892BD9F4109258031092490339
:1014D00080911002882379F082E090E0909353038A
:1014E00080935203109210022091560330915703BB
:1014F00081E0232BE9F080E01BC081E00ACF10924D
:10150000100280915803882349F010924A031092E8
:1015100053031092520310925803EDCF809156035B
:1015200090915703892BE1F0809149031092490370
:1015300020915203309153032230310509F45EC0EB
:1015400088F42115310509F448C02130310509F42A
:10155000F3C010924A03109249031092580338C006
:1015600081E0E6CF2330310509F4B1C024303105E4
:1015700081F7409145035091460360914703709174
:101580004803411551056105710561F0415051094C
:1015900061097109409345035093460360934703E3
:1015A000709348034091450350914603609147036F
:1015B00070914803452B462B472BD9F420915403B7
:1015C000309155032130310509F046C010924A038D
:1015D00010925303109252030CC080911002882382
:1015E00041F082E090E09093530380935203109275
:1015F00010021092430380914A03CEC08823C9F39E
:1016000080915B0390915C03A0915D03B0915E03B8
:10161000181619061A061B060CF07DC08091560399
:1016200090915703019709F076C080915B039091E8
:101630005C03A0915D03B0915E038093450390939A
:101640004603A0934703B093480383E090E0909350
:10165000530380935203CDCF40915F0350916003B9
:101660006091610370916203452B462B472BA9F0D3
:1016700010924A0380915F0390916003A0916103EF
:10168000B09162038093450390934603A093470370
:10169000B093480381E090E0DACF882399F08091FD
:1016A000110290911202A0911302B0911402809342
:1016B000450390934603A0934703B093480384E007
:1016C00090E0C5CF10924A0382E090E0C0CF8091B5
:1016D000450390914603A0914703B09148030097BA
:1016E000A105B10559F00197A109B10980934503FE
:1016F00090934603A0934703B0934803809145031A
:1017000090914603A0914703B0914803892B8A2BFF
:101710008B2B09F06ECF8091110290911202A09153
:101720001302B0911402892B8A2B8B2B09F44ECF14
:1017300081E080934A03B3CF409145035091460323
:10174000609147037091480341155105610571058A
:1017500061F041505109610971094093450350936B
:1017600046036093470370934803409145035091AB
:1017700046036091470370914803452B462B472B46
:1017800009F037CF8111C7CF9FCF809143038823C2
:1017900009F431CF80914403CF911F910F91FF90B5
:1017A000EF90DF90CF90089510924E0310924F0368
:1017B000109250031092510310924D031092530354
:1017C0001092520310924C0310924B0310926D032F
:1017D00010926C0310924A03109249031092450331
:1017E000109246031092470310924803109244034C
:1017F00010924303109268031092690310926A03D7
:1018000010926B03109267031092630310926403AB
:10181000109265031092660388EE93E0A0E0B0E0BA
:101820008093110290931202A0931302B0931402BA
:1018300010925F0310926003109261031092620392
:1018400010925B0310925C0310925D0310925E0392
:1018500010925A031092590381E080931002109263
:10186000580310925703109256031092550310928A
:10187000540390E080E008958091560390915703BF
:10188000892B19F580911002882351F0809158031B
:10189000811106C081E0809344038093430308953F
:1018A000209158033091100281E090E0332311F031
:1018B00090E080E030E082239323892B21F0109286
:1018C000440381E0EACF10924303089582E090E060
:1018D000FA01918380838FEF9FEF0895CF93DF9379
:1018E000EA01009711F00E94FF1E1982188290E011
:1018F00080E0DF91CF910895DB01009719F48FEF1D
:101900008C9308952EEF2C93FC013F96EF30F10558
:1019100008F034C08827E057F34F8F4F0C94E52E22
:10192000BC0CBA0CB80CB60CB40CB00CB20CAE0CAF
:10193000AC0CAA0CA70CA30C9F0CA50CBE0C80E34E
:1019400011968C93089589E2FBCF82E2F9CF11962C
:101950001C92089583E2F4CF81E2F2CF81E1F0CFCF
:1019600087E2EECF8AE2ECCF80E1EACF84E2E8CFF3
:1019700088E2E6CF86E2E4CF81E3E2CF80E2E0CF07
:1019800080917A0390917B03089590937B038093D9
:101990007A03089580917903089590917903892BB2
:1019A000809379030895982F9095809179038923E6
:1019B0008093790308958091780308958091760348
:1019C0009091770308956115710559F0FB0130E09E
:1019D00020E070E060E02417350719F0611571050B
:1019E00011F0CB010895A081B181A817B90709F4BE
:1019F000BF012F5F3F4F3696EECF80917C03811160
:101A00001CC060D266D290936F0380936E030E94D5
:101A1000FD160E940F1790937303809372030E9428
:101A20008C1B0E94931B909371038093700381E041
:101A300080937C0390E080E0089584EF9FEF089509
:101A40008F929F92AF92BF92CF92DF92EF92FF92CE
:101A50000F931F93CF93DF9300D000D000D01F923D
:101A6000CDB7DEB71A86198618861F821E821D82A0
:101A70001C821B821A82198280917C0307EF1FEF60
:101A8000882309F49CC08E010D5F1F4F9E012B5FC0
:101A90003F4FAE01495F5F4FBE01675F7F4F90E0F0
:101AA00080E00E94101D8C01009721F0059602979E
:101AB00008F0DBC029853A852115310509F402C1FA
:101AC000ED80FE804B815C81B701640F751F8F81B3
:101AD00098858617970708F4F5C0E20EF31ED70124
:101AE0009C91903C09F07FC04230510508F47BC0C6
:101AF00011968C9140917A0350917B03452B09F408
:101B00009CC0913F08F071C02CE1290F2D3008F4E2
:101B10008BC02DE2290F203108F489C0903C21F4BC
:101B20008150823008F483C088E3890F8B3008F439
:101B300081C09CE7C92E9CE0D92EE6E6FCE06D81D1
:101B40007E81AE014F5F5F4F89859A8519955C0153
:101B5000C114D104A1F189809A808114910479F192
:101B60008B819C818815990508F487C010E000E0FE
:101B70004B815C8170E060E0C7010E940F2F01156E
:101B80001105E9F449815A8169857A858D819E81A3
:101B9000680F791FC501F6011995E980FA800D815A
:101BA0001E812F81388549855A856FEF7FEF81E04F
:101BB00090E00E94AB1C8C01892B09F056C0C80133
:101BC0002A960FB6F894DEBF0FBECDBFDF91CF913E
:101BD0001F910F91FF90EF90DF90CF90BF90AF904B
:101BE0009F908F90089580E085CF30E020E0220F15
:101BF000331FF901E259FC4F0190F081E02D30973D
:101C000009F497CF892F90E01995009709F491CFA7
:101C1000DC011296ED91FC9113971496CD90DC9017
:101C2000309709F08CCF1FC021E030E0E0CF22E0F8
:101C300030E0DDCF23E030E0DACFD12CC12CEEE66E
:101C4000FCE09F3F09F07BCFE0916E03F0916F03C2
:101C5000309721F4C90104EF1FEF0CC08FEF90E023
:101C600019950097A9F604EF1FEF89859A850097CB
:101C700009F4A5CF0E94FF1EA2CF0E94DA1D8C019D
:101C800089859A850E94FF1E70E060E0C4010E9471
:101C9000731D98878F830E94A81C9E838D836F81FC
:101CA00078856115710559F0C8010E948B209A87CB
:101CB000898706EF1FEF892B09F058CF59CF08EF1E
:101CC0001FEF56CF08EF1FEFD0CF20917C032223C8
:101CD00019F020E00C94141787EF9FEF089580917E
:101CE0007A0390917B0308950E94981B0E94F21A38
:101CF000F5D0EEE6F3E088E0DF011D928A95E9F782
:101D000010927C0390E080E008950C94501921E03B
:101D100040E050E0BA010C94141786E090E0FA011C
:101D20009183808390E080E0089547E050E068E38D
:101D300072E049CEDF92EF92FF920F931F93CF9301
:101D4000DF938A01EC01C60FD71FE0908003F0906B
:101D50008103D9800E94C21DD816190678F082E04E
:101D600090E0F801918380838EEF9FEFDF91CF9118
:101D70001F910F91FF90EF90DF900895EF2841F4AD
:101D800082E090E0F8019183808384EF9FEFEECFB3
:101D9000898180937F0390E00196F801918380838D
:101DA00090E080E0E3CFCF93DF93EA010E94011A35
:101DB000882321F00E94CF1D0E94021A82E090E049
:101DC000998388838BEF9FEFDF91CF910895CF9315
:101DD000DF93EB0186E0FB0111928A95E9F78FEF23
:101DE0008883D8DD8983E7DD8A83E8DD9D838C8362
:101DF000DF91CF910895CF93DF93EA010E94041AF7
:101E0000811109C082E090E09983888385EF9FEF7C
:101E1000DF91CF91089590E080E0B7DD81E090E020
:101E20009983888390E080E0F3CF0F931F93CF9343
:101E3000DF93EA018C01060F171F0E94041A81111B
:101E40000BC082E090E09983888385EF9FEFDF915C
:101E5000CF911F910F910895F8018181823038F060
:101E600082E090E0998388838EEF9FEFF0CF81E04E
:101E700090E08BDD88E090E09983888390E080E0BB
:101E8000E6CFCF93DF930097D1F4EB01FB013296BD
:101E900086E0DF011D928A95E9F78FEF888385E060
:101EA00089831A820E94C21D8B830E94C11D9D835B
:101EB0008C8381E08E838F83DF91CF910895DF91B2
:101EC000CF911ACD85E99EE090937E0380937D03A8
:101ED000089580917D0390917E03089510927E0372
:101EE00010927D030895809180039091810308955D
:101EF000411105C0611571058105910561F060937F
:101F000080037093810380938203909383034093B3
:101F1000840381E0089580E00895FF920F931F935A
:101F2000CF93DF938A01EC01C60FD71FF9800E947F
:101F3000C21DF816190668F082E090E0F80191835E
:101F400080838EEF9FEFDF91CF911F910F91FF90D4
:101F500008956C817D818E819F814B81C9DF8111C4
:101F600008C082E090E0F8019183808384EF9FEFC6
:101F7000EACF898180937F0390E00196F8019183F5
:101F8000808390E080E0DFCFCF93DF93EA01FC0114
:101F9000E60FF71F64817581868197814381A8DFF1
:101FA000811109C082E090E09983888384EF9FEFDC
:101FB000DF91CF91089581E090E09983888390E04C
:101FC00080E0F6CFE0E8F3E04081518162817381E7
:101FD000480F511D611D711D4083518362837383BE
:101FE0000895CF93C0917F034C2F50E06091800300
:101FF0007091810301960E94062F8C2FE3DF1092CF
:102000007F03CF910895009799F480918003909178
:1020100081032FEFFB012083892B59F020917F034F
:1020200030E02F5F3F4F2417350719F4CB01D9CF8C
:1020300063CC0895009799F4809180039091810377
:102040002FEFFB012083892B59F020917F0330E093
:102050002F5F3F4F2417350719F4CB01C2CF4CCC6B
:10206000089523E1AC01249FC001259F900D112408
:10207000E0918903F0918A03E80FF91F23813481ED
:102080002250310981E02230310508F080E00895C6
:102090000F931F93CF93DF9300918B0310918C03C9
:1020A000D0E0C0E080E00C171D0749F491E08111F9
:1020B00090E0892FDF91CF911F910F9108958111A9
:1020C000F5CFCE01CEDF2196EECFA0918903B0915E
:1020D0008A03109729F120918B0330918C0382178A
:1020E0009307F0F453E1589F9001599F300D11244C
:1020F000A20FB31FED91FC911197309789F01296C2
:102100008C91681768F48DE0689FE00DF11D112433
:1021100080819181892B21F081E09281491708F01B
:1021200080E008959C0143E1429FC001439F900DD0
:102130001124E0918903F0918A03E80FF91F838548
:10214000823091F481E090E06581768140911502C2
:10215000509116026417750711F490E080E0892B06
:1021600019F081E0232B09F080E00895FC01A081A3
:10217000B1818DE0689FA00DB11D112413964D9182
:102180005C9185859685489F9001499F300D589FA9
:10219000300D1124C9010196611103C0478144FD2E
:1021A00004960895EF92FF920F931F93CF93DF93BE
:1021B000EA01FC01E60FF71F02811381E480F5803C
:1021C0004F2D6E2DC80181DF81110DC082E090E09E
:1021D000998388838EEF9FEFDF91CF911F910F91AD
:1021E000FF90EF900895C8013CDF882339F082E02A
:1021F00090E09983888388EF9FEFEECF10931C02C5
:1022000000931B02E0921D02F0921E0281E090E01A
:102210009983888390E080E0DFCFCF92DF92EF92C6
:10222000FF920F931F93CF93DF937A01EC01C60FB8
:10223000D71FC0901B02D0901C0200911D0210916C
:102240001E02412F602FC60140DF811110C082E0C5
:1022500090E0F701918380838AEF9FEFDF91CF9128
:102260001F910F91FF90EF90DF90CF900895C601DE
:10227000F8DE882341F082E090E0F70191838083CB
:1022800088EF9FEFEBCF4C815D816E817F819A81DA
:1022900089818F3F41F082E090E0F7019183808354
:1022A0008EEF9FEFDBCFE3E1EC9D9001ED9D300DD4
:1022B0001124E0918903F0918A03E20FF31F01904A
:1022C000F081E02D2DE0029FE00DF11D1124019021
:1022D000F081E02D27E0129FE00DF11D1124808395
:1022E00091838B81828343835483658376831F5FCD
:1022F00010931E0281E090E0F7019183808390E0CB
:1023000080E0ACCFEF92FF920F931F93CF93DF93B8
:102310007A018C01060F171FC0918903D0918A039F
:10232000209781F021E030E0F80182819381409193
:102330008B0350918C038417950710F030E020E058
:10234000232B71F482E090E0F701918380838EEF7C
:102350009FEFDF91CF911F910F91FF90EF90089524
:1023600043E1489F9001499F300D1124C20FD31FB4
:1023700078DE882341F082E090E0F701918380834A
:1023800088EF9FEFE6CFF8012481358120383105B1
:10239000C8F687818111D6CF4181842F90E08F7E4E
:1023A000009741F082E090E0F7019183808386EF0F
:1023B0009FEFCFCF4F833E832D83268128871986B9
:1023C000223010F421E0288721E030E0F70131834A
:1023D0002083BFCF88E090E0FA019183808390E072
:1023E00080E00895FB018FEF808381E181838FEF8F
:1023F0009FEF9383828380E890E0958384831682A5
:1024000017820895FB018FEF808391E0918382838F
:102410009383848384E3858381E090E0978386833C
:102420000895DF92EF92FF920F931F93CF93DF9364
:10243000EA01FC01E60FF71F8181813071F082E033
:1024400090E0998388838FEF9FEFDF91CF911F9169
:102450000F91FF90EF90DF90089582819381D48057
:102460002581E680F7800091890310918A03011588
:10247000110539F482E090E0998388838CEF9FEF17
:10248000E4CF40918B0350918C038417950738F06B
:1024900082E090E0998388838EEF9FEFD6CF892BDF
:1024A00039F082E090E09983888386EF9FEFCDCF6B
:1024B0008D2D8D7FB1F72130A1F781E0D11006C0BD
:1024C00091E0E916F10431F080E004C0E2E0EE169C
:1024D000F104D0F3882329F390E080E0C2DD882363
:1024E00039F082E090E09983888388EF9FEFADCF49
:1024F000F801D38681E08487F686E586108A178600
:1025000081E090E09983888390E080E09ECF4CE06A
:1025100050E062E672E057CA8F929F92BF92CF92CC
:10252000DF92EF92FF920F931F93CF93DF93EA0115
:10253000FC01E60FF71F828193810481B580E09151
:102540008903F0918A03309791F482E090E09983B7
:1025500088838CEF9FEFDF91CF911F910F91FF90B8
:10256000EF90DF90CF90BF909F908F900895209133
:102570008B0330918C038217930738F082E090E050
:10258000998388838EEF9FEFE6CF23E1289F600138
:10259000299FD00C1124EC0DFD1DE080F180E11489
:1025A000F10499F28281081748F78DE0089F8001B5
:1025B0001124E00EF11EF70180819181892B29F60B
:1025C000BB20E1F2F7E0BF9E40011124C4010E944C
:1025D000C61EF70191838083E0918903F0918A03FD
:1025E000EC0DFD1D0190F081E02DE00FF11F8081C9
:1025F0009181009739F482E090E0998388838DEF90
:102600009FEFA9CFA40170E060E00E940F2F80919E
:10261000890390918A03C80ED91EF60180819181A9
:10262000080F191FF801B28281E090E09983888336
:1026300090E080E090CFAF92BF92CF92DF92FF9276
:102640000F931F93CF93DF93EA01FC01E60FF71F6F
:1026500082819381F4800091890310918A0301158E
:10266000110581F482E090E0998388838CEF9FEFDD
:10267000DF91CF911F910F91FF90DF90CF90BF908E
:10268000AF90089520918B0330918C0382179307AC
:1026900038F082E090E0998388838EEF9FEFE8CF57
:1026A0002FEF2F0D2C3FA8F723E1289F6001299FD2
:1026B000D00C11240C0D1D1DF80180819181892BF6
:1026C00089F6FDE0FF9E50011124C5010E94C61E3F
:1026D000F80191838083E0918903F0918A03EC0DE6
:1026E000FD1D80819181009739F482E090E099830B
:1026F00088838DEF9FEFBCCFA50170E060E00E9462
:102700000F2FE0918903F0918A03EC0DFD1DF282F9
:1027100081E090E09983888390E080E0A9CFCF9218
:10272000DF92EF92FF920F931F93CF93DF93860F69
:10273000971FFC01028113818091890390918A0384
:10274000892B81F082E090E0FA01918380838CEF05
:102750009FEFDF91CF911F910F91FF90EF90DF904E
:10276000CF900895C801B0E0A0E00197A109B10998
:102770008F3F9F4FA105B10540F082E090E0FA0144
:10278000918380838EEF9FEFE4CF7A0183E1809F76
:102790006001819FD00C1124C6010E94C61EEC016D
:1027A000009741F482E090E0F701918380838DEF00
:1027B0009FEFCFCFA60170E060E00E940F2FD09373
:1027C0008A03C093890310938C0300938B0390E0DA
:1027D00080E02FEF3FEF41E061E070E0801791076C
:1027E00041F481E090E0F7019183808390E080E004
:1027F000B0CF3A8B298B1B864C877E876D87188AD2
:102800001F8601966396EACFEF92FF921F93CF93B4
:10281000DF93EC0110E0F12CE12C6A811617B0F087
:1028200083E0689FB0011124AE014F5E5F4FC70186
:102830000E942B1F009721F02FEF3FEF3A8B298B3F
:10284000DF91CF911F91FF90EF900895612FCE01FE
:102850008DDC61E070E00E94731DE816F90608F453
:102860007C011F5FDACFF8942091870330918803B1
:1028700081E02115310509F080E0232B09F07894DF
:1028800008952F923F924F925F926F927F928F9214
:102890009F92AF92BF92CF92DF92EF92FF920F93EF
:1028A0001F93CF93DF933C01660E771EF301828165
:1028B00093814C01B12CA12CC0918903D0918A0342
:1028C000209769F021E030E060918B0370918C03D8
:1028D0008617970710F030E020E0232BD1F482E038
:1028E00090E0FA01918380838EEF9FEFDF91CF918B
:1028F0001F910F91FF90EF90DF90CF90BF90AF901E
:102900009F908F907F906F905F904F903F902F900F
:10291000089580921F0290922002A0922102B0920C
:10292000220263E1689F9001699F300D1124C20F5C
:10293000D31FF3018181833040F082E090E0FA01FF
:102940009183808386EF9FEFD1CF2A012B813C8139
:10295000232BF1F4288139819F8191FF2EC0232BF5
:1029600009F46FC020918E039A81422F490F552799
:10297000551FBA0141E050E06138710514F050E094
:1029800040E0452B09F45DC02A87920F90938E0397
:102990008150823008F481C066DF882309F4D8C0F2
:1029A000F3018181813009F48DC008F47BC082304D
:1029B00009F4C6C090E080E0ADC0232B09F441C00B
:1029C00020918D039A81E22FE90FFF27FF1F41E03D
:1029D00050E0ED3FF10514F050E040E0452B89F167
:1029E0002A87920F90938D03D3CFA081B181A20F3C
:1029F000B31F11966C91060F111D0196295F3F4F71
:102A00008417950794F38D859E85089F1001099F73
:102A1000300C189F300C1124C114D104D1F48F81D3
:102A200084FF17C00E94C11DF5E02F0E311C21E06C
:102A30008215930508F420E0A701435F5F4F211141
:102A40000EC082E090E0F2019183808387EF9FEFD8
:102A50004DCF0E94C11D2FEF221A320AE8CF888184
:102A60009981E80EF91EF70114830383FFEFCF1A53
:102A7000DF0A7A018A818C151D0409F00CF48CCFD1
:102A8000E881F981EE0DFF1D428150E030E020E049
:102A900010E000E090E080E0B3CFF12CE12CD12CED
:102AA000C12CE8CF81E090E09C838B83F1DA88230E
:102AB00009F480CF81E090E00E94C50C80E40E9480
:102AC000D30C78CF89899A89019661F083E090E0F0
:102AD0009C838B8382E090E00E94C50C80E40E947E
:102AE000CD0C68CF8D819E81209115023091160208
:102AF00082179307D1F46091190270911A02AE0106
:102B00004F5E5F4F80911702909118020E944A20F9
:102B10000097E1F2789422E030E0F20131832083E3
:102B2000892B99F08DEF9FEFE1CE89288A288B2899
:102B300069F6892B59F6CE0167DE188A1F86E8CF21
:102B400082E090E09C838B8335CF90E080E0CECE16
:102B500082E090E0F2019183808385EF9FEFC6CE03
:102B60008F929F92AF92BF92CF92DF92EF92FF929D
:102B70000F931F93CF93DF93EA018C01060F171F6A
:102B8000F8018181833098F082E090E09983888316
:102B900086EF9FEFDF91CF911F910F91FF90EF9004
:102BA000DF90CF90BF90AF909F908F9008958091CD
:102BB000890390918A03892B61F081E090E0209154
:102BC0008B0330918C03232B11F490E080E0892B50
:102BD00039F482E090E0998388838EEF9FEFDACF1B
:102BE00042DE882309F4DFC0F8018181813009F4D5
:102BF00095C0E8F0823099F420918B0330918C03DA
:102C0000E0918903F0918A0390E080E041E050E098
:102C10002817390709F0BDC03BDA811117C0789435
:102C200081E090E09983888390E080E0B3CF2091A9
:102C30008B0330918C03E0918903F0918A0390E03B
:102C400080E041E050E02817390741F481E090E04E
:102C50000E94C50C80E40E94D30CE1CF6381748193
:102C6000672B11F05483438301967396ECCFE09168
:102C70008903F0918A03E00FF11F23813481223010
:102C80003105D9F4218932892F3F3F4FB1F4258195
:102C9000368140911502509116022417350761F5CF
:102CA000AF014F5E5F4F6091190270911A028091DF
:102CB0001702909118020E944A20EFEFCE1ADE0A06
:102CC000EE0AFE0A0D5E1F4F40918B0350918C035C
:102CD00070E060E0C416D506E606F7063CF50097FE
:102CE00031F27894892B09F49BCF82E090E09983AC
:102CF00088838DEF9FEF4ECFC114D104E104F1041E
:102D0000E1F6232BD1F6CF017FDDE0918903F0912D
:102D10008A03E00FF11F108A1786CFCF10E000E082
:102D200090E080E0C12CD12C7601CECF0097C9F67F
:102D300010E000E0812C912C540183E0E82EF12C6E
:102D40001AC0E0918903F0918A03E00FF11F83819B
:102D50009481029749F4F482E38282E090E00E9439
:102D6000C50C80E40E94CD0CFFEF8F1A9F0AAF0ABA
:102D7000BF0A0D5E1F4F80918B0390918C03B0E0D2
:102D8000A0E088169906AA06BB06DCF290E080E077
:102D9000A8CF638174816230710511F45483438339
:102DA0000196739635CF82E090E09983888385EF12
:102DB0009FEFF0CE0097B9F48FEFFB018083209155
:102DC0001F023091200243E1429FC001439F900DBA
:102DD0001124E0918903F0918A03E80FF91F82859D
:102DE000FB01818308950C947C0C88E090E0FA014B
:102DF0009183808390E080E0089510928803109280
:102E00008703E9E8F3E086E0DF011D928A95E9F7A0
:102E100087E892E1909386038093850308958091DB
:102E200085039091860308952F923F924F925F926F
:102E30006F927F928F929F92AF92BF92CF92DF92CA
:102E4000EF92FF920F931F93CF93DF93CDB7DEB72F
:102E50002F970FB6F894DEBF0FBECDBFF894E09168
:102E60008703F09188033196F0938803E0938703FA
:102E700078944090890350908A034114510409F4D6
:102E80000CC2E0918B03F0918C03EF2B09F405C287
:102E90002D8749875A876B877C8798878F83120194
:102EA000B12CA12C10E000E080918B0390918C0359
:102EB000A816B90618F40115110529F1F8948091A6
:102EC00087039091880301979093880380938703E9
:102ED0007894C8012F960FB6F894DEBF0FBECDBF11
:102EE000DF91CF911F910F91FF90EF90DF90CF90E6
:102EF000BF90AF909F908F907F906F905F904F901A
:102F00003F902F9008957101E418F508D1011796AC
:102F10008C91179781FD54C013968D919C911497B5
:102F2000039709F04DC015968D919C91EF81F8851E
:102F30008E179F0709F044C0B50190E080E07FD470
:102F40008A832091890330918A033D832C833D85B8
:102F5000332309F44CC04C815D81452B09F49AC19F
:102F600080918B0390918C03A816B90608F092C14A
:102F7000C501D8D88823E9F06C817D816E0D7F1D55
:102F80007D836C83DB011F968D919C91892B89F049
:102F9000D12CC12CF12CE12CAC81BD8112968C91ED
:102FA00012978E151F0409F094F450961C921E92ED
:102FB0001F972A81222321F0B50190E080E041D4BF
:102FC0003FEFA31AB30A43E1240E311C6DCFAC814D
:102FD000BD81ED91FC91EC0DFD1D858196810FD792
:102FE000BFEFEB1AFB0AEDE0CE0ED11CD5CFEC8182
:102FF000FD81309709F44EC180918B0390918C0331
:10300000A816B90608F046C1EE0DFF1DFF87EE8732
:10301000C50188D88B83882339F1AE85BF851F967B
:103020008D919C915097019621E01D964D915C9158
:103030008417950709F020E02E831982712C10E087
:1030400000E0AE85BF8512968C91781608F45DC0BD
:10305000EE85FF85878590890196658576850E9436
:10306000AF2E908B8787A5CFB1E0BE83E6CF9924A2
:1030700093946BC08BD6F6019683858382C0D6016C
:10308000ED90FC90B7E06B9EE00CF11C1124F70171
:103090006381748180818F3F61F121E030E002C063
:1030A000220F331F8A95E2F7C901092E000CAA0BE3
:1030B000BB0BFB0140815181628173818423952385
:1030C000A623B72321E0892B8A2B8B2B09F420E040
:1030D000D4012C93D70111968C91F6012385348568
:1030E000820F932F911D880E991E14861386639468
:1030F0009BC0418150E0C4010E94062FEBCF998212
:1031000006EF1FEFC5C01982C3C0F981F111A0CF2E
:10311000EDE07E9E70011124AE85BF85CD90DC90E0
:10312000CE0CDF1C15D49D838C83BB81BB2309F49B
:103130009ECF81E0EE85FF8527853089232B09F01E
:1031400080E0982E882309F458C0672D8E859F85CE
:103150000DD8D60118969C938E93179761E070E076
:10316000C2D4EE85FF85218932892F3F320709F4C9
:1031700081CFBC01C901CFD7D60116969C938E93FF
:103180001597D60115968D919C911697009709F485
:10319000B6CFEC81FD818E0F9F1F1A969C938E9364
:1031A0001997AE85BF85ED91FC911197EE0EFF1E2C
:1031B000F70121853285148613861A968C91870D26
:1031C000D9018D93711016C0EE85FF85878184FF2C
:1031D00011C049855A856B857C85F90141835283ED
:1031E00063837483F701838594850496A80FB91FC0
:1031F00014861386F701B287A187D60115968D91A3
:103200009C911697892B09F443C0EE85FF85258193
:10321000368180911502909116022817390779F0AE
:1032200019968D909C90612CD60112968C911297D4
:10323000681608F424CF1A969C928E921997BE8134
:10324000BB2309F460CF61E070E0F60187819085CF
:103250004AD4D6011796ED90FC90189715964D918B
:103260005C91E1E0F0E0BA81BB2311F0F0E0E0E036
:103270000C811D819C01B501882799278E1B9F0B0E
:103280006AD38C01892B21F0F60185819681B7D50F
:103290007394D7CE0FEF1FEF8CCE10E000E00ECE70
:1032A0002F923F924F925F926F927F928F929F9256
:1032B000AF92BF92CF92DF92EF92FF920F931F9344
:1032C000CF93DF938091890390918A0310E000E00F
:1032D000892BA9F0C8DA0AEF1FEF882381F020902C
:1032E0008B0330908C03C0918903D0918A03D12C39
:1032F000C12C10E000E02C143D04A9F47894C8011E
:10330000DF91CF911F910F91FF90EF90DF90CF90C1
:10331000BF90AF909F908F907F906F905F904F90F5
:103320003F902F900895C6010E949210882309F1C2
:103330008B819C810397E9F48F859889892BC9F04B
:10334000B60190E080E07BD221E030E0882311F0EC
:1033500030E020E044245524421A530AB12CA12C19
:10336000912C812C8A818815190409F038F4188A67
:103370001F864FEFC41AD40A6396BDCFE881F98146
:10338000EA0DFB1D85819681892BA1F161E070E03A
:1033900087819085A8D33C01DBD28C01E881F9813B
:1033A000EA0DFB1D8185928525813681200F311F15
:1033B000AC01421B530B9A0147815085421B530BB2
:1033C00070E060E00E940F2FE881F981EA0DFB1D9B
:1033D000E780F084458156819301B601C201BBD2DA
:1033E0008C01892B39F0E881F981EA0DFB1D85817B
:1033F000968105D55FEF851A950A8DE0A80EB11C60
:10340000B1CF31CA789408952F923F924F925F9234
:103410006F927F929F92AF92BF92CF92DF92EF9284
:10342000FF920F931F93CF93DF9300D000D0CDB7BF
:10343000DEB70091890310918A03992493940115B2
:10344000110509F43EC0A0908B03B0908C030BDAF9
:10345000982E8823B1F110928A031092890310925A
:103460008C0310928B0310928D0310928E038FEFBA
:103470009FEFDC0180931F0290932002A093210212
:10348000B093220278947FD31E830D83C12CD12C5C
:103490007601C501B0E0A0E089839A83AB83BC8349
:1034A00022242A94322C89819A81AB81BC81C8164E
:1034B000D906EA06FB06F4F0C801A1D480E40E9414
:1034C000D30C892D26960FB6F894DEBF0FBECDBF64
:1034D000DF91CF911F910F91FF90EF90DF90CF90F0
:1034E000BF90AF909F907F906F905F904F903F9074
:1034F0002F900895AD81BE8115968D919C91169760
:10350000209115023091160282179307D1F451963B
:103510008D919C91EED5ED81FE8180819181B12CC0
:10352000A12C412C512C3201892B89F5BFEFCB1AEC
:10353000DB0AEB0AFB0AED81FE817396FE83ED83C5
:10354000B2CFC114D104E104F10429F7892B19F792
:10355000ED81FE81818992898F3F980709F029D5F5
:10356000AD81BE8152963C922E925197D4CF8A0D56
:103570009B1DDC018D919C91009709F040D4BFEF19
:103580004B1A5B0A6B0A7B0AEDE0AE0EB11CAD81F3
:10359000BE818D919C91119712964C9150E070E0F4
:1035A00060E044165506660677060CF328D4BECFB5
:1035B000CF93DF93EA0128DF811109C082E090E018
:1035C0009983888385EF9FEFDF91CF91089581E004
:1035D00090E00E94C50C81E090E09983888390E0A0
:1035E00080E0F2CF11DF10928603109285030895D8
:1035F00042E050E06AEA72E00C94E30CFF920F9311
:103600001F93CF93DF938A01EC01C60FD71FF98078
:10361000B9D20897F816190671F068F082E090E0C8
:10362000F801918380838EEF9FEFDF91CF911F91FF
:103630000F91FF9008956C817D818E819F814B81D8
:103640000E94780F811108C082E090E0F801918318
:10365000808384EF9FEFE9CFF9800E94730F4F2D95
:1036600050E0BE01685F7F4F0E94062F89810E9453
:10367000E20F81E090E0F8019183808390E080E0A8
:10368000D4CFDF92EF92FF920F931F93CF93DF93EC
:103690008A01EC01C60FD71F0E94730F7C01D980ED
:1036A00071D2DD2059F0029721E030E0D8161906DA
:1036B00019F010F030E020E0232B79F482E090E064
:1036C000F801918380838EEF9FEFDF91CF911F915F
:1036D0000F91FF90EF90DF900895EF2841F482E082
:1036E00090E0F8019183808384EF9FEFEECFF98023
:1036F0000E94730F4F2D50E0BE016E5F7F4F0E94FE
:10370000062F89810E94E20F81E090E0F801918309
:10371000808390E080E0D9CF88EF9AE19093900386
:1037200080938F03089580918F0390919003089563
:103730000895FC0111821082938382830895DB0136
:103740001D921C92DC011296ED91FC9113977183EE
:10375000608313967C936E9312970895FC01808189
:103760009181DB018D939C93A081B181109741F0F1
:103770008D919C9191838083892B11F4F383E28353
:103780000895FC0180819181DB018D939C93892BAD
:1037900011F473836283718360830895FC01118245
:1037A0001082938382830895CF93DF931F921F9299
:1037B000CDB7DEB71A821982F894BE016F5F7F4FD2
:1037C00086E993E0CBDF89819A81009709F017D3CE
:1037D00089819A81892B89F7BE016F5F7F4F8AE9C2
:1037E00093E0BCDF89819A81009709F008D3898131
:1037F0009A81892B89F778940F900F90DF91CF9160
:103800000895CF93DF931F921F92CDB7DEB71A8230
:103810001982F894BE016F5F7F4F82E993E09EDFCB
:1038200089819A81009709F0EAD289819A81892B4E
:1038300089F778940F900F90DF91CF91089581E0F0
:10384000089590E080E00895EF92FF920F931F9308
:10385000CF93DF931F921F92CDB7DEB71A821982E2
:103860008091910307EF1FEF8823A1F1F894BE0127
:103870006F5F7F4F8AE993E071DF789489819A8145
:10388000EE24E394F12C892B51F4F894BE016F5F80
:103890007F4F86E993E062DF7894F12CE12C8981F7
:1038A0009A810EEF1FEF0097A9F0FC01428153812E
:1038B00064E070E074D68C01892B61F0F894698122
:1038C0007A81C701880F991F880F991F8A569C4FCC
:1038D00058DF7894C8010F900F90DF91CF911F911E
:1038E0000F91FF90EF9008950F931F93CF93DF9365
:1038F00000D01F92CDB7DEB71C821B821A821982BC
:103900008091910307EF1FEF8823C1F0AE014D5F57
:103910005F4F64E070E0CE010196B4D68C01892B34
:1039200069F4E981FA818B819C8193838283F89485
:1039300069817A8182E993E002DF7894C8010F906F
:103940000F900F900F90DF91CF911F910F910895DD
:10395000B9D7049608958F929F92AF92BF92CF925B
:10396000DF92EF92FF920F931F93CF93DF931F92FB
:103970001F92CDB7DEB71A821982BC016F5F7F4FED
:103980006330710598F0AA24AA94BA2CC5010F904F
:103990000F90DF91CF911F910F91FF90EF90DF90EB
:1039A000CF90BF90AF909F908F9008954115510593
:1039B00051F3480159018A016C01CADF8815990544
:1039C00011F7E114F104F9F28E0D9F1DA816B90646
:1039D000D0F2809191038823F1F0F894B5016450FE
:1039E00071099701AE014F5F5F4FC8010496DFD6A2
:1039F0005C01892B71F489819A81F8019383828318
:103A0000C601880F991F880F991FB8018A569C4FCD
:103A100096DE7894BBCF87EFA82EBB24BA94B6CF9E
:103A2000AF92BF92CF92DF92EF92FF920F931F93CC
:103A3000CF93DF931F921F92CDB7DEB71A82198200
:103A4000892B09F047C06115710509F443C0411580
:103A5000510509F43FC02115310509F43BC001159A
:103A60001105C1F1809191038823B9F179016A01AF
:103A70005B01F894BE016F5F7F4F82E993E06EDED9
:103A8000789489819A81009759F1DC0112966D91A1
:103A90007C91A8010496A4D68C01E981FA81D50114
:103AA000ED93FC93828193810496F6019183808348
:103AB0004FDFD7018D939C93C8010F900F90DF913A
:103AC000CF911F910F91FF90EF90DF90CF90BF901B
:103AD000AF9008950FEF1FEFEFCF07EF1FEFECCF81
:103AE0000EEF1FEFE9CFCF93DF93EC01672B71F45B
:103AF000F2D68C179D0760F0E5D62496C80FD91F23
:103B0000E4D68C0F9D1FDF91CF910895E1D6F1CFC0
:103B100090E080E0F8CF0F931F93CF93DF93209135
:103B2000910321112BC08B01EC0186E993E001DEAA
:103B30008AE993E0FEDD82E993E0FBDD97D0009710
:103B4000C1F4C9D670E060E0CEDF43E252E062E04B
:103B500070E081D1009769F4809123029091240252
:103B6000CCD6B801CE0101D5009719F421E02093FD
:103B70009103DF91CF911F910F91089584EF9FEFF3
:103B8000F8CFA6C6A8C6CF93DF93A8D6EC01892BA1
:103B900011F40ADE36DECE01DF91CF910895CF9386
:103BA000DF939CD6EC01892B09F4FEDDCE01DF9179
:103BB000CF91089580912302909124020895CF938C
:103BC000DF9380919103D0E0C0E08823D1F09AD6B2
:103BD000EC01892BB1F4E8DD14DE80912302909191
:103BE0002402E7D1E8D2EC01892B59F486E993E06D
:103BF000D5DD8AE993E0D2DD82E993E0CFDD109252
:103C00009103CE01DF91CF910895EF92FF920F9330
:103C10001F93CF93DF93EC017A018B010F5F1F4F4E
:103C20000E9DA0010F9D500D1E9D500D112470E0A2
:103C300060E00E940F2F90E080E0F0E0E0E02FEFE6
:103C4000E816F90639F4DF91CF911F910F91FF909B
:103C5000EF9008951A8219822883309711F0D28349
:103C6000C1830196FE01C00FD11FEACFCF92DF9230
:103C7000EF92FF920F931F93CF93DF9303EA14E029
:103C80000C7F43E050E065E272E08BE292E01AD4F0
:103C900085E2E82E82E0F82E9BE2C92E92E0D92E32
:103CA000CAE0D5E0D7014D915D917D01F6016191AA
:103CB00071916F01198308835D834C835B834A8311
:103CC0007F836E839B012F5F3F4F249FC001259F01
:103CD000900D349F900D1124998788870115110547
:103CE00011F0C80192DF88859985080F191F2A965F
:103CF000FBE2EF16F2E0FF06A9F6E0EAF3E080E06F
:103D000091E0DF019C011D9221503040E1F71092BB
:103D10009F0310929E03109229051092280510927D
:103D20002D0510922C0510922B0510922A05109249
:103D30002F0510922E051092310510923005109229
:103D40003305109232051092370510923605109205
:103D500035051092340510923905109238051092ED
:103D60003B0510923A051092070510920605109235
:103D700009051092080590E080E0DF91CF911F9136
:103D80000F91FF90EF90DF90CF9008950097F1F0A2
:103D9000F894ABE2B2E0EAE0F5E030E020E04D91EB
:103DA0005D9148175907A8F042815381411551058B
:103DB00081F08AE0829FF001839FF00D1124E65F7D
:103DC000FA4F80819181009759F4789490E080E0D7
:103DD00008952F5F3F4F3A962330310501F7F5CF15
:103DE000DC0111966D917C91718360834150510982
:103DF00053834283FC012193CF0178940895009767
:103E000049F1DC018E91853041F4E0910805F09193
:103E100009053097F9F0CD0119948530D8F4282F91
:103E200030E0F8948FEF8C938AE0829FF001839FBB
:103E3000F00D1124E65FFA4F8081918112969C93D8
:103E40008E931197B183A08382819381019693838E
:103E5000828378940895CF92DF92EF92FF920F932E
:103E60001F93CF93DF939C0183EA93E08C7F4115EE
:103E7000510509F49BC02115310509F497C061155E
:103E8000710509F493C07A01AB01B9016D5F7F4FF1
:103E90006C7F9B012F5F3F4F249F8001259F100D5A
:103EA000349F100D1124F894209128053091290594
:103EB000232B59F42091300530913105211531051E
:103EC00069F12017310708F058C020913205309170
:103ED0003305232B91F42091300530913105820F69
:103EE000931F20913A0530913B052115310509F4C6
:103EF00041C02017310708F056C07894CFEFDFEFAC
:103F000086EF9FEFF701D183C083DF91CF911F919F
:103F10000F91FF90EF90DF90CF900895C3E0D0E035
:103F2000C0909E03D0909F032DEF30E02C193D09E7
:103F30002017310710F32AE02C9FF0012D9FF00D80
:103F40001124E65FFA4F9183808355834483538322
:103F500042837783668311870087009709F055DED7
:103F60000C0D1D1D10939F0300939E03789490E009
:103F700080E0C8CFC4E0D0E0D3CFC3E0D0E02AE0F7
:103F80002C9FF0012D9FF00D1124E65FFA4F9183D5
:103F9000808355834483538342837783668300976A
:103FA00029F333DEE3CFC4E0D0E0E9CF8FEF9FEF1A
:103FB000ACCF9C010397029708F069C0F89484E0A5
:103FC0009AE0482F50E0241735070CF44DC091E0DB
:103FD0008AE0829FF001839FF00D1124E65FFA4F83
:103FE0001182108215821482138212821782168225
:103FF0009923B1F18091280590912905892BA9F485
:1040000020913005309131052115310571F08091F5
:104010009E0390919F03821B930B90939F03809329
:104020009E031092310510923005809132059091D7
:104030003305892BA9F420913A0530913B052115D0
:10404000310571F080919E0390919F03821B930B29
:1040500090939F0380939E0310923B0510923A0524
:10406000789490E080E00895949FF001959FF00D82
:104070001124E65FFA4F40815181452B31F4408590
:104080005185452B11F481509CCF90E0A1CF8FEF4B
:104090009FEF08954115510549F1009739F16115D8
:1040A000710521F1F8942091060530910705232B25
:1040B000B9F42091080530910905232B89F49093D8
:1040C00007058093060570930905609308057894A9
:1040D00025E030E090E080E0FA013183208308950C
:1040E00078942FEF3FEF86EF9FEFF6CF8FEF9FEFA4
:1040F0000895059769F4F894109207051092060543
:104100001092090510920805789490E080E00895D7
:104110008FEF9FEF08956115710519F4F0E0E0E06D
:1041200011C08530910581F4E0910605F0910705F5
:104130003097A1F3CB0101961995009779F3FC0113
:1041400085E08193CF0108959C01235031092230ED
:10415000310520F72AE0289FD001299FB00D1124B6
:10416000A65FBA4F2D913C911197232BB9F2169669
:104170002D913C9117972617370780F2F8941296E5
:104180002D913C9113972115310529F0ED91FC916A
:104190001197309711F47894C1CF418152811196D3
:1041A0005C934E932150310913963C932E931297B2
:1041B00081937894C7CFE0EAF4E086E6DF011D92B0
:1041C0008A95E9F7E0EAF3E080E091E0DF019C0105
:1041D0001D9221503040E1F710929F0310929E03F0
:1041E000EAE0F5E082E3DF011D928A95E9F7E6E077
:1041F000F5E084E0DF011D928A95E9F790E080E028
:104200000895CF93DF93C0913102D0913202CF3F16
:10421000DC0759F420D4909332028093310297FF47
:1042200009C0D0933202C093310284EF9FEFDF9137
:10423000CF91089590E080E0FACF8230910528F484
:1042400080933C0590E080E008958FEF9FEF089504
:104250004F925F926F927F92AF92BF92CF92DF9216
:10426000EF92FF920F931F93CF93DF931F921F92B2
:10427000CDB7DEB71A821982009709F478C06115AC
:10428000710509F474C0209131023091320207EFB8
:104290001FEF2F3F3F4F09F444C06B015C01412CDD
:1042A000512C3201F12CE12C10E000E09E012F5F37
:1042B0003F4FA6014E195F09B5016E0D7F1D80911C
:1042C00031029091320226D4892B09F04AC08981AB
:1042D0009A81009741F4E114F10429F420913C05FE
:1042E000222309F441C0E80EF91EEC14FD04C8F4C1
:1042F00080E8481684E858068EE16806710418F5CF
:1043000060E070E0CB0159D72AE0420E511C611CDD
:10431000711C0A3F4FEF140721F0043F8FEF18077D
:10432000A1F4C8010F900F90DF91CF911F910F91D1
:10433000FF90EF90DF90CF90BF90AF907F906F9005
:104340005F904F90089501EF1FEF81E090E0013FF3
:104350002FEF120711F090E080E0892B09F4A6CF2F
:10436000E0CF04EF1FEFDDCF0AEF1FEFDACF0FEF43
:104370001FEFD7CF4F925F926F927F92AF92BF9213
:10438000CF92DF92EF92FF920F931F93CF93DF9321
:104390001F921F92CDB7DEB71A821982009709F4D7
:1043A00078C06115710509F474C020913102309113
:1043B000320207EF1FEF2F3F3F4F09F444C06B015C
:1043C0005C01412C512C3201F12CE12C10E000E079
:1043D0009E012F5F3F4FA6014E195F09B5016E0D7B
:1043E0007F1D80913102909132024AD3892B09F0CE
:1043F0004AC089819A81009741F4E114F10429F4BB
:1044000020913C05222309F441C0E80EF91EEC146A
:10441000FD04C8F480E4481682E458068FE068067C
:10442000710418F560E070E0CB01C7D62AE0420EB7
:10443000511C611C711C0E3F4FEF140721F0043F0B
:104440008FEF1807A1F4C8010F900F90DF91CF9163
:104450001F910F91FF90EF90DF90CF90BF90AF90A2
:104460007F906F905F904F90089502EF1FEF81E073
:1044700090E0023F2FEF120711F090E080E0892BCF
:1044800009F4A6CFE0CF04EF1FEFDDCF0EEF1FEF53
:10449000DACF0FEF1FEFD7CF809131029091320228
:1044A0008F3F980749F0CFD2892B49F48FEF9FEFC8
:1044B000909332028093310290E080E0089584EF7F
:1044C0009FEF0895CF92DF92EF92FF920F931F9389
:1044D000CF93DF9321E04115510509F020E04150D1
:1044E000510921112CC0DC01FB01D12CC12C21E090
:1044F00022C03FEFC31AD30A7D010D911D91E70140
:10450000EA80FB80E016F106A8F420813181E28088
:10451000F380F182E08233832283ED90FC90119747
:104520009D0122503109E901F982E88211961C931C
:104530000E9320E03296C416D506D8F2D2CFDF9182
:10454000CF911F910F91FF90EF90DF90CF90089542
:10455000FC01680F791F90E080E0E617F70709F487
:1045600008952191820F911DF8CF20913D052111D1
:1045700013C047DE009791F4109243051092420554
:10458000109241051092400510923F0510923E0591
:1045900021E020933D05089584EF9FEF0895AF92A9
:1045A000BF92CF92DF92EF92FF920F931F93CF9320
:1045B000DF93009709F460C04630510508F45CC0F1
:1045C00020913D05C7EFDFEF222309F449C08C019C
:1045D000060F171FF801C080D180C114D10409F45F
:1045E0004EC096012A5F3F4F4217530708F447C059
:1045F0007C01809142059091430593838283B601AB
:104600006C5F7F4F5801A60EB71EC801A1DFF501F0
:104610009183808364E070E0C8011ADEEC01892B8D
:10462000F9F481E090E009DEB601C801049610DEDD
:10463000EC01892B91F462E070E0C50109DEEC0128
:10464000892B59F4C701DBDB80914205909143052A
:104650000196909343058093420590E080E0EDDD64
:10466000CE01DF91CF911F910F91FF90EF90DF90DE
:10467000CF90BF90AF900895CFEFDFEFF1CFC9EFAC
:10468000DFEFEECF6F927F928F929F92AF92BF92A9
:10469000CF92DF92EF92FF920F931F93CF93DF930E
:1046A00000D01F92CDB7DEB7009709F47AC041154C
:1046B000510509F476C020913D0507EF1FEF222335
:1046C00009F44DC03A017B015C0164E070E0CE0169
:1046D000019650DE8C01892B09F041C009811A81B5
:1046E0000115110509F45AC0480186E0880E911C95
:1046F000B701680D791D80913302909134020BDD72
:104700006C01009709F450C0A70170E060E00E94BE
:104710000F2F89819A81AB81BC81EC0CFD1CF701C4
:1047200081939193A193B1937F0181E090E085DD26
:10473000B801C7011FDE892B31F562E070E0C701C7
:10474000800F911F17DE8C01892BE9F490E080E047
:1047500074DDF501D182C082F30191828082C801AB
:104760000F900F900F900F90DF91CF911F910F91AD
:10477000FF90EF90DF90CF90BF90AF909F908F9081
:104780007F906F90089590E080E057DDF5011182F1
:104790001082F30111821082C60131DB09EF1FEF95
:1047A000DECF0FEF1FEFDBCF06EF1FEFD8CF009765
:1047B000A1F04115510589F02115310571F0F9017C
:1047C00036966E177F0748F0DC012D933C93DA0193
:1047D000ED93FC9390E080E008958FEF9FEF0895B4
:1047E000AF92BF92CF92DF92EF92FF920F931F93FF
:1047F000CF93DF93009709F45FC04115510509F489
:104800005BC06530710508F457C020913D05C7EFC6
:10481000DFEF222391F1DC01CD90DC90119712960D
:10482000ED91FC9196012A5F3F4FC9EFDFEF26170C
:10483000370719F5C0913E05D0913F05209749F5FE
:1048400021E030E030933F0520933E057A018C0152
:10485000F0934105E09340055601B4E0AB0EB11C66
:10486000B50176DE0A0D1B1DF8012081318182170A
:10487000930729F5D701CD92DC92CE01DF91CF913C
:104880001F910F91FF90EF90DF90CF90BF90AF906E
:10489000089520914005309141052F5F3F4FCCEFA7
:1048A000DFEFE217F30790F2CBEFDFEF2E173F07B2
:1048B00068F2D0E0C0E0CACFCFEFDFEFDECFC3EFCA
:1048C000DFEFDBCF84E090E0089582E090E0089590
:1048D0008CEF9FEF089580E290E0089510924305D9
:1048E00010924205109241051092400510923F052A
:1048F00010923E0590E080E00895909334028093FA
:104900003302089580913D05882391F0C5DD00971D
:1049100089F41092430510924205109241051092BD
:10492000400510923F0510923E0510923D050895F6
:1049300090E080E00895009749F06115710531F02D
:10494000FC0111821082FB01118210820895F3CFC5
:1049500026E030E040E855E260E070E090E080E082
:1049600000C08130910569F01CF4892B39F008955D
:104970008230910549F0039751F0089581E595E063
:1049800021C78EEE95E0FCCF8BE896E0F9CF88E268
:1049900097E0F6CF1F920F920FB60F9211240BB62D
:1049A0000F922F933F934F935F936F937F938F93C8
:1049B0009F93AF93BF93EF93FF938BEC93EF909301
:1049C000250180932401BAD0FF91EF91BF91AF915F
:1049D0009F918F917F916F915F914F913F912F9117
:1049E0000F900BBE0F900FBE0F901F9018958BEC81
:1049F00093EF9093250180932401A3E7B0E08C917D
:104A00008E7F8C93E0E2F1E080818C7F8083E1E215
:104A1000F1E08081877E80838081856080838081D2
:104A20008D7F80838C9181608C930895E3E7F0E023
:104A3000808190819E7F90838170089581E00895A8
:104A400010924405089568EE73E080E090E0B5D3DD
:104A500090E080E0089526E030E040E050E16EE034
:104A600070E090E080E07DDF81E595E0E1D5892B85
:104A700021F081E595E0F6D5F7CF90E080E008954C
:104A8000CF92DF92EF92FF920F931F93CF93DF931A
:104A90006B017A01E9011982188281E595E0C8D598
:104AA000892B69F18601CC24C39482E0D82E8091B1
:104AB0004405811110C081E595E0D4D50297B9F77E
:104AC000C0924405F801D1928F01888199810196A5
:104AD00099838883ECCF888199818E159F0578F41E
:104AE00081E595E0BFD58F3F9807A9F3F801819341
:104AF0008F0188819981019699838883ECCF90E01A
:104B000080E0DF91CF911F910F91FF90EF90DF90A8
:104B1000CF9008950F931F93CF93DF93EA018901FC
:104B200081E595E00E94722EF801D183C08390E068
:104B300080E0DF91CF911F910F910895CF92DF9286
:104B4000EF92FF928091450591E0980F9093450573
:104B5000882369F021E030E0309347052093460533
:104B600080934505FF90EF90DF90CF900895789463
:104B7000E0913602F0913702C28CD38CE48CF58C34
:104B80000E942C05B701A60190E080E00E9450042D
:104B9000F894809145058150E3CF0F931F93CF93F5
:104BA000DF931092DA071092D9073DD3D1DEC0917E
:104BB0003602D0913702198218826FEF7FEFCB0156
:104BC0000E94D20470E060E090E080E00E94540314
:104BD000009709F03AC00E94D505F8947894BE0178
:104BE0006E5D7F4F8A819B810E945703892B59F408
:104BF0006FEF7FEFCB010E94E6030E94CC04882375
:104C000011F081E08EA3F894F2DE0E94CF04882395
:104C100011F080E008C00E94CC048111FACF81E03D
:104C20009EA19111F6CF8093D90778940E94C00C71
:104C30008C0178948091D90781110CC00E94640680
:104C40000E94B204F89490E080E0DF91CF911F9130
:104C50000F9108950E94B0040E94CF048823D9F0D8
:104C600081E08093DA079091DA0781E0911180E08A
:104C70008093D9078091DA078111D8DE01301105C0
:104C800029F40E94C00C892B09F4DADE0E94C00CC2
:104C90008C01D4DECFCF0E94CC048111E1CF81E022
:104CA0009EA19111DECF80E0DCCF5058BB27AA2710
:104CB0000ED05CC14DD130F052D120F031F49F3F85
:104CC00011F41EF442C10EF4E095E7FB0FC1E92F89
:104CD0005ED180F3BA17620773078407950718F04F
:104CE00071F49EF58DC10EF4E0950B2EBA2FA02D18
:104CF0000B01B90190010C01CA01A0011124FF2789
:104D0000591B99F0593F50F4503E68F11A16F04083
:104D1000A22F232F342F4427585FF3CF4695379582
:104D20002795A795F0405395C9F77EF41F16BA0B47
:104D3000620B730B840BBAF09150A1F0FF0FBB1FF5
:104D4000661F771F881FC2F70EC0BA0F621F731F3E
:104D5000841F48F4879577956795B795F7959E3F9B
:104D600008F0B3CF9395880F08F09927EE0F979529
:104D7000879508952ED180F09F3740F491110EF45D
:104D800040C160E070E080E89FE3089526F01B16C4
:104D9000611D711D811DB0C0CAC084D008F481E0BE
:104DA000089504D06894B1112CC10895F8D088F00A
:104DB0009F5790F0B92F9927B751A0F0D1F0660F07
:104DC000771F881F991F1AF0BA95C9F712C0B13022
:104DD00081F016D1B1E0089513C1672F782F88278D
:104DE000B85F39F0B93FCCF3869577956795B39561
:104DF000D9F73EF490958095709561957F4F8F4FD0
:104E00009F4F0895E89409C097FB3EF490958095D4
:104E1000709561957F4F8F4F9F4F9923A9F0F92F80
:104E200096E9BB279395F695879577956795B795FE
:104E3000F111F8CFFAF4BB0F11F460FF1BC06F5FE4
:104E40007F4F8F4F9F4F16C0882311F096E911C0F6
:104E5000772321F09EE8872F762F05C0662371F017
:104E600096E8862F70E060E02AF09A95660F771F2B
:104E7000881FDAF7880F9695879597F90895A9D036
:104E800080F09F3740F491110EF0BBC060E070E0FD
:104E900080E89FEB089526F41B16611D711D811D8E
:104EA0002BC045C0990F0008550FAA0BE0E8FEEF94
:104EB00016161706E807F907C0F012161306E407DE
:104EC000F50798F0621B730B840B950B39F40A26D7
:104ED00061F0232B242B252B21F408950A2609F4B5
:104EE000A140A6958FEF811D811D089597F99F67B9
:104EF00080E870E060E00895882371F4772321F062
:104F00009850872B762F07C0662311F499270DC080
:104F10009051862B70E060E02AF09A95660F771F1B
:104F2000881FDAF7880F9695879597F908959F3F20
:104F300031F0915020F4879577956795B795880F54
:104F4000911D9695879597F908959FEF80EC0895A8
:104F500000240A9416161706180609060895002458
:104F60000A9412161306140605060895092E0394D2
:104F7000000C11F4882352F0BB0F40F4BF2B11F446
:104F800060FF04C06F5F7F4F8F4F9F4F089557FDA5
:104F90009058440F551F59F05F3F71F04795880FA7
:104FA00097FB991F61F09F3F79F08795089512163E
:104FB00013061406551FF2CF4695F1DF08C01616EA
:104FC00017061806991FF1CF86957105610508949B
:104FD0000895E5DFA0F0BEE7B91788F4BB279F3836
:104FE00060F41616B11D672F782F8827985FF7CFCA
:104FF000869577956795B11D93959639C8F3089571
:10500000E894BB2766277727CB0197F908954ADFF5
:1050100008F48FEF08950BD0A9CF9ADF28F09FDF17
:1050200018F0952309F062CF90CF1124EACFAFDFBB
:10503000A0F3959FD1F3950F50E0551F629FF001AB
:10504000729FBB27F00DB11D639FAA27F00DB11D04
:10505000AA1F649F6627B00DA11D661F829F22278D
:10506000B00DA11D621F739FB00DA11D621F839F14
:10507000A00D611D221F749F3327A00D611D231FEA
:10508000849F600D211D822F762F6A2F11249F5738
:1050900050408AF0E1F088234AF0EE0FFF1FBB1F5B
:1050A000661F771F881F91505040A9F79E3F5105FA
:1050B00070F01CCFA6CF5F3FECF3983EDCF38695F3
:1050C00077956795B795F795E7959F5FC1F7FE2BA5
:1050D000880F911D9695879597F908951F920F92C5
:1050E0000FB60F9211242F933F938F939F93AF93FB
:1050F000BF938091490590914A05A0914B05B091CD
:105100004C053091480523E0230F2D3758F50196C3
:10511000A11DB11D209348058093490590934A0530
:10512000A0934B05B0934C0580914D0590914E0591
:10513000A0914F05B09150050196A11DB11D80931E
:105140004D0590934E05A0934F05B0935005BF9128
:10515000AF919F918F913F912F910F900FBE0F9024
:105160001F90189526E8230F0296A11DB11DD2CFDE
:105170003FB7F89480914D0590914E05A0914F0551
:10518000B091500526B5A89B05C02F3F19F0019698
:10519000A11DB11D3FBFBA2FA92F982F8827BC0191
:1051A000CD01620F711D811D911D42E0660F771FB9
:1051B000881F991F4A95D1F708958F929F92AF92B9
:1051C000BF92CF92DF92EF92FF926B017C01D0DF12
:1051D0004B015C01C114D104E104F104D9F0AFD555
:1051E000C7DF681979098A099B09683E7340810500
:1051F000910580F321E0C21AD108E108F10888EE98
:10520000880E83E0981EA11CB11CC114D104E104D6
:10521000F10431F7FF90EF90DF90CF90BF90AF9007
:105220009F908F900895789484B5826084BD84B5F2
:10523000816084BD85B5826085BD85B5816085BD91
:10524000EEE6F0E0808181608083E1E8F0E01082AA
:10525000808182608083808181608083E0E8F0E0EB
:10526000808181608083E1EBF0E0808184608083D5
:10527000E0EBF0E0808181608083E1E9F0E0808113
:1052800082608083808181608083E0E9F0E08081BA
:1052900081608083E1EAF0E08081826080838081A8
:1052A00081608083E0EAF0E0808181608083E1E2D8
:1052B000F1E0808182608083808181608083E0E290
:1052C000F1E0808181608083EAE7F0E080818460A2
:1052D00080838081826080838081816080838081FF
:1052E000806880831092C10008951F93CF93DF934D
:1052F000182FEB0161E033D1209731F460E0812F6A
:10530000DF91CF911F9167C1CF3FD10511F461E0CB
:10531000F6CFE12FF0E0EC51FF4FE491E150E231A4
:1053200008F0B2C0F0E08827E856F64D8F4F4DC523
:10533000AA29B229B729C129CB29442AD529DD298F
:10534000E529EF29F929032A122A1C2A442A262AA8
:10535000302A3A2A84B5806884BDC7BDDF91CF91D9
:105360001F91089584B5806284BDC8BDF7CF809138
:105370008000806880938000D0938900C09388006B
:10538000EDCF80918000806280938000D0938B006D
:10539000C0938A00E3CF8091800088608093800072
:1053A000D0938D00C0938C00D9CF8091B0008068DD
:1053B0008093B000C093B300D1CF8091B0008062E1
:1053C0008093B000C093B400C9CF809190008068F2
:1053D00080939000D0939900C0939800BFCF8091A4
:1053E0009000806280939000D0939B00C0939A00BD
:1053F000B5CF80919000886080939000D0939D00FD
:10540000C0939C00ABCF8091A00080688093A000E7
:105410008091A0008F7B8093A000D093A900C093BF
:10542000A8009CCF8091A00080628093A000D093C0
:10543000AB00C093AA0092CF8091A00088608093B7
:10544000A000D093AD00C093AC0088CF8091200124
:10545000806880932001D0932901C09328017ECFDA
:1054600080912001806280932001D0932B01C09312
:105470002A0174CF80912001886080932001D0930D
:105480002D01C0932C016ACFC038D1050CF03FCF5D
:1054900035CF8150823108F059C0E82FF0E08827DD
:1054A000EC5AF54D8F4F91C4742A782A662A6C2ADB
:1054B000702AA62A7B2A812A852A8B2A8F2A932A58
:1054C000992A9D2AA62AA12AA72AAB2A8091800080
:1054D0008F77809380000895809180008F7DF9CF31
:1054E00080918000877FF5CF84B58F7784BD089544
:1054F00084B58F7DFBCF8091B0008F778093B00013
:1055000008958091B0008F7DF9CF809190008F77C2
:10551000809390000895809190008F7DF9CF8091C5
:105520009000877FF5CF8091A0008F778093A000B7
:1055300008958091A0008F7DF9CF8091A000877F92
:10554000F5CF809120018F7780932001089580917D
:1055500020018F7DF9CF80912001877FF5CFCF93F8
:10556000DF9390E0FC01E65DFE4F249180599E4F51
:10557000FC0184918823C9F090E0880F991FFC01F9
:10558000E053FE4FA591B491FC01EA54FE4FC59142
:10559000D49161110DC09FB7F8948C91209582230E
:1055A0008C938881282328839FBFDF91CF91089512
:1055B000623051F49FB7F8943C91822F80958323F9
:1055C0008C93E8812E2BEFCF8FB7F894EC912E2B94
:1055D0002C938FBFEACF1F93CF93DF93282F30E018
:1055E000F901EC51FF4F8491F901E65DFE4FD49132
:1055F000F901E059FE4FC491CC23A1F0162F81117F
:1056000048DFEC2FF0E0EE0FFF1FEA54FE4FA591AC
:10561000B4918FB7F894EC91111108C0D095DE23A6
:10562000DC938FBFDF91CF911F910895DE2BF8CFD0
:10563000FC01918D228D892F90E0805C9F4F821B11
:1056400091098F7399270895FC01918D828D981788
:1056500031F0828DE80FF11D858D90E008958FEF78
:105660009FEF0895FC01918D828D981761F0A28DB6
:10567000AE0FBF2FB11D5D968C91928D9F5F9F7372
:10568000928F90E008958FEF9FEF0895FC01538D66
:10569000448D252F30E0842F90E0821B930B54170C
:1056A00010F0CF96089501970895FC01A48DA80FDE
:1056B000B92FB11DA35ABF4F2C91848D90E0019654
:1056C0008F739927848FA689B7892C93A089B18974
:1056D0008C91837080648C93938D848D981306C015
:1056E0000288F389E02D80818F7D80830895CF9398
:1056F000DF93EC01888D8823B1F0AA89BB89E88902
:10570000F9898C9185FD03C0808186FD0CC00FB6A0
:1057100007FCF7CF8C9185FFF2CF808185FFEDCF1D
:10572000CE01C3DFEACFDF91CF910895EF92FF92D0
:105730000F931F93CF93DF93EC0181E0888F9B8DB4
:105740008C8D98131AC0E889F989808185FF15C06E
:105750009FB7F894EE89FF896083E889F989808191
:105760008370806480839FBF81E090E0DF91CF9160
:105770001F910F91FF90EF900895F62E0B8D10E082
:105780000F5F1F4F0F731127E02E8C8D8E110BC0F2
:105790000FB607FCFACFE889F989808185FFF5CF3C
:1057A000CE0183DFF2CFEB8DEC0FFD2FF11DE35A1D
:1057B000FF4FF0829FB7F8940B8FEA89FB898081B5
:1057C0008062D0CFCF92DF92EF92FF921F93CF9360
:1057D000DF93EC016A017B01122FE889F98982E0ED
:1057E0008083C11481EED806E104F10499F060E0F1
:1057F00079E08DE390E0A7019601C5D221503109EF
:10580000410951095695479537952795211580E10E
:10581000380790F0E889F989108260E874E88EE131
:1058200090E0A7019601AFD22150310941095109F9
:105830005695479537952795EC85FD853083EE8500
:10584000FF852083188EEC89FD891083EA89FB8906
:10585000808180618083EA89FB8980818860808380
:10586000EA89FB89808180688083EA89FB8980815D
:105870008F7D8083DF91CF911F91FF90EF90DF901C
:10588000CF9008951F920F920FB60F9211240BB66E
:105890000F922F938F939F93EF93FF93E091610566
:1058A000F09162058081E0916705F091680582FDC5
:1058B0001DC0908180916A058F5F8F7320916B0569
:1058C000821741F0E0916A05F0E0EF5AFA4F958FA8
:1058D00080936A05FF91EF919F918F912F910F9087
:1058E0000BBE0F900FBE0F901F9018958081F2CFC6
:1058F0001F920F920FB60F9211240BB60F922F9397
:105900003F934F935F936F937F938F939F93AF9347
:10591000BF93EF93FF9381E595E0C7DEFF91EF9191
:10592000BF91AF919F918F917F916F915F914F91B7
:105930003F912F910F900BBE0F900FBE0F901F90B5
:105940001895E1E5F5E01382128288EE93E0A0E07D
:10595000B0E084839583A683B7838AEB92E091833A
:10596000808385EC90E09587848784EC90E097872E
:10597000868780EC90E0918B808B81EC90E0938B1C
:10598000828B82EC90E0958B848B86EC90E0978BF9
:10599000868B118E128E138E148E08951F920F9285
:1059A0000FB60F9211240BB60F922F938F939F93E4
:1059B000EF93FF93E091FE05F091FF058081E09168
:1059C0000406F091050682FD1DC0908180910706B6
:1059D0008F5F8F7320910806821741F0E0910706D0
:1059E000F0E0E251FA4F958F80930706FF91EF9117
:1059F0009F918F912F910F900BBE0F900FBE0F9024
:105A00001F9018958081F2CF1F920F920FB60F92C0
:105A100011240BB60F922F933F934F935F936F9385
:105A20007F938F939F93AF93BF93EF93FF938EEEEC
:105A300095E03BDEFF91EF91BF91AF919F918F91E8
:105A40007F916F915F914F913F912F910F900BBE7E
:105A50000F900FBE0F901F901895EEEEF5E0138299
:105A6000128288EE93E0A0E0B0E084839583A68361
:105A7000B7838AEB92E0918380838DEC90E09587E9
:105A800084878CEC90E09787868788EC90E0918BF8
:105A9000808B89EC90E0938B828B8AEC90E0958BE5
:105AA000848B8EEC90E0978B868B118E128E138EEA
:105AB000148E08951F920F920FB60F9211240BB6F9
:105AC0000F922F938F939F93EF93FF93E0919B06F9
:105AD000F0919C068081E091A106F091A20682FDE2
